:0400000018EF00F005
:100008005A82D9CF03F0DACF04F09EAA0EEF00F09F
:1000180010EF00F012EF00F08EEC06F004C0DAFFEB
:0C00280003C0D9FF5A92110029EF0CF020
:100800000001000A006400E803102741542B4357FD
:100810004A41503D225449474F2D34454130222C06
:1008200022324E42313132313030343438220041BC
:10083000542B43495053544152543D342C22544379
:1008400050222C222573222C3530320041542B4368
:10085000495053454E443D342C25640D0A00415403
:100860002B4349504D55583D310D0A003139322E38
:100870003136382E312E31360041542B43495053F6
:10088000454E443D0041542B43574D4F44453D3167
:100890000041542B4349504D55583D31006E6F2057
:1008A0006368616E67650041542B434946535200AB
:1008B000434F4E4E45435400286E756C6C29004CD6
:1008C000696E6B6564004552524F52004154453089
:0908D00000253175004F4B0000BA
:1008DA00150E1E6E000E1F6E76EF06F0250E2718F7
:1008EA00D8B47AEF04F07CEF04F086EF04F011C07C
:1008FA00D9FF12C0DAFF27C0DFFF114A122A76EFAA
:10090A0006F0000E266E000E256E000E206E13C035
:10091A00F6FF14C0F7FF0800F550F9EC0BF0D8A069
:10092A0099EF04F09BEF04F06CEF05F0000E266ED1
:10093A00000E256E25C005F026C006F0000E086ED2
:10094A000A0E076E3CEC0CF005C025F006C026F036
:10095A00D00E176EFF0E186E13C0F6FF14C0F7FF05
:10096A000800F550196E1A6A1750192618501A22DB
:10097A00195025261A502622134A142A13C0F6FFA4
:10098A0014C0F7FF0800F550F9EC0BF0D8B0D0EF1F
:10099A0004F0D2EF04F09FEF04F06CEF05F01EC0F4
:1009AA00D9FF1FC0DAFFDECF1CF0DDCF1DF0020E2B
:1009BA001E26000E1F221C501D10D8A4E7EF04F0BB
:1009CA00E9EF04F0EDEF04F0B80E1C6E080E1D6E90
:1009DA00000E226E000E216EF5EF04F0214A222A43
:1009EA0021501C24176E22501D20186E17C0F6FFC6
:1009FA0018C0F7FFF86A070EF76403D00800F5502D
:100A0A0005D0F6CFE1FFF7CFE2FFE7500009D8A4FF
:100A1A0011EF05F013EF05F0F3EF04F02550215C18
:100A2A0026502258D8B01CEF05F01EEF05F024EF2F
:100A3A0005F02150255E2250265A32EF05F0000EAD
:100A4A00266E000E256E32EF05F011C0D9FF12C0D6
:100A5A00DAFF200EDF6E114A122A2506D8A02606D2
:100A6A00252806E12628D8A43DEF05F03FEF05F03A
:100A7A002AEF05F05AEF05F01CC0F6FF1DC0F7FF7C
:100A8A00F86A11C0D9FF12C0DAFF070EF76403D063
:100A9A000800F55005D0F6CFE1FFF7CFE2FFE750A7
:100AAA00DF6E1C4A1D2A114A122A2106D8A02206E4
:100ABA00212806E12228D8A465EF05F067EF05F0A2
:100ACA0041EF05F076EF06F0208C8CEF05F013C0AD
:100ADA00F6FF14C0F7FF134A142A0800F5CF27F0CF
:100AEA002750000AD8B487EF06F0640AD8B48CEF0E
:100AFA0005F00D0AD8B48CEF05F01A0AD8B4D4EF71
:100B0A0004F0060AD8B469EF05F076EF06F020BCC7
:100B1A0091EF05F093EF05F0AEEF05F01EC0D9FF97
:100B2A001FC0DAFFDECF23F0DDCF24F0020E1E262F
:100B3A00000E1F2224BEA6EF05F0A4EF05F0BAEFBF
:100B4A0005F0030E2012236C241ED8B0242ABAEF13
:100B5A0005F01EC0D9FF1FC0DAFFDECF23F0DDCFBC
:100B6A0024F0020E1E26000E1F22010E276E2750A9
:100B7A00020D010EF324F66E080EF420F76E09003A
:100B8A00F550235C0900F5502458D8B0CFEF05F092
:100B9A00D1EF05F0D3EF05F0DDEF05F0272A050EBA
:100BAA002718D8A4DBEF05F0DDEF05F0BCEF05F060
:100BBA0025502610D8B4E4EF05F0E6EF05F0F4EF7F
:100BCA0005F020C017F0030E1716D8B4EFEF05F0A2
:100BDA00F1EF05F0F4EF05F02506D8A02606275018
:100BEA00176E186A2550175C1850800A196E26501D
:100BFA00800A1958D8B004EF06F006EF06F00CEF99
:100C0A0006F02750255E000E265A10EF06F0000E59
:100C1A00266E000E256E25502610D8B417EF06F062
:100C2A0019EF06F02DEF06F011C0D9FF12C0DAFF56
:100C3A00200EDF6E114A122A2506D8A02606255054
:100C4A002610D8A42BEF06F02DEF06F019EF06F0C8
:100C5A0020C017F0030E1716D8B436EF06F038EF97
:100C6A0006F040EF06F011C0D9FF12C0DAFF2D0ED0
:100C7A00DF6E114A122A27C01BF06DEF06F01B50D7
:100C8A00020D010EF324F66E080EF420F76E090029
:100C9A00F5CF07F00A00F5CF08F023C005F024C00D
:100CAA0006F075EC0AF005C00CF006C00DF0000E57
:100CBA000F6E0A0E0E6EAFEC0AF00C50300F276E54
:100CCA0011C0D9FF12C0DAFF27C0DFFF114A122A6A
:100CDA001B061B28D8A474EF06F076EF06F044EF43
:100CEA0006F013C0F6FF14C0F7FF134A142A0800CF
:100CFA00F5CF27F02750D8A485EF06F087EF06F046
:100D0A0073EF04F011C0D9FF12C0DAFF000EDF6ED4
:100D1A0012009EAA93EF06F095EF06F087EF07F010
:100D2A00AECF56F063EF07F0A00E5724D96EDA6AF9
:100D3A00000EDA2256C0DFFF572A310E5764A8EF99
:100D4A0006F0AAEF06F086EF07F0000E576E86EF60
:100D5A0007F0490E5618D8B4B5EF06F0B7EF06F00B
:100D6A00BBEF06F0000E576EBDEF06F0020E586E8E
:100D7A00500E5618D8B4C4EF06F0C6EF06F0CCEF02
:100D8A0006F0000E576E010E586E86EF07F0030E3E
:100D9A00586E86EF07F0440E5618D8B4D7EF06F00F
:100DAA00D9EF06F0DBEF06F0C6EF06F0040E586E38
:100DBA0086EF07F02C0E5618D8B4E6EF06F0E8EFE7
:100DCA0006F0EAEF06F0C6EF06F0000E576E050EC3
:100DDA00586E86EF07F02C0E5618D8A4F7EF06F0D7
:100DEA00F9EF06F0FFEF06F0060E586E000E576E8A
:100DFA0086EF07F0572A320E576406EF07F008EF1E
:100E0A0007F086EF07F0C6EF06F03A0E5618D8A498
:100E1A0011EF07F013EF07F01DEF07F0000E576E02
:100E2A00000E3B6E0D0E3A6E070E586E86EF07F0F7
:100E3A00A00E5724D96EDA6A000EDA2256C0DFFFF6
:100E4A00572A320E57642CEF07F02EEF07F086EF81
:100E5A0007F0C6EF06F08ABE35EF07F038EF07F065
:100E6A00010E39EF07F0000EFF0A016E013201325E
:100E7A008A5001187F0B01188A6EA00E5724D96E6A
:100E8A00DA6A000EDA2256C0DFFF572A5750016E7F
:100E9A00026A3A50015C3B500258D8A057EF07F05B
:100EAA0059EF07F086EF07F0000E576E000E586EE6
:100EBA00010E546E898A9D9A86EF07F05850000AEF
:100ECA00D8B499EF06F0010AD8B4AEEF06F0030AD7
:100EDA00D8B4BDEF06F0010AD8B4D0EF06F0070A7D
:100EEA00D8B4DFEF06F0010AD8B4F0EF06F0030A2F
:100EFA00D8B40AEF07F0010AD8B430EF07F086EF4A
:100F0A0007F09E9A12006AEC0CF0899A8A908A9EDF
:100F1A009E9A9D8AF28ECC0E1E6E080E1F6ED50EFC
:100F2A00206E080E216EC60E226E080E236E010E6A
:100F3A00256EF40E246EDEEC0BF0850E1E6E080E86
:100F4A001F6ED50E206E080E216E9D0E226E080EA3
:100F5A00236E030E256EE80E246EDEEC0BF00B0EEC
:100F6A001E6E080E1F6ED50E206E080E216ED50E4F
:100F7A00226E080E236E270E256E100E246EDEECEE
:100F8A000BF0910E1E6E080E1F6ED50E206E080E07
:100F9A00216ED50E226E080E236E0B0E256EB80E2C
:100FAA00246EDEEC0BF0A70E1E6E080E1F6ED50E19
:100FBA00206E080E216ED50E226E080E236E130EB9
:100FCA00256E880E246EDEEC0BF07A0E316EC10EA1
:100FDA00306E820EE82EFED7302EFCD7312EFAD78D
:100FEA006C0E286E080E296E6AEC08F080A600EFD7
:100FFA0008F002EF08F011EF08F04CA007EF08F034
:10100A000BEF08F0306A302A0CEF08F0306A4C50C7
:10101A003018FE0B30184C6E80A816EF08F018EF47
:10102A0008F028EF08F04CA21DEF08F021EF08F0B5
:10103A00306A302A22EF08F0306A30464C503018B5
:10104A00FD0B30184C6E000E0001F16F000EF06FB0
:10105A004CC0F2F04DC0F3F010EC0BF0000E0001A2
:10106A00F16F000EF06F000EF36F640EF26F61EC19
:10107A000BF0000E0001F16F010EF06F000EF36F1E
:10108A00320EF26F61EC0BF0050E316EDF0E306E30
:10109A00BC0EE82EFED7302EFCD7312EFAD78ABEE8
:1010AA0059EF08F05CEF08F0010E5DEF08F0000E52
:1010BA00FF0A306E303230328A5030187F0B3018C7
:1010CA008A6EFBEF07F018EF00F06E0E056E000E49
:1010DA00066E000E086E000E076E000E0A6E320EC5
:1010EA00096EC2EC0BF06E0E116E000E126E2F0E10
:1010FA00136E080E146E28C015F029C016F06DEC98
:10110A0004F05E0E1E6E080E1F6ED50E206E080EBF
:10111A00216ED50E226E080E236E010E256EF40E78
:10112A00246EDEEC0BF0130E2B6E440E2A6E440E68
:10113A00E82EFED72A2EFCD72B2EFAD700D06E0E19
:10114A001E6E000E1F6ED50E206E080E216EB00E9A
:10115A00226E080E236E270E256E100E246EDEEC0C
:10116A000BF02C6E7A0E2B6EC10E2A6E820EE82EB2
:10117A00FED72A2EFCD72B2EFAD72C04D8B4C8EFC8
:10118A0008F0CAEF08F010EF09F0020E2C18D8A4E4
:10119A00D1EF08F0D3EF08F0D5EF08F010EF09F01F
:1011AA005E0E1E6E080E1F6ED50E206E080E216E84
:1011BA00D50E226E080E236E010E256EF40E246ED5
:1011CA00DEEC0BF0130E2B6E440E2A6E440EE82E44
:1011DA00FED72A2EFCD72B2EFAD700D06E0E1E6E03
:1011EA00000E1F6ED50E206E080E216EBF0E226EE7
:1011FA00080E236E270E256E100E246EDEEC0BF001
:10120A007A0E2B6EC10E2A6E820EE82EFED72A2E79
:10121A00FCD72B2EFAD71200000E586E000E576E0E
:10122A00A00E056E000E066E000E086E000E076E0A
:10123A00000E0A6E320E096EC2EC0BF09E9AAB9843
:10124A00AB889D8A040E1B6E0C0E1A6E340EE82EA5
:10125A00FED71A2EFCD71B2EFAD7000E1D6E010ED2
:10126A001C6E80EF09F0100E1A6E940EE82EFED74F
:10127A001A2EFCD700D0A00E106E000E116E16C0EA
:10128A0012F017C013F08EEC09F010501110D8B4F8
:10129A0051EF09F053EF09F05FEF09F09D9A9C0EA8
:1012AA001A6ED70EE82EFED71A2EFCD700F0010EC2
:1012BA008DEF09F0A00E106E000E116E18C012F01C
:1012CA0019C013F08EEC09F010501110D8B470EF59
:1012DA0009F072EF09F07EEF09F09D9A9C0E1A6EE2
:1012EA00D70EE82EFED71A2EFCD700F0020E8DEF8D
:1012FA0009F01C4A1D2A1C50145C1D501558D8B000
:10130A0089EF09F08BEF09F038EF09F09D9A000E8A
:10131A001200C7EF09F010C009F011C00AF012C09C
:10132A000BF013C00CF012C005F013C006F0A5ECC8
:10133A000BF005C00DF006C00EF0E1EC09F0095003
:10134A000A10D8A4ABEF09F0ADEF09F0B3EF09F03A
:10135A0010C010F011C011F0E0EF09F0010E1024D6
:10136A00056E000E1120066E12C0F6FF13C0F7FFBD
:10137A000800F550076E086A3BEC0BF005C010F048
:10138A0006C011F010501110D8B4CEEF09F0D0EF0A
:10139A0009F0DCEF09F010C0D9FF11C0DAFFDF5005
:1013AA00D8A4DAEF09F0DCEF09F090EF09F0000EAB
:1013BA00106E000E116E12001AEF0AF009C0D9FF62
:1013CA000AC0DAFFDF50D8B4EDEF09F0EFEF09F009
:1013DA0003EF0AF009C0D9FF0AC0DAFFDF500F6E27
:1013EA000BC0F6FF0CC0F7FF0800F5500F18D8B471
:1013FA0001EF0AF003EF0AF016EF0AF009C0D9FF6D
:10140A000AC0DAFFDF500F6E0BC0F6FF0CC0F7FF01
:10141A000800F5500F5C096E0A6AD8A00A062BEF7D
:10142A000AF0094A0A2A0B4A0C2A0D06D8A00E0607
:10143A000D2806E10E28D8A425EF0AF027EF0AF0B6
:10144A00E3EF09F0000E0A6E000E096E1200D20ECA
:10145A00116E000E126E4C0E136E080E146E2AC018
:10146A0015F02BC016F06DEC04F0D20E066E000ECD
:10147A00076EE1EC0AF0040E2D6E0C0E2C6E340E83
:10148A00E82EFED72C2EFCD72D2EFAD7000E2F6E63
:10149A005BEF0AF028C0D9FF29C0DAFFDF502E6EB1
:1014AA00284A292A2E505FEC0CF02F2A2F502C6E36
:1014BA002D6A2A502C5C2B502D58D8A067EF0AF0C1
:1014CA0069EF0AF04FEF0AF0040E2D6E0C0E2C6E27
:1014DA00340EE82EFED72C2EFCD72D2EFAD712006A
:1014EA00000E0A6E000E096E07500810D8B480EF7D
:1014FA000AF082EF0AF0AAEF0AF0010E0B6E8AEFE9
:10150A000AF0D890073608360B2A08AE8FEF0AF091
:10151A0091EF0AF086EF0AF0D89009360A3607509A
:10152A00055C08500658D8A09DEF0AF09FEF0AF014
:10153A00A4EF0AF00750055E0850065A0980D890B1
:10154A00083207320B2E91EF0AF009C005F00AC0E3
:10155A0006F012000E500F10D8B4B6EF0AF0B8EF2A
:10156A000AF0DCEF0AF0010E106EC0EF0AF0D89014
:10157A000E360F36102A0FAEC5EF0AF0C7EF0AF083
:10158A00BCEF0AF00E500C5C0F500D58D8A0D0EFEB
:10159A000AF0D2EF0AF0D6EF0AF00E500C5E0F50A6
:1015AA000D5AD8900F320E32102EC7EF0AF00CC027
:1015BA000CF00DC00DF01200F7EF0AF006C0F6FFAE
:1015CA0007C0F7FFF86A070EF76403D00800F55062
:1015DA0005D0F6CFE1FFF7CFE2FFE7505FEC0CF062
:1015EA00064A072A06C0F6FF07C0F7FFF86A070E81
:1015FA00F76403D00800F55005D0F6CFE1FFF7CF26
:10160A00E2FFE7500009D8A40DEF0BF00FEF0BF043
:10161A00E3EF0AF012009D9A000E00016E6F000EB1
:10162A006F6F000E706F000E716F000E726F090EF1
:10163A00736F010E746F0F0E756FF1C076F0F0C004
:10164A0077F0000E786F0F0E796F020E7A6FF2C084
:10165A007BF0F3C07CF06E0E286E000E296E000E31
:10166A002B6E0F0E2A6E2CEC0AF0120005C0D9FF61
:10167A0006C0DAFF0750DE18D8A446EF0BF048EF91
:10168A000BF04EEF0BF005C005F006C006F060EF58
:10169A000BF005C0D9FF06C0DAFF054A062ADF505B
:1016AA00D8A45AEF0BF05CEF0BF03BEF0BF0000EF7
:1016BA00056E000E066E12009D9A000E00016E6FF6
:1016CA00000E6F6F000E706F000E716F000E726F5A
:1016DA00060E736F010E746F060E756FF1C076F009
:1016EA00F0C077F0F3C078F0F2C079F06E0E286E91
:1016FA00000E296E000E2B6E0C0E2A6E2CEC0AF0D0
:10170A001200080EB86E900EAB6E240EAC6E670E09
:10171A00AF6E000EB06E000E056E000E066E76EC11
:10172A000CF0000E056E000E066E71EC0CF0000E49
:10173A00056E000E066E7BEC0CF0000E596E120060
:10174A0005C007F006C008F0ADEF0BF0074A082AFB
:10175A0007C0F6FF08C0F7FF0800F5500009D8A433
:10176A00B9EF0BF0BBEF0BF0ABEF0BF00550075CDA
:10177A00056E06500858066E120005C00BF006C02A
:10178A000CF0D0EF0BF00BC0D9FF0CC0DAFF07C08A
:10179A00DFFF0B4A0C2A0906D8A00A06092806E127
:1017AA000A28D8A4DBEF0BF0DDEF0BF0C8EF0BF043
:1017BA0012001EC006F01FC007F0E1EC0AF0690E25
:1017CA00066E080E076EE1EC0AF024C014F025C07C
:1017DA0015F020C016F021C017F022C018F023C05F
:1017EA0019F011EC09F01200076E000E066E3A0E9F
:1017FA00076002EF0CF004EF0CF00EEF0CF02F0E66
:10180A0007640AEF0CF00CEF0CF00EEF0CF0010E6F
:10181A00066E06C005F005301200000E896E000E35
:10182A008A6E000E8B6EDF0E926E7E0E936E870EA0
:10183A00946E040E0F015D6F3E0E5C6F070E5B6FB8
:10184A00000E856EF18E120000EE60F0900EEE6AC8
:10185A00E806FDE100EE32F0280EEE6AE806FDE148
:10186A005A905A92000EF86E000188EF07F0055060
:10187A000702F3CF09F0F4CF0AF005500802F3503B
:10188A000A2606500702F3500A2609C005F00AC0C4
:10189A0006F01200700ED36E000ED26E800E9B6E92
:1018AA00000EB56ED2AE5CEF0CF05EEF0CF057EFA7
:1018BA000CF01200056E9EA865EF0CF067EF0CF0B5
:1018CA0060EF0CF005C0ADFF120012EC0CF04FEC0B
:1018DA000CF086EC0BF0120005C050F006C051F077
:1018EA00120005C052F006C053F0120005C04EF0B7
:0618FA0006C04FF01200D1
:020000040020DA
:08000000FFFFFFFFFFFFFFFF00
:020000040030CA
:0E00000023225E3CFFD181FF0FC00FE00F40B6
:00000001FF
