:0400000018EF00F005
:100008005B82D9CF03F0DACF04F09EAA0EEF00F09E
:1000180010EF00F012EF00F08FEC07F004C0DAFFE9
:0C00280003C0D9FF5B92110080EF0CF0C8
:100800000001000A006400E803102741542B4357FD
:100810004A41503D225449474F2D34454130222C06
:1008200022324E42313132313030343438220041BC
:10083000542B43495053544152543D342C22544379
:1008400050222C222573222C3530320041542B4368
:10085000495053454E443D342C25640D0A00415403
:100860002B4349504D55583D310D0A003139322E38
:100870003136382E312E31330041542B43495053F9
:10088000454E443D0041542B43574D4F44453D3167
:100890000041542B4349504D55583D31006E6F2057
:1008A0006368616E67650041542B434946535200AB
:1008B000434F4E4E45435400286E756C6C29004CD6
:1008C000696E6B6564004552524F52004154453089
:0908D00000253175004F4B0000BA
:1008DA00150E1E6E000E1F6E76EF06F0250E2718F7
:1008EA00D8B47AEF04F07CEF04F086EF04F011C07C
:1008FA00D9FF12C0DAFF27C0DFFF114A122A76EFAA
:10090A0006F0000E266E000E256E000E206E13C035
:10091A00F6FF14C0F7FF0800F55050EC0CF0D8A011
:10092A0099EF04F09BEF04F06CEF05F0000E266ED1
:10093A00000E256E25C005F026C006F0000E086ED2
:10094A000A0E076E93EC0CF005C025F006C026F0DF
:10095A00D00E176EFF0E186E13C0F6FF14C0F7FF05
:10096A000800F550196E1A6A1750192618501A22DB
:10097A00195025261A502622134A142A13C0F6FFA4
:10098A0014C0F7FF0800F55050EC0CF0D8B0D0EFC7
:10099A0004F0D2EF04F09FEF04F06CEF05F01EC0F4
:1009AA00D9FF1FC0DAFFDECF1CF0DDCF1DF0020E2B
:1009BA001E26000E1F221C501D10D8A4E7EF04F0BB
:1009CA00E9EF04F0EDEF04F0B80E1C6E080E1D6E90
:1009DA00000E226E000E216EF5EF04F0214A222A43
:1009EA0021501C24176E22501D20186E17C0F6FFC6
:1009FA0018C0F7FFF86A070EF76403D00800F5502D
:100A0A0005D0F6CFE1FFF7CFE2FFE7500009D8A4FF
:100A1A0011EF05F013EF05F0F3EF04F02550215C18
:100A2A0026502258D8B01CEF05F01EEF05F024EF2F
:100A3A0005F02150255E2250265A32EF05F0000EAD
:100A4A00266E000E256E32EF05F011C0D9FF12C0D6
:100A5A00DAFF200EDF6E114A122A2506D8A02606D2
:100A6A00252806E12628D8A43DEF05F03FEF05F03A
:100A7A002AEF05F05AEF05F01CC0F6FF1DC0F7FF7C
:100A8A00F86A11C0D9FF12C0DAFF070EF76403D063
:100A9A000800F55005D0F6CFE1FFF7CFE2FFE750A7
:100AAA00DF6E1C4A1D2A114A122A2106D8A02206E4
:100ABA00212806E12228D8A465EF05F067EF05F0A2
:100ACA0041EF05F076EF06F0208C8CEF05F013C0AD
:100ADA00F6FF14C0F7FF134A142A0800F5CF27F0CF
:100AEA002750000AD8B487EF06F0640AD8B48CEF0E
:100AFA0005F00D0AD8B48CEF05F01A0AD8B4D4EF71
:100B0A0004F0060AD8B469EF05F076EF06F020BCC7
:100B1A0091EF05F093EF05F0AEEF05F01EC0D9FF97
:100B2A001FC0DAFFDECF23F0DDCF24F0020E1E262F
:100B3A00000E1F2224BEA6EF05F0A4EF05F0BAEFBF
:100B4A0005F0030E2012236C241ED8B0242ABAEF13
:100B5A0005F01EC0D9FF1FC0DAFFDECF23F0DDCFBC
:100B6A0024F0020E1E26000E1F22010E276E2750A9
:100B7A00020D010EF324F66E080EF420F76E09003A
:100B8A00F550235C0900F5502458D8B0CFEF05F092
:100B9A00D1EF05F0D3EF05F0DDEF05F0272A050EBA
:100BAA002718D8A4DBEF05F0DDEF05F0BCEF05F060
:100BBA0025502610D8B4E4EF05F0E6EF05F0F4EF7F
:100BCA0005F020C017F0030E1716D8B4EFEF05F0A2
:100BDA00F1EF05F0F4EF05F02506D8A02606275018
:100BEA00176E186A2550175C1850800A196E26501D
:100BFA00800A1958D8B004EF06F006EF06F00CEF99
:100C0A0006F02750255E000E265A10EF06F0000E59
:100C1A00266E000E256E25502610D8B417EF06F062
:100C2A0019EF06F02DEF06F011C0D9FF12C0DAFF56
:100C3A00200EDF6E114A122A2506D8A02606255054
:100C4A002610D8A42BEF06F02DEF06F019EF06F0C8
:100C5A0020C017F0030E1716D8B436EF06F038EF97
:100C6A0006F040EF06F011C0D9FF12C0DAFF2D0ED0
:100C7A00DF6E114A122A27C01BF06DEF06F01B50D7
:100C8A00020D010EF324F66E080EF420F76E090029
:100C9A00F5CF07F00A00F5CF08F023C005F024C00D
:100CAA0006F0CCEC0AF005C00CF006C00DF0000E00
:100CBA000F6E0A0E0E6E06EC0BF00C50300F276EFC
:100CCA0011C0D9FF12C0DAFF27C0DFFF114A122A6A
:100CDA001B061B28D8A474EF06F076EF06F044EF43
:100CEA0006F013C0F6FF14C0F7FF134A142A0800CF
:100CFA00F5CF27F02750D8A485EF06F087EF06F046
:100D0A0073EF04F011C0D9FF12C0DAFF000EDF6ED4
:100D1A001200C1EC0CF0899A8A908A9E9E9A9D8A4A
:100D2A00F28ECC0E1E6E080E1F6ED50E206E080EA9
:100D3A00216EC60E226E080E236E010E256EF40E6B
:100D4A00246E35EC0CF0850E1E6E080E1F6ED50E45
:100D5A00206E080E216E9D0E226E080E236E030E63
:100D6A00256EE80E246E35EC0CF00B0E1E6E080E86
:100D7A001F6ED50E206E080E216ED50E226E080E3D
:100D8A00236E270E256E100E246E35EC0CF0910E94
:100D9A001E6E080E1F6ED50E206E080E216ED50E21
:100DAA00226E080E236E0B0E256EB80E246E35ECDD
:100DBA000CF0A70E1E6E080E1F6ED50E206E080EC2
:100DCA00216ED50E226E080E236E130E256E880E26
:100DDA00246E35EC0CF07A0E306EC10E2F6E820E38
:100DEA00E82EFED72F2EFCD7302EFAD76C0E286E9F
:100DFA00080E296E89EC08F080A606EF07F008EFC6
:100E0A0007F017EF07F047A00DEF07F011EF07F013
:100E1A002F6A2F2A12EF07F02F6A47502F18FE0B5E
:100E2A002F18476E80A81CEF07F01EEF07F02EEF71
:100E3A0007F047A223EF07F027EF07F02F6A2F2AC0
:100E4A0028EF07F02F6A2F4647502F18FD0B2F184F
:100E5A00476E000E0001F56F000EF46F47C0F6F002
:100E6A0048C0F7F067EC0BF047B03EEF07F041EFF0
:100E7A0007F08A8E42EF07F08A9E80A647EF07F0B6
:100E8A0049EF07F04BEF07F04D4A4E2A0A0E4D186C
:100E9A004E10D8A453EF07F055EF07F05BEF07F0B9
:100EAA00000E4E6E000E4D6E4B4A4C2A000E00018B
:100EBA00F56F000EF46F4BC0F6F04CC0F7F0B8ECCB
:100ECA000BF0000E0001F56F010EF46F49C0F6F049
:100EDA004AC0F7F0B8EC0BF04CBE7DEF07F04C506F
:100EEA0009E1060E4B5CD8A07DEF07F07FEF07F013
:100EFA0001EF07F06C0E286E080E296E92EC0AF0CC
:100F0A00494A4A2A000E4C6E000E4B6E01EF07F05A
:100F1A0018EF00F09EAA94EF07F096EF07F088EF1B
:100F2A0008F0AECF57F064EF08F0A40E5824D96E3B
:100F3A00DA6A000EDA2257C0DFFF582A310E5864E7
:100F4A00A9EF07F0ABEF07F087EF08F0000E586E35
:100F5A0087EF08F0490E5718D8B4B6EF07F0B8EF84
:100F6A0007F0BCEF07F0000E586EBEEF07F0020E56
:100F7A00596E500E5718D8B4C5EF07F0C7EF07F0EF
:100F8A00CDEF07F0000E586E010E596E87EF08F08C
:100F9A00030E596E87EF08F0440E5718D8B4D8EFED
:100FAA0007F0DAEF07F0DCEF07F0C7EF07F0040EFF
:100FBA00596E87EF08F02C0E5718D8B4E7EF07F0F0
:100FCA00E9EF07F0EBEF07F0C7EF07F0000E586EF6
:100FDA00050E596E87EF08F02C0E5718D8A4F8EFB3
:100FEA0007F0FAEF07F000EF08F0060E596E000E50
:100FFA00586E87EF08F0582A320E586407EF08F047
:10100A0009EF08F087EF08F0C7EF07F03A0E571814
:10101A00D8A412EF08F014EF08F01EEF08F0000E43
:10102A00586E000E366E0D0E356E070E596E87EF2E
:10103A0008F0A40E5824D96EDA6A000EDA2257C0D4
:10104A00DFFF582A320E58642DEF08F02FEF08F010
:10105A0087EF08F0C7EF07F08ABE36EF08F039EFDE
:10106A0008F0010E3AEF08F0000EFF0A016E013295
:10107A0001328A5001187F0B01188A6EA40E582477
:10108A00D96EDA6A000EDA2257C0DFFF582A5850A2
:10109A00016E026A3550015C36500258D8A058EFEA
:1010AA0008F05AEF08F087EF08F0000E586E000EAD
:1010BA00596E010E556E898A9D9A87EF08F059502C
:1010CA00000AD8B49AEF07F0010AD8B4AFEF07F0D4
:1010DA00030AD8B4BEEF07F0010AD8B4D1EF07F07B
:1010EA00070AD8B4E0EF07F0010AD8B4F1EF07F025
:1010FA00030AD8B40BEF08F0010AD8B431EF08F0AC
:10110A0087EF08F09E9A1200720E056E000E066EA8
:10111A00000E086E000E076E000E0A6E320E096E81
:10112A0019EC0CF0720E116E000E126E2F0E136E69
:10113A00080E146E28C015F029C016F06DEC04F0E4
:10114A005E0E1E6E080E1F6ED50E206E080E216EE4
:10115A00D50E226E080E236E010E256EF40E246E35
:10116A0035EC0CF0130E2B6E440E2A6E440EE82E4C
:10117A00FED72A2EFCD72B2EFAD700D0720E1E6E5F
:10118A00000E1F6ED50E206E080E216EB00E226E56
:10119A00080E236E270E256E100E246E35EC0CF009
:1011AA002C6E7A0E2B6EC10E2A6E820EE82EFED798
:1011BA002A2EFCD72B2EFAD72C04D8B4E7EF08F046
:1011CA00E9EF08F02FEF09F0020E2C18D8A4F0EF7F
:1011DA0008F0F2EF08F0F4EF08F02FEF09F05E0ED6
:1011EA001E6E080E1F6ED50E206E080E216ED50ECD
:1011FA00226E080E236E010E256EF40E246E35EC57
:10120A000CF0130E2B6E440E2A6E440EE82EFED7F7
:10121A002A2EFCD72B2EFAD700D0720E1E6E000E85
:10122A001F6ED50E206E080E216EBF0E226E080E9E
:10123A00236E270E256E100E246E35EC0CF07A0EF6
:10124A002B6EC10E2A6E820EE82EFED72A2EFCD7EE
:10125A002B2EFAD71200000E596E000E586EA40EED
:10126A00056E000E066E000E086E000E076E000E6A
:10127A000A6E320E096E19EC0CF09E9AAB98AB8886
:10128A009D8A040E1B6E0C0E1A6E340EE82EFED7C3
:10129A001A2EFCD71B2EFAD7000E1D6E010E1C6EDD
:1012AA009FEF09F0100E1A6E940EE82EFED71A2E32
:1012BA00FCD700D0A40E106E000E116E16C012F0EC
:1012CA0017C013F0ADEC09F010501110D8B470EF3C
:1012DA0009F072EF09F07EEF09F09D9A9C0E1A6EE2
:1012EA00D70EE82EFED71A2EFCD700F0010EACEF6F
:1012FA0009F0A40E106E000E116E18C012F019C07B
:10130A0013F0ADEC09F010501110D8B48FEF09F0BA
:10131A0091EF09F09DEF09F09D9A9C0E1A6ED70E77
:10132A00E82EFED71A2EFCD700F0020EACEF09F019
:10133A001C4A1D2A1C50145C1D501558D8B0A8EF21
:10134A0009F0AAEF09F057EF09F09D9A000E120072
:10135A00E6EF09F010C009F011C00AF012C00BF054
:10136A0013C00CF012C005F013C006F0FCEC0BF031
:10137A0005C00DF006C00EF000EC0AF009500A1084
:10138A00D8A4CAEF09F0CCEF09F0D2EF09F010C0E7
:10139A0010F011C011F0FFEF09F0010E1024056ED4
:1013AA00000E1120066E12C0F6FF13C0F7FF0800E8
:1013BA00F550076E086A92EC0BF005C010F006C0F3
:1013CA0011F010501110D8B4EDEF09F0EFEF09F059
:1013DA00FBEF09F010C0D9FF11C0DAFFDF50D8A423
:1013EA00F9EF09F0FBEF09F0AFEF09F0000E106E0C
:1013FA00000E116E120039EF0AF009C0D9FF0AC0B7
:10140A00DAFFDF50D8B40CEF0AF00EEF0AF022EF41
:10141A000AF009C0D9FF0AC0DAFFDF500F6E0BC00D
:10142A00F6FF0CC0F7FF0800F5500F18D8B420EFEC
:10143A000AF022EF0AF035EF0AF009C0D9FF0AC014
:10144A00DAFFDF500F6E0BC0F6FF0CC0F7FF080083
:10145A00F5500F5C096E0A6AD8A00A064AEF0AF02C
:10146A00094A0A2A0B4A0C2A0D06D8A00E060D288C
:10147A0006E10E28D8A444EF0AF046EF0AF002EF7C
:10148A000AF0000E0A6E000E096E1200D60E116ED8
:10149A00000E126E4C0E136E080E146E2AC015F052
:1014AA002BC016F06DEC04F0D60E066E000E076E19
:1014BA0038EC0BF0050E2D6EDF0E2C6EBC0EE82EEE
:1014CA00FED72C2EFCD72D2EFAD7000E2E6E78EFD3
:1014DA000AF028C0D9FF29C0DAFFDF50B6EC0CF0B9
:1014EA00284A292A2E2A2E502C6E2D6A2A502C5C24
:1014FA002B502D58D8A084EF0AF086EF0AF06EEF31
:10150A000AF0050E2D6EDF0E2C6EBC0EE82EFED7ED
:10151A002C2EFCD72D2EFAD71200720E056E000E55
:10152A00066E000E086E000E076E000E0A6E320E70
:10153A00096E19EC0CF0720E116E000E126E2F0E5F
:10154A00136E080E146E28C015F029C016F06DEC43
:10155A0004F0720E1E6E000E1F6ED50E206E080E5F
:10156A00216EB00E226E080E236E000E256E640EDA
:10157A00246E35EC0CF0040E2B6E0C0E2A6E340E13
:10158A00E82EFED72A2EFCD72B2EFAD71200000EF1
:10159A000A6E000E096E07500810D8B4D7EF0AF089
:1015AA00D9EF0AF001EF0BF0010E0B6EE1EF0AF032
:1015BA00D890073608360B2A08AEE6EF0AF0E8EFAD
:1015CA000AF0DDEF0AF0D89009360A360750055CB2
:1015DA0008500658D8A0F4EF0AF0F6EF0AF0FBEF2D
:1015EA000AF00750055E0850065A0980D89008325A
:1015FA0007320B2EE8EF0AF009C005F00AC006F020
:10160A0012000E500F10D8B40DEF0BF00FEF0BF0C5
:10161A0033EF0BF0010E106E17EF0BF0D8900E3669
:10162A000F36102A0FAE1CEF0BF01EEF0BF013EF64
:10163A000BF00E500C5C0F500D58D8A027EF0BF092
:10164A0029EF0BF02DEF0BF00E500C5E0F500D5AD8
:10165A00D8900F320E32102E1EEF0BF00CC00CF089
:10166A000DC00DF012004EEF0BF006C0F6FF07C0DA
:10167A00F7FFF86A070EF76403D00800F55005D0A3
:10168A00F6CFE1FFF7CFE2FFE750B6EC0CF0064ADF
:10169A00072A06C0F6FF07C0F7FFF86A070EF764C5
:1016AA0003D00800F55005D0F6CFE1FFF7CFE2FFEF
:1016BA00E7500009D8A464EF0BF066EF0BF03AEF9D
:1016CA000BF012009D9A000E0001726F000E736FEC
:1016DA00000E746F000E756F000E766F090E776F2D
:1016EA00010E786F0F0E796FF5C07AF0F4C07BF0B7
:1016FA00000E7C6F0F0E7D6F020E7E6FF6C07FF0BC
:10170A00F7C080F0720E286E000E296E000E2B6E46
:10171A000F0E2A6E4BEC0AF0120005C0D9FF06C064
:10172A00DAFF0750DE18D8A49DEF0BF09FEF0BF0FD
:10173A00A5EF0BF005C005F006C006F0B7EF0BF0F9
:10174A0005C0D9FF06C0DAFF054A062ADF50D8A429
:10175A00B1EF0BF0B3EF0BF092EF0BF0000E056E4A
:10176A00000E066E12009D9A000E0001726F000EA6
:10177A00736F000E746F000E756F000E766F060E93
:10178A00776F010E786F060E796FF5C07AF0F4C0A4
:10179A007BF0F7C07CF0F6C07DF0720E286E000E6A
:1017AA00296E000E2B6E0C0E2A6E4BEC0AF01200FC
:1017BA00080EB86E900EAB6E240EAC6E670EAF6E4E
:1017CA00000EB06E000E056E000E066ECDEC0CF02B
:1017DA00000E056E000E066EC8EC0CF0000E056ECB
:1017EA00000E066ED2EC0CF0000E5A6E120005C006
:1017FA0007F006C008F004EF0CF0074A082A07C0F1
:10180A00F6FF08C0F7FF0800F5500009D8A410EF4A
:10181A000CF012EF0CF002EF0CF00550075C056EAD
:10182A0006500858066E120005C00BF006C00CF0F0
:10183A0027EF0CF00BC0D9FF0CC0DAFF07C0DFFF9F
:10184A000B4A0C2A0906D8A00A06092806E10A2822
:10185A00D8A432EF0CF034EF0CF01FEF0CF01200AA
:10186A001EC006F01FC007F038EC0BF0690E066EBA
:10187A00080E076E38EC0BF024C014F025C015F0E2
:10188A0020C016F021C017F022C018F023C019F0AA
:10189A0030EC09F01200076E000E066E3A0E076071
:1018AA0059EF0CF05BEF0CF065EF0CF02F0E0764AC
:1018BA0061EF0CF063EF0CF065EF0CF0010E066EB1
:1018CA0006C005F005301200000E896E000E8A6E01
:1018DA00000E8B6EDF0E926E7E0E936E870E946EE6
:1018EA00040E0F015D6F3E0E5C6F070E5B6F000EFC
:1018FA00856EF18E120000EE60F0940EEE6AE80634
:10190A00FDE100EE31F02A0EEE6AE806FDE15B9099
:10191A005B92000EF86E00018EEF06F0055007028A
:10192A00F3CF09F0F4CF0AF005500802F3500A2663
:10193A0006500702F3500A2609C005F00AC006F04D
:10194A001200700ED36E000ED26E800E9B6E000EC9
:10195A00B56ED2AEB3EF0CF0B5EF0CF0AEEF0CF003
:10196A001200056E9EA8BCEF0CF0BEEF0CF0B7EFAC
:10197A000CF005C0ADFF120069EC0CF0A6EC0CF0FF
:10198A00DDEC0BF0120005C051F006C052F0120057
:10199A0005C053F006C054F0120005C04FF006C04F
:0419AA0050F01200E7
:020000040020DA
:08000000FFFFFFFFFFFFFFFF00
:020000040030CA
:0E00000023225E3CFFD181FF0FC00FE00F40B6
:00000001FF
