:0400000026EF00F0F7
:100008005B82FACF03F0FBCF04F0F2AC0EEF00F006
:1000180010EF00F020EF00F09DA015EF00F017EFB3
:1000280000F020EF00F09EA01CEF00F01EEF00F0A3
:1000380020EF00F090EC1AF004C0FBFF03C0FAFFB9
:080048005B92110000EF19F0BA
:1008000000111111111140380000111111111125A1
:100810002E336620416D702E0A0D00696E66006EE3
:10082000616E0000000E0001936F6BC094F06CC00D
:1008300095F06DC096F06EC097F097BF24EF04F06E
:1008400022EF04F038EF04F0010E936F94C005F02E
:1008500095C006F096C007F097C008F0ADEC1AF00E
:1008600005C094F006C095F007C096F008C097F058
:10087000000E0001996F000E986FE1C083F0E2C096
:1008800084F09351D8B447EF04F049EF04F05DEFE2
:1008900004F09351D8A44FEF04F051EF04F057EF58
:1008A00004F0000E796F2B0E786F5BEF04F0000EF2
:1008B000796F2D0E786F78C093F094C005F095C0D5
:1008C00006F096C007F097C008F034EC16F0050467
:1008D0000610D8A46EEF04F070EF04F09FEF04F060
:1008E00000019351D8B477EF04F079EF04F082EF70
:1008F00004F093C004F18307D8A08407000E996F19
:10090000010E986F040E9825056E010E9921066E52
:100910001B0E076E56EC1AF00001FD0E8327FF0E2A
:1009200084236AC015F0040E166E010E176E83C084
:1009300018F084C019F0F2EC17F005EF09F094C03C
:1009400005F095C006F096C007F097C008F034ECAB
:1009500016F005500610D8A4B0EF04F0B2EF04F082
:10096000D0EF04F000019351D8B4B9EF04F0BBEF1D
:1009700004F0C4EF04F093C004F18307D8A0840707
:10098000000E996F010E986F040E9825056E010EEA
:100990009921066E1F0E076E56EC1AF08CEF04F0CC
:1009A000000E00019A6F000E9B6F800E9C6F3F0E31
:1009B0009D6F000E826F000E816F94C005F095C090
:1009C00006F096C007F097C008F0000E096E000E02
:1009D0000A6E000E0B6E000E0C6E10EC17F0D8B005
:1009E000F4EF04F0F6EF04F0D5EF05F003EF05F0B7
:1009F00085C09AF086C09BF087C09CF088C09DF0AF
:100A00000001814B822B9AC013F09BC014F09CC054
:100A100015F09DC016F0000E176E000E186E200E19
:100A2000196E410E1A6E66EC0BF013C085F014C0FF
:100A300086F015C087F016C088F000018551945DDE
:100A4000056E86519559066E87519659076E8851E5
:100A50009759086E83EC18F008BE3AEF05F008507D
:100A60000710061009E1020E055CD8A03AEF05F068
:100A70003CEF05F0F8EF04F085C02CF086C02DF0B7
:100A800087C02EF088C02FF094C030F095C031F0B0
:100A900096C032F097C033F0B2EC15F0D8A053EF07
:100AA00005F055EF05F0F8EF04F000019A51945D60
:100AB000056E9B519559066E9C519659076E9D5136
:100AC0009759086E83EC18F008BE74EF05F00850D3
:100AD0000710061007E1020E055CD8B072EF05F0B2
:100AE00074EF05F0BCEF05F09AC094F09BC095F050
:100AF0009CC096F09DC097F0D5EF05F09AC034F0F9
:100B00009BC035F09CC036F09DC037F0000E386EAB
:100B1000000E396E200E3A6E410E3B6E7BEC0DF0EE
:100B200034C09AF035C09BF036C09CF037C09DF0C1
:100B300000018107D8A082079A51945D056E9B51F0
:100B40009559066E9C519659076E9D519759086E9E
:100B500083EC18F008BEBAEF05F008500710061035
:100B600007E1020E055CD8B0B8EF05F0BAEF05F06A
:100B7000BCEF05F074EF05F094C02CF095C02DF09B
:100B800096C02EF097C02FF09AC030F09BC031F085
:100B90009CC032F09DC033F0B2EC15F0D8A0D3EF7A
:100BA00005F0D5EF05F07EEF05F06FC07BF07BC060
:100BB0007CF00001E4BFDFEF05F0E1EF05F0E7EFC7
:100BC00005F0E3C074F0E4C075F0EBEF05F0000E43
:100BD000756F060E746F74C07FF075C080F07F4B28
:100BE000802B660E7C19D8A4F8EF05F0FAEF05F01B
:100BF0001AEF06F082BF01EF06F0FFEF05F00DEFF0
:100C000006F0000E9A6F000E9B6F800E9C6F3F0ED9
:100C10009D6F000E826F000E816F670E7B19D8B436
:100C200014EF06F016EF06F01AEF06F081517F2759
:100C300082518023000E8A6F000E896F94C08BF062
:100C400095C08CF096C08DF097C08EF09AC085F05C
:100C50009BC086F09CC087F09DC088F0ABEF06F08B
:100C60008BC034F08CC035F08DC036F08EC037F0BC
:100C70009AC038F09BC039F09CC03AF09DC03BF060
:100C80007BEC0DF034C04DF035C04EF036C04FF067
:100C900037C050F0B9EC10F04DC08FF04EC090F05E
:100CA0004FC091F050C092F08FC005F090C006F098
:100CB00091C007F092C008F02FEC15F005C07DF050
:100CC00006C07EF08BC02CF08CC02DF08DC02EF0B5
:100CD0008EC02FF08FC017F090C018F091C019F09F
:100CE00092C01AF09AC013F09BC014F09CC015F08B
:100CF0009DC016F066EC0BF013C030F014C031F05C
:100D000015C032F016C033F092EC19F02CC08BF005
:100D10002DC08CF02EC08DF02FC08EF09AC034F014
:100D20009BC035F09CC036F09DC037F0000E386E89
:100D3000000E396E200E3A6E410E3B6E7BEC0DF0CC
:100D400034C09AF035C09BF036C09CF037C09DF09F
:100D50000001894B8A2B7F51895D8A51800A706F0F
:100D60008051800A7059D8A0B8EF06F0BAEF06F0AB
:100D700030EF06F09AC013F09BC014F09CC015F041
:100D80009DC016F0000E176E000E186EA00E196EA4
:100D9000400E1A6E66EC0BF013C08FF014C090F08A
:100DA00015C091F016C092F08BC02CF08CC02DF0C5
:100DB0008DC02EF08EC02FF08FC030F090C031F07B
:100DC00091C032F092C033F0B2EC15F0D8B0EBEF36
:100DD00006F0EDEF06F0F8EF06F0000E00018F6F61
:100DE000000E906F000E916F000E926F21EF07F0D2
:100DF0008BC005F08CC006F08DC007F08EC008F0E7
:100E00008FC009F090C00AF091C00BF092C00CF0B6
:100E100010EC17F0D8A00FEF07F011EF07F021EF5B
:100E200007F000017DB117EF07F019EF07F021EF90
:100E300007F0000E8F6F000E906F000E916F000E86
:100E4000926F94C005F095C006F096C007F097C069
:100E500008F08FC009F090C00AF091C00BF092C06A
:100E60000CF006EC09F005C08BF006C08CF007C052
:100E70008DF008C08EF08BC02CF08CC02DF08DC092
:100E80002EF08EC02FF0000E176E000E186E200E82
:100E9000196E410E1A6E85C013F086C014F087C01B
:100EA00015F088C016F066EC0BF013C030F014C0DB
:100EB00031F015C032F016C033F0B2EC15F0D8A006
:100EC00064EF07F066EF07F08FEF07F00001814B4A
:100ED000822B85C013F086C014F087C015F088C03F
:100EE00016F0000E176E000E186E200E196E410ED1
:100EF0001A6E66EC0BF013C085F014C086F015C0B6
:100F000087F016C088F0660E00017C19D8A48BEF1C
:100F100007F08DEF07F08FEF07F07F4B802B85C038
:100F20009AF086C09BF087C09CF088C09DF081C07D
:100F300072F082C073F0000E00017A6F000E776FBE
:100F4000000E766F000E8A6F000E896F8DEF08F02D
:100F50008BC034F08CC035F08DC036F08EC037F0C9
:100F60009AC038F09BC039F09CC03AF09DC03BF06D
:100F70007BEC0DF034C04DF035C04EF036C04FF074
:100F800037C050F0B9EC10F04DC08FF04EC090F06B
:100F90004FC091F050C092F08FC005F090C006F0A5
:100FA00091C007F092C008F02FEC15F006BEE4EFF8
:100FB00007F0065007E10A0E055CD8B0E2EF07F033
:100FC000E4EF07F0F4EF07F08FC005F090C006F0F3
:100FD00091C007F092C008F02FEC15F005C07DF02D
:100FE00006C07EF0F9EF07F0000E00017E6F090EDB
:100FF0007D6F00017A51D8A400EF08F002EF08F0ED
:101000002AEF08F073BF09EF08F007EF08F02AEFA6
:1010100008F0040E9825D96E010E9921DA6E2E0E75
:10102000DF6E984B992B8307D8A08407010E7A6F47
:101030002AEF08F0040E9825D96E010E9921DA6E78
:10104000300EDF6E984B992B8307D8A08407760764
:10105000D8A0770776517711D8A431EF08F033EF95
:1010600008F01AEF08F0040E9825D96E010E9921A8
:10107000DA6E7D51300FDF6E984B992B8307D8A025
:1010800084078BC02CF08CC02DF08DC02EF08EC04C
:101090002FF08FC017F090C018F091C019F092C0D7
:1010A0001AF09AC013F09BC014F09CC015F09DC0BC
:1010B00016F066EC0BF013C030F014C031F015C020
:1010C00032F016C033F092EC19F02CC08BF02DC02A
:1010D0008CF02EC08DF02FC08EF09AC034F09BC0E3
:1010E00035F09CC036F09DC037F0000E386E000E13
:1010F000396E200E3A6E410E3B6E7BEC0DF034C023
:101100009AF035C09BF036C09CF037C09DF00001CE
:101110007207D8A07307894B8A2B7F51895D8A514A
:10112000800A706F8051800A7059D8B09AEF08F029
:101130009CEF08F0AAEF08F099BFA8EF08F09951CA
:1011400009E14B0E985DD8A0A8EF08F0AAEF08F0CF
:10115000A8EF07F0000E8A6F4F0E896F040E8925E5
:10116000D96E010E8A21DA6EDF6A040E706F010EED
:10117000716F9851705F9951715B89517025056E3F
:101180008A517121066E040E076E010E086E98C01A
:1011900009F099C00AF0D8EC18F000019851895D67
:1011A000986F99518A59996F9351D8A4DAEF08F042
:1011B000DDEF08F0010EDEEF08F0000E896F8A6B9C
:1011C0009351D8B4E6EF08F0E8EF08F0F3EF08F039
:1011D0009807D8A09907040E9825D96E010E992179
:1011E000DA6E93C0DFFF8951835F8A51845B6AC0E6
:1011F00015F0040E9825166E010E9921176E83C006
:1012000018F084C019F0F2EC17F012000850800BAF
:10121000116E08500824136E07AE11EF09F013EF9A
:1012200009F014EF09F013801350D8B41AEF09F045
:101230001CEF09F031EF09F01328D8A422EF09F0D0
:1012400024EF09F02CEF09F0000E056E000E066E7B
:10125000000E076E000E086E078E000E086E39EF46
:1012600009F0000E056E000E066E000E076E000EF1
:10127000086E0C50800B126E11501218D8B443EF48
:1012800009F045EF09F046EF09F0118C0C500C24E1
:10129000126E0BAE4EEF09F050EF09F051EF09F06E
:1012A00012801250D8B457EF09F059EF09F06EEFE1
:1012B00009F01228D8A45FEF09F061EF09F069EF97
:1012C00009F0000E096E000E0A6E000E0B6E000E85
:1012D0000C6E0B8E000E0C6E76EF09F0000E096E90
:1012E000000E0A6E000E0B6E000E0C6E1350125C98
:1012F000D8B07DEF09F07FEF09F0A6EF09F011AC4F
:1013000084EF09F086EF09F088EF09F0800E111ADA
:1013100013C014F012C013F014C012F005C014F082
:1013200009C005F014C009F006C014F00AC006F0A8
:1013300014C00AF007C014F00BC007F014C00BF083
:1013400008C014F00CC008F014C00CF0000E146EAD
:10135000135012C00DF00E6A0D5E000E0E5A0EBE36
:10136000BBEF09F00E5009E11A0E0D5CD8A0BBEFDF
:1013700009F0BDEF09F0F4EF09F005500610071071
:101380000810D8A4C6EF09F0C9EF09F0010ECAEFA2
:1013900009F0000E146E000E056E000E066E000EB3
:1013A000076E000E086E12C013F0FDEF09F014A0D6
:1013B000DCEF09F0DEEF09F0E4EF09F0D89014302B
:1013C0000109146EE6EF09F0D890143205A0EBEF96
:1013D00009F0EDEF09F0EEEF09F0148E0834083251
:1013E000073206320532132A1250135CD8A0FBEFE5
:1013F00009F0FDEF09F0D7EF09F011BC02EF0AF098
:1014000004EF0AF044EF0AF01350D8A40AEF0AF0F0
:101410000CEF0AF016EF0AF0000E056E000E066ED5
:10142000000E076E000E086E65EF0BF009500526E2
:101430000A5006220B5007220C50082208A023EF66
:101440000AF025EF0AF0D1EF0AF014A02AEF0AF013
:101450002CEF0AF032EF0AF0D89014300109146E24
:1014600034EF0AF0D890143205A039EF0AF03BEFC0
:101470000AF03CEF0AF0148E0834083207320632C4
:101480000532132AD1EF0AF00950055C0A500658BC
:101490000B5007580850800A0D6E0C50800A0D58EA
:1014A000D8B055EF0AF057EF0AF082EF0AF0055076
:1014B000095C0D6E06500A580E6E07500B580F6EE1
:1014C00008500C58106EFF0E0D24056EFF0E0E20F6
:1014D000066EFF0E0F20076EFF0E1020086E800EA6
:1014E000111A146C1450D8A478EF0AF07AEF0AF0AD
:1014F0008AEF0AF0010E0526000E062207220822B6
:101500008AEF0AF00950055E0A50065A0B50075A36
:101510000C50085A0550061007100810D8A493EF75
:101520000AF095EF0AF0CAEF0AF01450D8A49BEF26
:101530000AF09DEF0AF0CAEF0AF0000E056E000EE9
:10154000066E000E076E000E086E65EF0BF0D89069
:10155000053606360736083614AEB1EF0AF0B3EF9B
:101560000AF0B4EF0AF0058014A0B9EF0AF0BBEF5F
:101570000AF0BFEF0AF0D8801436C1EF0AF0D89015
:1015800014361350D8B4C7EF0AF0C9EF0AF0CAEF07
:101590000AF0130607AECFEF0AF0D1EF0AF0A7EF7B
:1015A0000AF0000E126E14AED8EF0AF0DAEF0AF06D
:1015B000F2EF0AF014C00DF07F0E0D16D8B4E3EF71
:1015C0000AF0E5EF0AF0E9EF0AF0010E126EF2EF11
:1015D0000AF005A0EEEF0AF0F0EF0AF0F2EF0AF0E1
:1015E000E5EF0AF01250D8B4F8EF0AF0FAEF0AF07B
:1015F00025EF0BF0010E0526000E06220722082219
:1016000008A005EF0BF007EF0BF025EF0BF005C07E
:101610000DF006C00EF007C00FF008C010F0103437
:1016200010320F320E320D320DC005F00EC006F032
:101630000FC007F010C008F01328D8B422EF0BF049
:1016400024EF0BF025EF0BF0132A1328D8B42BEF5F
:101650000BF02DEF0BF035EF0BF01350D8A433EF58
:101660000BF035EF0BF047EF0BF0000E056E000EA0
:10167000066E000E076E000E086E1350D8A443EFDE
:101680000BF045EF0BF047EF0BF0000E116E13A0BF
:101690004CEF0BF04EEF0BF051EF0BF0078E52EFCB
:1016A0000BF0079ED8901330086E11AE5AEF0BF076
:1016B0005CEF0BF05DEF0BF0088E05C005F006C087
:1016C00006F007C007F008C008F012001650800BA3
:1016D0001F6E16501624256E15AE71EF0BF073EFCA
:1016E0000BF074EF0BF025802550D8B47AEF0BF097
:1016F0007CEF0BF08FEF0BF02528D8A482EF0BF0D6
:1017000084EF0BF08CEF0BF0000E136E000E146ED6
:10171000000E156E000E166E158E97EF0BF0000E74
:10172000136E000E146E000E156E000E166E1A501B
:10173000800B1F1A1A501A24206E19AEA2EF0BF05C
:10174000A4EF0BF0A5EF0BF020802050D8B4ABEF46
:101750000BF0ADEF0BF0C0EF0BF02028D8A4B3EFE7
:101760000BF0B5EF0BF0BDEF0BF0000E176E000E97
:10177000186E000E196E000E1A6E198EC8EF0BF05F
:10178000000E176E000E186E000E196E000E1A6E07
:101790002050D8B4CEEF0BF0D0EF0BF0D8EF0BF019
:1017A0002550D8A4D6EF0BF0D8EF0BF0E2EF0BF0FA
:1017B000000E136E000E146E000E156E000E166EE7
:1017C0007AEF0DF019501302F3CF2AF0F4CF2BF07B
:1017D0002A50216E226A236A246A2B50266E276AB9
:1017E000286A296A18501402F3CF2AF0F4CF2BF09C
:1017F0002A502126000E2222232224222B50262684
:10180000000E27222822292217501502F3CF2AF092
:10181000F4CF2BF02A502126000E2222232224224C
:101820002B502626000E27222822292223C024F00E
:1018300022C023F021C022F0216A17501402F3CFF6
:101840002AF0F4CF2BF02A5021262B502222000E12
:101850002322000E242218501302F3CF2AF0F4CFD3
:101860002BF02A5021262B502222000E2322000E7C
:10187000242223C024F022C023F021C022F0216AB8
:1018800017501302F3CF2AF0F4CF2BF02A50212661
:101890002B502222000E2322000E24221950140263
:1018A000F3CF2AF0F4CF2BF02A5026262B502722F4
:1018B000000E2822000E292218501502F3CF2AF01C
:1018C000F4CF2BF02A5026262B502722000E282258
:1018D000000E292219501502F3CF2AF0F4CF2BF075
:1018E0002A501B6E2B501C6E1D6A1E6A1DC01EF0F6
:1018F0001CC01DF01BC01CF01B6A1B5026261C5070
:1019000027221D5028221E50292221C01BF022C050
:101910001CF023C01DF024C01EF0190E95EF0CF032
:10192000D8901E321D321C321B32E82E90EF0CF084
:101930001B5026261C5027221D5028221E502922CB
:1019400023C024F022C023F021C022F0216A2050BD
:1019500025C01BF01C6A1B26000E1C22820E1B24B5
:101960002A6EFF0E1C202B6ECBEF0CF0D890263683
:1019700027362836293624AEC0EF0CF0C2EF0CF023
:10198000C3EF0CF02680D890213622362336243639
:101990002A06D8A02B0628AED0EF0CF0D2EF0CF020
:1019A000B6EF0CF0000E206E24AED9EF0CF0DBEF9A
:1019B0000CF0FFEF0CF0FF0E21141B6EFF0E221433
:1019C0001C6EFF0E23141D6E7F0E24141E6E1B5002
:1019D0001C101D101E10D8B4F0EF0CF0F2EF0CF03C
:1019E000F6EF0CF0010E206EFFEF0CF026A0FBEFDF
:1019F0000CF0FDEF0CF0FFEF0CF0F2EF0CF02050CC
:101A0000D8B405EF0DF007EF0DF02BEF0DF0010E40
:101A10002626000E27222822292229A012EF0DF0C7
:101A200014EF0DF02BEF0DF026C01BF027C01CF0BB
:101A300028C01DF029C01EF01E341E321D321C327B
:101A40001B321BC026F01CC027F01DC028F01EC092
:101A500029F02A4A2B2A2BBE36EF0DF02B5008E135
:101A60002A28D8A036EF0DF038EF0DF042EF0DF038
:101A7000000E266E000E276E800E286E7F0E296ED9
:101A800070EF0DF02BBE4FEF0DF02B5006E12A0446
:101A9000D8B04DEF0DF04FEF0DF05BEF0DF0000EF5
:101AA000266E000E276E000E286E000E296E000EA8
:101AB0001F6E70EF0DF02AC025F0FF0E2616FF0EE8
:101AC00027167F0E2816000E291625A06AEF0DF0A6
:101AD0006CEF0DF06DEF0DF0288ED8902530296E4B
:101AE0001F50291226C013F027C014F028C015F08B
:101AF00029C016F012003750800B446E375037243F
:101B00004B6E36AE86EF0DF088EF0DF089EF0DF0DD
:101B10004B804B50D8B48FEF0DF091EF0DF0A6EF46
:101B20000DF04B28D8A497EF0DF099EF0DF0A1EF31
:101B30000DF0000E346E000E356E000E366E000E87
:101B4000376E368E000E376EAEEF0DF0000E346E2F
:101B5000000E356E000E366E000E376E3B50800B59
:101B6000441A3B503B244C6E3AAEB9EF0DF0BBEF3C
:101B70000DF0BCEF0DF04C804C50D8B4C2EF0DF01E
:101B8000C4EF0DF0D9EF0DF04C28D8A4CAEF0DF03A
:101B9000CCEF0DF0D4EF0DF0000E386E000E396E64
:101BA000000E3A6E000E3B6E3A8E000E3B6EE1EF79
:101BB0000DF0000E386E000E396E000E3A6E000EFB
:101BC0003B6E385039103A103B10D8A4EAEF0DF0B4
:101BD000ECEF0DF004EF0EF0000E346E000E356EDB
:101BE000000E366E000E376E800E36127F0E3712E4
:101BF0004450371234C034F035C035F036C036F0BA
:101C000037C037F047EF0FF04B50D8A40AEF0EF073
:101C10000CEF0EF016EF0EF0000E346E000E356E67
:101C2000000E366E000E376E47EF0FF04C504BC073
:101C30003CF03D6A3C5E000E3D5A7F0E3C24456EF2
:101C4000000E3D20466E34C040F035C041F036C035
:101C500042F037C043F0000E346E000E356E000EB9
:101C6000366E000E376E000E476E000E486E000E88
:101C7000496E000E4A6E000E4C6E77EF0EF04C501F
:101C8000D8B445EF0EF047EF0EF05EEF0EF0D890AF
:101C90004036413642364336D890343635363636BD
:101CA00037364AAE56EF0EF058EF0EF059EF0EF001
:101CB0003480D8904736483649364A363850405CEA
:101CC000395041583A5042583B504358D8A06BEFD6
:101CD0000EF06DEF0EF076EF0EF04A8C3850405E4D
:101CE0003950415A3A50425A3B50435A4C2A190EE5
:101CF0004C647DEF0EF07FEF0EF03FEF0EF04050A2
:101D0000411042104310D8B488EF0EF08AEF0EF065
:101D1000A2EF0EF04780A2EF0EF0D89034363536A1
:101D2000363637364AAE97EF0EF099EF0EF09AEF4F
:101D30000EF03480D8904736483649364A36450644
:101D4000D8A0460636AEA7EF0EF0A9EF0EF08DEF45
:101D50000EF0000E4C6E4AAEB0EF0EF0B2EF0EF089
:101D6000D6EF0EF0FF0E47143C6EFF0E48143D6E8A
:101D7000FF0E49143E6E7F0E4A143F6E3C503D10DC
:101D80003E103F10D8B4C7EF0EF0C9EF0EF0CDEF04
:101D90000EF0010E4C6ED6EF0EF034A0D2EF0EF026
:101DA000D4EF0EF0D6EF0EF0C9EF0EF04C50D8B4D1
:101DB000DCEF0EF0DEEF0EF002EF0FF0010E342636
:101DC000000E35223622372237A0E9EF0EF0EBEF76
:101DD0000EF002EF0FF034C03CF035C03DF036C0DD
:101DE0003EF037C03FF03F343F323E323D323C326E
:101DF0003CC034F03DC035F03EC036F03FC037F057
:101E0000454A462A46BE0DEF0FF0465008E14528E8
:101E1000D8A00DEF0FF00FEF0FF01AEF0FF0000E3C
:101E2000466E4568000E346E000E356E000E366E3E
:101E3000000E376E46BE27EF0FF0465006E1450410
:101E4000D8B025EF0FF027EF0FF035EF0FF0000EB1
:101E5000466E000E456E000E346E000E356E000E9E
:101E6000366E000E376E000E446E45C04BF04BA030
:101E70003CEF0FF03EEF0FF041EF0FF0368E42EFE8
:101E80000FF0369ED8904B30376EF8EF0DF0120001
:101E9000000E2C6E000E2D6E100E2E6E410E2F6E4B
:101EA00057C030F058C031F059C032F05AC033F04A
:101EB000B2EC15F0D8A05FEF0FF061EF0FF099EFE3
:101EC0000FF0899ADDC0CDF0DEC0CEF0DFC0CFF0DC
:101ED000E0C0D0F00001C951CD5D386ECA51CE5975
:101EE000396ECB51CF593A6ECC51D0593B6E3B50E5
:101EF0003A100BE1400E385C380E3958D8A083EF09
:101F00000FF085EF0FF099EF0FF0CDC0C9F0CEC004
:101F1000CAF0CFC0CBF0D0C0CCF0898AB70E396EF2
:101F2000A10E386EC40EE82EFED7382EFCD7392EFF
:101F3000FAD757C02CF058C02DF059C02EF05AC017
:101F40002FF0000E306E000E316E800E326E410E9C
:101F5000336EB2EC15F0D8A0B0EF0FF0B2EF0FF087
:101F6000E7EF0FF057C02CF058C02DF059C02EF0FD
:101F70005AC02FF0000E306E000E316E880E326E99
:101F8000410E336EB2EC15F0D8B0C9EF0FF0CBEFC5
:101F90000FF0E7EF0FF0010E0001EB25EB6F000EE5
:101FA000EC21EC6FECBFDEEF0FF0590EEB5D020E93
:101FB000EC59D8A0DEEF0FF0E0EF0FF0E7EF0FF0F5
:101FC000000EEC6F000EEB6F899AE5EF0FF057C033
:101FD0002CF058C02DF059C02EF05AC02FF0000E32
:101FE000306E000E316E880E326E410E336EB2ECE2
:101FF00015F0D8A0FEEF0FF000EF10F035EF10F065
:1020000057C02CF058C02DF059C02EF05AC02FF0F8
:10201000000E306E000E316E900E326E410E336E39
:10202000B2EC15F0D8B017EF10F019EF10F035EF53
:1020300010F0010E0001E925E96F000EEA21EA6FB8
:10204000EABF2CEF10F02D0EE95D010EEA59D8A081
:102050002CEF10F02EEF10F035EF10F0000EEA6FBD
:10206000000EE96F899A33EF10F057C02CF058C07A
:102070002DF059C02EF05AC02FF0000E306E000E19
:10208000316E900E326E410E336EB2EC15F0D8A068
:102090004CEF10F04EEF10F083EF10F057C02CF023
:1020A00058C02DF059C02EF05AC02FF0000E306EDF
:1020B000000E316E980E326E410E336EB2EC15F09A
:1020C000D8B065EF10F067EF10F083EF10F0010E5D
:1020D0000001E725E76F000EE821E86FE8BF7AEF1F
:1020E00010F0E85109E1790EE75DD8A07AEF10F021
:1020F0007CEF10F083EF10F0000EE86F000EE76F3A
:10210000899A81EF10F057C02CF058C02DF059C0BB
:102110002EF05AC02FF0000E306E000E316E980E69
:10212000326E410E336EB2EC15F0D8A09AEF10F07B
:102130009CEF10F0B8EF10F0010E0001E525E56FFF
:10214000000EE621E66FE6BFAFEF10F0E65109E1C1
:10215000100EE55DD8A0AFEF10F0B1EF10F0B8EFC2
:1021600010F0000EE66F000EE56F899AB6EF10F0E2
:102170001200C1C066F0C2C067F0C3C068F0C4C03E
:1021800069F04DC066F04EC067F04FC068F050C0B7
:1021900069F0810E516EFF0E526E66C053F067C03B
:1021A00054F068C055F069C056F0180EDDEF10F01D
:1021B000D8905632553254325332E82ED8EF10F0C0
:1021C000535051240001646F000E5220656F65BFAB
:1021D000F3EF10F0655109E1170E645DD8A0F3EF3D
:1021E00010F0F5EF10F0FFEF10F04DC04DF04EC0C5
:1021F0004EF04FC04FF050C050F0C3EF11F065BF2C
:1022000004EF11F006EF11F077EF11F064C051F018
:10221000FF0E526EFF0E536E7F0E546E000E556E03
:10222000516615EF11F01DEF11F05534553254324F
:1022300053325232512E10EF11F052C060F053C0A1
:1022400061F054C062F055C063F000016051661542
:10225000516E61516715526E62516815536E63512C
:102260006915546E5150521053105410D8A43BEFBE
:1022700011F03DEF11F03FEF11F0F5EF10F066C0F7
:1022800051F067C052F068C053F069C054F0200E9E
:102290004FEF11F0D8905432533252325132E82E6F
:1022A0004AEF11F05150521053105410D8B45BEF54
:1022B00011F05DEF11F065EF11F06051662761518B
:1022C00067236251682363516923601D516E611D4C
:1022D000526E621D536E631D546E515066175250FC
:1022E00067175350681754506917BBEF11F066C059
:1022F00051F067C052F068C053F069C054F0200E2E
:1023000087EF11F0D8905432533252325132E82EC6
:1023100082EF11F05150521053105410D8A493EF83
:1023200011F095EF11F09FEF11F0000E666F000EA7
:10233000676F000E686F000E696FBBEF11F0D890E9
:102340006635516E6735526E6835536E6935546E19
:102350005150521053105410D8B4B1EF11F0B3EFE4
:1023600011F0BBEF11F0000E666F000E676F800E6C
:10237000686FBF0E696F66C04DF067C04EF068C0F1
:102380004FF069C050F0120000019F51D96EDA6A17
:10239000DFCFF6FF080EF76E0800F550250AD8A427
:1023A000D4EF11F0D6EF11F0BAEF12F09F51D96EC1
:1023B000DA6ADF2A000EE26F000EE16FE1C0FDF085
:1023C000E369E4699F51D96EDA6ADFCFF6FF080E40
:1023D000F76E0800F5502E0AD8A4F1EF11F0F3EFD4
:1023E00011F001EF12F09F51D96EDA6ADF2A9FC017
:1023F0000BF0A0C00CF065EC17F00BC0E3F00CC0C4
:10240000E4F000019F51D96EDA6ADF50A86FA8C0CE
:10241000F6FF080EF76E0800F5CFA7F01BEF12F0DD
:10242000A82B34EF12F06C0EA76F34EF12F0000EF1
:10243000A76F34EF12F0A751A16FA26BA251000A4F
:10244000D8B425EF12F017EF12F0A1514C0AD8B40E
:1024500010EF12F02A0AD8B413EF12F00A0AD8B417
:1024600010EF12F017EF12F0A8C0F6FF080EF76E8B
:102470000800F550660AD8A440EF12F042EF12F0BF
:10248000B3EF12F06CEF12F0A051D96EDA6ADFCF21
:10249000A1F0040EDF26A151D96EDA6ADECFA3F0D7
:1024A000DECFA4F0DECFA5F0DECFA6F081EF12F0F4
:1024B000A051D96EDA6ADFCFA1F0040EDF26A15158
:1024C000D96EDA6ADECFA3F0DECFA4F0DECFA5F0BE
:1024D000DECFA6F081EF12F0A751A16FA26BA2513F
:1024E000000AD8B476EF12F081EF12F0A1514C0A35
:1024F000D8B458EF12F0200AD8B444EF12F081EFAC
:1025000012F09F51D96EDA6AA829DF6E9DEF12F0A2
:102510009EC06AF0A3C06BF0A4C06CF0A5C06DF0C3
:10252000A6C06EF0A8C0F6FF080EF76E0800F5CF43
:102530006FF012EC04F0CBEF12F0A8C0F6FF080E1B
:10254000F76E0800F550A16FA26BA251000AD8B433
:10255000ACEF12F0B3EF12F0A151660AD8B488EFD5
:1025600012F0B3EF12F000019F51D96EDA6ADF2A40
:10257000CBEF12F09F51D96EDA6ADFCFF6FF080E6B
:10258000F76E0800F550076E086A9EC009F0B3ECBC
:1025900016F0B3EF12F01200000E0001D56F000E1E
:1025A000D66F000ED76F000ED86F000ED16F000EE1
:1025B000D26F000ED36F000ED46F000E616F000E4D
:1025C000606F7EEF13F0000E73EC1AF005C0EDF0B3
:1025D00006C0EEF0EDC005F0EEC006F0076A086A2E
:1025E000000EBAEC13F005C013F006C014F007C0DB
:1025F00015F008C016F00A0E176E280E186EA00E01
:10260000196E3B0E1A6E66EC0BF013C0D9F014C0B5
:10261000DAF015C0DBF016C0DCF05E0E096EBA0E03
:102620000A6E210E0B6EC00E0C6ED9C005F0DAC01A
:1026300006F0DBC007F0DCC008F006EC09F005C0CE
:1026400034F006C035F007C036F008C037F04E0E43
:10265000386E620E396E900E3A6E3E0E3B6E7BEC1B
:102660000DF034C062F035C063F036C064F037C09E
:1026700065F0D5C02CF0D6C02DF0D7C02EF0D8C054
:102680002FF062C030F063C031F064C032F065C03A
:1026900033F0B2EC15F0D8B050EF13F052EF13F066
:1026A0005AEF13F062C0D5F063C0D6F064C0D7F023
:1026B00065C0D8F062C02CF063C02DF064C02EF06D
:1026C00065C02FF0D1C030F0D2C031F0D3C032F0AD
:1026D000D4C033F0B2EC15F0D8B071EF13F073EF53
:1026E00013F07BEF13F062C0D1F063C0D2F064C08E
:1026F000D3F065C0D4F00001604B612B4D50605D9C
:102700006151800A516E4E50800A5158D8A08BEF0B
:1027100013F08DEF13F0E3EF12F0D1C030F0D2C020
:1027200031F0D3C032F0D4C033F0D5C02CF0D6C0D5
:102730002DF0D7C02EF0D8C02FF092EC19F02CC09D
:1027400034F02DC035F02EC036F02FC037F0000E1B
:10275000386E000E396E000E3A6E400E3B6E7BEC0A
:102760000DF034C04DF035C04EF036C04FF037C0DC
:1027700050F012000D6E0D50D8B4C1EF13F0C3EF3E
:1027800013F0E5EF13F008BECAEF13F0C8EF13F033
:10279000E5EF13F005C009F006C00AF007C00BF022
:1027A00008C00CF0091E0A1E0B1E0C1E092A000E82
:1027B0000A220B220C2209C00FF00AC010F00BC035
:1027C00011F00CC012F0EDEF13F005C00FF006C0D1
:1027D00010F007C011F008C012F0055006100710E5
:1027E0000810D8A4F6EF13F0F8EF13F002EF14F08E
:1027F000000E056E000E066E000E076E000E086ECF
:1028000093EF14F0960E0E6E0CEF14F00E2AD89083
:102810001232113210320F32000E0F14096E000EF8
:1028200010140A6E000E11140B6EFE0E12140C6EB4
:1028300009500A100B100C10D8A421EF14F023EF4C
:1028400014F006EF14F031EF14F00E2A010E0F26EB
:10285000000E102211221222D890123211321032A0
:102860000F32000E0F14096E000E10140A6E000EC7
:1028700011140B6EFF0E12140C6E09500A100B107F
:102880000C10D8A446EF14F048EF14F025EF14F024
:1028900050EF14F00E06D8900F361036113612365F
:1028A00011BE55EF14F057EF14F05FEF14F0020E65
:1028B0000E605DEF14F05FEF14F04AEF14F00EB00D
:1028C00064EF14F066EF14F067EF14F0119ED890E7
:1028D0000E320EC009F00A6A0B6A0C6A09C00CF0CD
:1028E0000B6A0A6A096A09500F120A5010120B503B
:1028F00011120C5012120D50D8B481EF14F083EF66
:1029000014F08BEF14F008BE8AEF14F088EF14F087
:102910008BEF14F0128E0FC005F010C006F011C03E
:1029200007F012C008F012009CEC1BF0F28EF28C43
:10293000070E0F015B6F000E5C6F000E5D6FE0EC29
:102940001BF0110EB8EC17F07A0E01016F6FC10E7B
:102950006E6F810EE82EFED76E2FFCD76F2FFAD741
:1029600000D0898AB70E01016F6FA10E6E6FC30E82
:10297000E82EFED76E2FFCD76F2FFAD700D0070EA8
:102980004E6ED00E4D6ECCEC12F04DC070F14EC0BC
:1029900071F14FC072F150C073F1CD0E096ECC0EC3
:1029A0000A6ECC0E0B6EBD0E0C6E70C105F071C1BF
:1029B00006F072C107F073C108F006EC09F005C01B
:1029C00034F006C035F007C036F008C037F0CD0E41
:1029D000386ECC0E396ECC0E3A6E3D0E3B6E7BECF3
:1029E0000DF034C057F035C058F036C059F037C03C
:1029F0005AF0540E0001AD6F010EAE6F0F0EAF6FA7
:102A000057C0B0F058C0B1F059C0B2F05AC0B3F0DE
:102A1000D6EC19F042EC1BF00009D8B412EF15F017
:102A200014EF15F01AEF15F0540E066E010E076E36
:102A3000FEEC1AF048EC0FF055EC18F0040E010112
:102A40006F6F0C0E6E6F330EE82EFED76E2FFCD715
:102A50006F2FFAD700D0BFEF14F026EF00F0073445
:102A600008340E6E0E50D8A438EF15F03AEF15F07A
:102A700044EF15F0000E056E000E066E000E076E98
:102A8000000E086EB1EF15F005C009F006C00AF09F
:102A900007C00BF008C00CF0200E54EF15F0D890D2
:102AA0000C320B320A320932E82E4FEF15F0095082
:102AB0000D6E078EFF0E0516FF0E0616FF0E07168B
:102AC000000E0816960E0E5E0EBE6BEF15F069EF47
:102AD00015F081EF15F00E50800A970FD8B073EF04
:102AE00015F075EF15F077EF15F03AEF15F0D89077
:102AF00008320732063205320E3E77EF15F099EFB5
:102B000015F01F0E0E6487EF15F089EF15F091EFA9
:102B100015F03AEF15F0D890053606360736083628
:102B20000E060E50D8A497EF15F099EF15F08BEF25
:102B300015F00D50D8B49FEF15F0A1EF15F0A9EFE7
:102B400015F0081E071E061E056C000E0622072241
:102B5000082205C005F006C006F007C007F008C04F
:102B600008F01200000E2C14346E000E2D14356E79
:102B7000800E2E14366E7F0E2F14376E34503510A3
:102B800036103710D8A4C7EF15F0C9EF15F0D1EF04
:102B900015F0000E2C6E000E2D6E000E2E6E000E27
:102BA0002F6E000E3014346E000E3114356E800E10
:102BB0003214366E7F0E3314376E345035103610A3
:102BC0003710D8A4E6EF15F0E8EF15F0F0EF15F0A8
:102BD000000E306E000E316E000E326E000E336E3F
:102BE0002FAEF5EF15F0F7EF15F000EF16F02C6CA7
:102BF0002D1ED8B02D2A2E1ED8B02E2A800E2F566C
:102C000033AE05EF16F007EF16F010EF16F0306C4C
:102C1000311ED8B0312A321ED8B0322A800E335637
:102C2000000E2C1A000E2D1A000E2E1A800E2F1ACE
:102C3000000E301A000E311A000E321A800E331AAE
:102C400030502C5C31502D5832502E5833502F5864
:102C5000D8B02DEF16F02FEF16F032EF16F0D89017
:102C600033EF16F0D8801200C5C00FF0C6C010F0C8
:102C7000C7C011F0C8C012F005C00FF006C010F0B8
:102C800007C011F008C012F00FC009F010C00AF020
:102C900011C00BF012C00CF0180E54EF16F0D890C3
:102CA0000C320B320A320932E82E4FEF16F009507F
:102CB0000D6E0E6A0D500E10D8A461EF16F063EF82
:102CC00016F083EF16F0D8900F34096E10340A6EA8
:102CD00011340B6E12340C6E09500A100B100C10CC
:102CE000D8A475EF16F077EF16F07DEF16F0000E12
:102CF000066E020E056EB2EF16F0000E066E030EA3
:102D0000056EB2EF16F00D280E10D8A48AEF16F05B
:102D10008CEF16F0AEEF16F00FC009F010C00AF0FD
:102D200011C00BF012C00CF0090ED89009360A360B
:102D30000B360C36E82E95EF16F009500A100B10E2
:102D40000C10D8B4A6EF16F0A9EF16F0010EAAEFFA
:102D500016F0000E056E066AB2EF16F0000E066E53
:102D6000040E056E12000950D8B4B9EF16F0BBEF8F
:102D700016F0C3EF16F00950D8A4C1EF16F0C3EF58
:102D800016F0C8EF16F0075021EC1CF00FEF17F00B
:102D90000950D96EDA6A0A0ED926DE50DE10D8B490
:102DA000D4EF16F0D6EF16F0EFEF16F00950D96E0B
:102DB000DA6A0A0ED9260950E16EE26A030EE126AC
:102DC000DE50E65CE650800A0E6EDE50800A0E5839
:102DD000D8B0EDEF16F0EFEF16F00FEF17F0095047
:102DE000D96EDA6A030ED926DECF0AF0DDCF0BF0FA
:102DF0000950D96EDA6ADECF0CF0DDCF0DF00A5043
:102E00000C24D96E0B500D20DA6E07C0DFFF09507D
:102E1000D96EDA6A030ED926DE2A000EDD221200F0
:102E2000000E05140D6E000E06140E6E800E0714B3
:102E30000F6E7F0E0814106E0D500E100F10101034
:102E4000D8A425EF17F027EF17F02FEF17F0000E9B
:102E5000056E000E066E000E076E000E086E000E68
:102E600009140D6E000E0A140E6E800E0B140F6EF8
:102E70007F0E0C14106E0D500E100F101010D8A4F1
:102E800044EF17F046EF17F04EEF17F0000E096E03
:102E9000000E0A6E000E0B6E000E0C6E0950051827
:102EA0000FE10A5006180CE10B50071809E10C500D
:102EB0000818D8B45EEF17F060EF17F063EF17F063
:102EC000D89064EF17F0D8801200000E0F6E000E3D
:102ED0000E6E0B50D96EDA6ADFCFF6FF080EF76E72
:102EE0000800F5502A0AD8A478EF17F07AEF17F007
:102EF000A0EF17F00B50D96EDA6ADF2A0C50D96EAA
:102F0000DA6A020EDF26DF5CD96EDA6ADECF0EF0F7
:102F1000DECF0FF0B3EF17F00EC005F00FC006F0D4
:102F2000000E086E0A0E076E6AEC1BF00D500524A9
:102F30000E6E000E06200F6E0B50D96EDA6ADF2A75
:102F40000B50D96EDA6ADFCFF6FF080EF76E080075
:102F5000F550D00F0D6E090E0D64B1EF17F0B3EF01
:102F600017F08CEF17F00EC00BF00FC00CF0120032
:102F70000B6E8A920C0E076E000EB9EC1BF0000E61
:102F8000076E040EB9EC1BF0030E076E030EB9ECCE
:102F90001BF0160E076E060EB9EC1BF00BC007F007
:102FA000050EB9EC1BF0000E076E010EB9EC1BF01C
:102FB000010E076E110EB9EC1BF00F0E076E000E1E
:102FC000B9EC1BF00A0E076E100E086E16EC1AF024
:102FD0000A0E076E0A0E086E16EC1AF0D4EC1BF0FF
:102FE0008A82120019BEF9EF17F0F7EF17F0FDEF24
:102FF00017F0000E196E000E186E000E1C6E000EFB
:103000001B6E0DEF18F0000E086E200E076E15C037
:1030100009F0B3EC16F01B4A1C2A18501B5C1C501C
:10302000800A1A6E1950800A1A58D8A01AEF18F0A0
:103030001CEF18F003EF18F016C00FF017C010F0D7
:1030400015C011F0F6EC19F012000B6E8A92000E0A
:10305000076E040EB9EC1BF0030E076E030EB9ECFD
:103060001BF0160E076E060EB9EC1BF00BC007F036
:10307000050EB9EC1BF0000E076E010EB9EC1BF04B
:103080000E0E076E000EB9EC1BF00A0E076E100E46
:10309000086E16EC1AF00A0E076E0A0E086E16EC91
:1030A0001AF0D4EC1BF08A8212008DEC1BF0E806BB
:1030B000D8A45DEF18F05FEF18F082EF18F0C7ECBE
:1030C0001BF00001FE6FFE05D8A469EF18F06BEF4E
:1030D00018F074EF18F0AEEC18F0E4EC1AF0000EF3
:1030E0000001FE6F82EF18F0020EFE19D8A47BEFEC
:1030F00018F07DEF18F082EF18F0AEEC18F0899A16
:103100006FEF18F0120008BE88EF18F08AEF18F081
:1031100094EF18F005C005F006C006F007C007F0F0
:1031200008C008F0ADEF18F005C009F006C00AF0BD
:1031300007C00BF008C00CF0091E0A1E0B1E0C1E67
:10314000092A000E0A220B220C2209C005F00AC02F
:1031500006F00BC007F00CC008F01200110E25ECB1
:1031600018F0000E0F6E000E0E6E0001FE51C9EC3D
:103170001AF0040E0D6E0C0E0C6E340EE82EFED7F7
:103180000C2EFCD70D2EFAD70E4A0F2A0FBED2EF07
:1031900018F00F5009E13C0E0E5CD8A0D2EF18F0E9
:1031A000D4EF18F0B5EF18F0110EB8EC17F01200CC
:1031B00007C00EF008C00FF005C00CF006C00DF0FF
:1031C000F2EF18F00EC0D9FF0FC0DAFFDF500B6E20
:1031D0000E4A0F2A0CC0D9FF0DC0DAFF0BC0DFFF6B
:1031E0000C4A0D2A0906D8A00A06092806E10A2871
:1031F000D8A4FDEF18F0FFEF18F0E2EF18F012007E
:10320000360EF66E380EF76E000EF86E01EE62F0B6
:1032100010EE0CF00900F5CFEEFFE550E150FAE1B9
:1032200001EE00F0620EEE6AE806FDE100EEC1F08C
:103230003F0EEE6AE806FDE15A6A596A586A576A13
:103240005B905B92000EF86E000194EF14F0056E37
:10325000000E066E000E066E05AE31EF19F033EF6C
:1032600019F036EF19F08B8237EF19F08B92D89066
:1032700005368A84140EE82EFED78A94140EE82EA2
:10328000FED7062A070E066448EF19F04AEF19F038
:103290002CEF19F01200010E0001DD25DD6F000E8C
:1032A000DE21DE6F000EDF21DF6F000EE021E06F18
:1032B000F151F211D8B45FEF19F061EF19F06EEF30
:1032C00019F002D86EEF19F00500FA6EF151FD6E9B
:1032D000F251FE6EF850FF6EFA5012001200000E0E
:1032E000066E000E056E000E066ED89005368A84B6
:1032F000040EE82EFED781A680EF19F082EF19F0B8
:1033000083EF19F005808A94040EE82EFED7062A72
:10331000070E06648EEF19F090EF19F075EF19F0B3
:1033200005501200000E301A000E311A000E321A2B
:10333000800E331A2CC005F02DC006F02EC007F009
:103340002FC008F030C009F031C00AF032C00BF0D5
:1033500033C00CF006EC09F005C02CF006C02DF0CF
:1033600007C02EF008C02FF01200AAC0ACF0C2EFC8
:1033700019F0A9C09EF0AC0E00019F6FABC0A0F089
:10338000C4EC11F0ACC0F6FF080EF76E0800F55063
:103390000009D8A4CEEF19F0D0EF19F0B9EF19F069
:1033A000000E0001AA6F000EA96F1200B00E0001FE
:1033B000B46FADC0B5F0AEC0B6F0000EB96F000E80
:1033C000B86F000EC06F000EBF6FB50EA96FAFC013
:1033D000AAF0B40EAB6FB5EC19F00001B851AD25F1
:1033E000D96EB951AE21DA6EDF6A1200000E146E8A
:1033F000000E136E05EF1AF012C007F0086A11C034
:1034000009F0B3EC16F0134A142A13500F24D96EA6
:1034100014501020DA6EDF50126E1250D8A413EF41
:103420001AF015EF1AF0FCEF19F012008B94085007
:10343000200927EC19F0000E0A6E07500A24096EC5
:1034400009C0F6FF080EF76E0800F55027EC19F0DA
:103450000A2A040E0A642FEF1AF031EF1AF01DEF5A
:103460001AF08B84140EE82EFED71200080EB86EE8
:10347000900EAB6E240EAC6EE10EAF6E040EB06E0D
:10348000000E056E000E066E30EC1CF0000E056E90
:10349000000E066E2BEC1CF0000E056E000E066E84
:1034A00035EC1CF0000E0001FF6F120005C009F0A2
:1034B00006C00AF0072A0704086E08C0F6FF080EC7
:1034C000F76E09C0D9FF0AC0DAFF094A0A2A0800C4
:1034D000F5CFDFFFDF50D8A470EF1AF072EF1AF0CB
:1034E0005AEF1AF01200096E09C007F007460746A6
:1034F000C2500718830B0718C26EC280C282C2B2C4
:1035000084EF1AF086EF1AF07FEF1AF0C450086EBD
:10351000076AC3500724056E000E0820066E1200CD
:103520009E90F3C001F0F4C002F056EC1BF00001D5
:10353000EF4BF02BE80EEF5D030EF059D8A0A3EF90
:103540001AF0A5EF1AF0ACEF1AF04BEC19F0000EE0
:103550000001F06F000EEF6F12000550061007100B
:103560000810D8B4B6EF1AF0B8EF1AF0C0EF1AF09E
:10357000000E051A000E061A000E071A800E081A11
:1035800005C005F006C006F007C007F008C008F047
:103590001200096E0BEC1CF00E0E076E000EB9EC5B
:1035A0001BF08B94A00E27EC19F0095027EC19F0B2
:1035B0008B848A823C0EE82EFED78A920F0E076E0D
:1035C000000EB9EC1BF01200AEEC18F0898AB70EB1
:1035D000116EA10E106EC40EE82EFED7102EFCD771
:1035E000112EFAD7B70E116EA10E106EC40EE82E72
:1035F000FED7102EFCD7112EFAD7120009EF1BF0C0
:1036000006C0D9FF07C0DAFFDF50F6EC1BF0064A10
:10361000072A06C0D9FF07C0DAFFDF50D8A413EF8E
:103620001BF015EF1BF000EF1BF01200000E896E6F
:10363000000E8A6E000E8B6EC70E926EFE0E936E9B
:10364000870E946E040E0F015D6F3E0E5C6F070EC9
:103650005B6F000E856EF18E1200000ECC6ED10EE7
:10366000CF6E200ECE6ECECFF3F0CFCFF4F09E9083
:103670009D80800E056E380E066E26EC1CF0010E45
:10368000CD6E1200000E056E9EA849EF1BF04BEFA9
:103690001BF054EF1BF0ACAA50EF1BF052EF1BF0E5
:1036A00054EF1BF0010E056E05501200CDA45BEF28
:1036B0001BF05DEF1BF065EF1BF0CD900250CF6E5D
:1036C00001C0CEFFCD8069EF1BF00250CF6E01C06C
:1036D000CEFF120005500702F3CF09F0F4CF0AF035
:1036E00005500802F3500A2606500702F3500A2636
:1036F00009C005F00AC006F01200700ED36E000E6D
:10370000D26E800E9B6E000EB56ED2AE8AEF1BF0AD
:103710008CEF1BF085EF1BF012003AEC1CF0400A16
:10372000D8A495EF1BF097EF1BF09AEF1BF0010E5A
:103730009BEF1BF0000E12003EEC1CF016EC1BF091
:103740007DEC1BF014EC1CF02DEC1BF0EBEC1BF0F3
:1037500036EC1AF01200076E8B94075027EC19F024
:103760006FEC19F0086E8B84140EE82EFED708500B
:103770001200086E8B940850200927EC19F00750AE
:1037800027EC19F08B84140EE82EFED712008B94D0
:10379000610E27EC19F06FEC19F0076E8B84140E94
:1037A000E82EFED707501200700E076E070EB9EC18
:1037B0001BF0E10E01EC1CF0E20E01EC1CF012001B
:1037C0009492939494949386939294808A948B94F5
:1037D0008B928A921200000EC16E870EC06E000E90
:1037E000C36E000EC46E010EC26E1200056E9EA85E
:1037F000FCEF1BF0FEEF1BF0F7EF1BF005C0ADFF79
:103800001200076E8B94075027EC19F08B84140E6E
:10381000E82EFED71200700E076E070EB9EC1BF0F3
:10382000E10E01EC1CF01200000E976E000E906E7F
:10383000000E916E1200CDCCCC3DCDCCCC3D4E6275
:10384000903E066E0650F6EC1BF0120005C0F1F03B
:1038500006C0F2F0120005C0F9F006C0FAF012003E
:1038600005C0FBF006C0FCF0120005C0F7F006C072
:10387000F8F01200070EABEC1BF01200D09E120005
:02388000120034
:020000040020DA
:08000000FFFFFFFFFFFFFFFF00
:020000040030CA
:0E00000023225E3CFFD185FF0FC00FE00F40B2
:00000001FF
