:0400000056EF05F0C2
:10080000001111111111111111111100BAEC05F0A3
:10081000070E0F015B6F000E5C6F000E5D6F92861E
:10082000898A8A803D0E4D6EE10E4C6E400EE82E98
:10083000FED74C2EFCD74D2EFAD7899A8A9091EC90
:1008400005F0110E55EC04F0020E3E6E80B62BEF53
:1008500004F02DEF04F038EF04F080B832EF04F02C
:1008600034EF04F038EF04F0B0EC04F045EF04F09E
:1008700080A63DEF04F03FEF04F043EF04F085EC79
:1008800004F045EF04F0899A8A90070E4D6E170E1A
:100890004C6E6A0EE82EFED74C2EFCD74D2EFAD7A2
:1008A00000D026EF04F000EF00F0466E8A92000EB2
:1008B000426E040E77EC05F0030E426E030E77ECE9
:1008C00005F0160E426E060E77EC05F046C042F0BB
:1008D000050E77EC05F0000E426E010E77EC05F088
:1008E0000E0E426E000E77EC05F0060E426E100EF4
:1008F000436E1FEC05F0060E426E0A0E436E1FECAF
:1009000005F085EC05F08A821200800E3E6E8A802A
:10091000899A000E4B6E000E4A6E000E4B6E000E52
:100920004A6E620EFFEC04F0040E496E0C0E486E27
:10093000340EE82EFED7482EFCD7492EFAD74A4A65
:100940004B2A4BBEADEF04F04B5009E10A0E4A5C56
:10095000D8A0ADEF04F0AFEF04F091EF04F0120077
:10096000010E3E6E898A8A90000E4B6E000E4A6E12
:10097000000E4B6E000E4A6E610EFFEC04F0040E8A
:10098000496E0C0E486E340EE82EFED7482EFCD76A
:10099000492EFAD74A4A4B2A4BBED8EF04F04B50A7
:1009A00009E10A0E4A5CD8A0D8EF04F0DAEF04F0AF
:1009B000BCEF04F01200406E000E416E000E416E5E
:1009C00040AEE5EF04F0E7EF04F0EAEF04F08B82CD
:1009D000EBEF04F08B92D89040368A84140EE82E08
:1009E000FED78A94140EE82EFED7412A070E4164E2
:1009F000FCEF04F0FEEF04F0E0EF04F01200476EAD
:100A000091EC05F0110E55EC04F0B1EC05F00E0E72
:100A1000426E000E77EC05F08B94A00EDBEC04F038
:100A20004750DBEC04F08B848A823C0EE82EFED724
:100A30008A920F0E426E000E77EC05F012008B9436
:100A400043502009DBEC04F0000E456E4250452473
:100A5000446E44C0F6FF080EF76E0800F550DBEC5C
:100A600004F0452A040E456438EF05F03AEF05F02E
:100A700026EF05F08B84140EE82EFED71200000E30
:100A8000896E000E8A6E000E8B6EC70E926EFE0E81
:100A9000936E870E946E040E0F015D6F3E0E5C6FB9
:100AA000070E5B6F000E856EF18E120000EE60F097
:100AB0001E0EEE6AE806FDE100EE01F03F0EEE6A62
:100AC000E806FDE1000EF86E000106EF04F0700E7E
:100AD000D36E000ED26E800E9B6E000EB56ED2AE3F
:100AE00074EF05F076EF05F06FEF05F01200436E3E
:100AF0008B9443502009DBEC04F04250DBEC04F013
:100B00008B84140EE82EFED71200700E426E070E74
:100B100077EC05F0E10EA7EC05F0E20EA7EC05F08E
:100B200012009492939494949386939294808A94CE
:100B30008B948B928A921200000EC16E870EC06E4B
:100B4000000EC36E000EC46E010EC26E1200426E25
:100B50008B944250DBEC04F08B84140EE82EFED70D
:100B60001200700E426E070E77EC05F0E20EA7EC55
:100B700005F012003FEC05F067EC05F0C3EC05F062
:100B80009CEC05F01200000E976E000E906E000EA9
:040B9000916E120050
:020000040020DA
:08000000FFFFFFFFFFFFFFFF00
:020000040030CA
:0E00000023225E3CFFD185FF0FC00FE00F40B2
:00000001FF
