:040000002FEF00F0EE
:100008005382FACF4DF0FBCF4EF0F2AA0EEF00F07C
:1000180010EF00F019EF00F0F2A415EF00F017EF61
:1000280000F019EF00F025EC04F0F0A61EEF00F048
:1000380020EF00F029EF00F0F0A025EF00F027EF07
:1000480000F029EF00F0E6EC04F04EC0FBFF4DC0D5
:0A005800FAFF53921100A9EF04F023
:10080000001111111111111111111100080EB86E02
:10081000900EAB6E240EAC6EE10EAF6E040EB06E99
:10082000000E4F6E000E506EDCEC04F0000E4F6EAA
:10083000000E506ED7EC04F0000E4F6E000E506E9E
:10084000E1EC04F0000E4C6E1200F2944050D76EB2
:100850003FC0D6FF41504210D8B431EF04F033EF1F
:1008600004F040EF04F002D840EF04F00500FA6E07
:100870004150FD6E4250FE6EF850FF6EFA5012006D
:100880001200D59C150ED76E9F0ED66ED650D7CFC0
:1008900051F0526A51C052F0516A51103F6E52509D
:1008A000406EF294F28AD80E4F6E090E506ECDEC67
:1008B00004F0900ED56E1200000E896E000E8A6E46
:1008C000000E8B6EC70E926EFE0E936E870E946EA8
:1008D000040E0F015D6F3C0E5C6F070E5B6F000E28
:1008E000856EF18E12003D503E10D8B47AEF04F0C0
:1008F0007CEF04F089EF04F002D889EF04F00500E2
:10090000FA6E3D50FD6E3E50FE6EF850FF6EFA508E
:1009100012001200700ED36E000ED26E800E9B6E0F
:10092000000EB56ED2AE97EF04F099EF04F092EF9F
:1009300004F01200B6EC04F0F28EF28C070E0F01F8
:100940005B6F000E5C6F000E5D6FA5EF04F02FEF84
:1009500000F000EE01F04C0EEE6AE806FDE1539067
:100960005392000EF86E00019AEF04F0EAEC04F0E6
:100970005CEC04F08AEC04F0C3EC04F041EC04F00D
:1009800006EC04F01200F090F18ADA0E4F6E090EB8
:10099000506ED2EC04F0F08612004FC041F050C00F
:1009A00042F012004FC03DF050C03EF012004FC068
:1009B00045F050C046F012004FC047F050C048F01C
:1009C00012004FC043F050C044F01200F09073EC9E
:0C09D00004F01200D09E12001200120071
:020000040020DA
:08000000FFFFFFFFFFFFFFFF00
:020000040030CA
:0E00000023225E3CFFD185FF0FC00FE00F40B2
:00000001FF
