:0400000026EF00F0F7
:100008005B82FACF03F0FBCF04F0F2AC0EEF00F006
:1000180010EF00F020EF00F09DA015EF00F017EFB3
:1000280000F020EF00F09EA01CEF00F01EEF00F0A3
:1000380020EF00F08AEC1AF004C0FBFF03C0FAFFBF
:080048005B9211003FEF18F07C
:1008000000111111111140380000111111111125A1
:100810002E336620416D702E0A0D00696E66006EE3
:10082000616E0000000E0001936F6BC094F06CC00D
:1008300095F06DC096F06EC097F097BF24EF04F06E
:1008400022EF04F038EF04F0010E936F94C005F02E
:1008500095C006F096C007F097C008F0A7EC1AF014
:1008600005C094F006C095F007C096F008C097F058
:10087000000E0001996F000E986FDBC083F0DCC0A2
:1008800084F09351D8B447EF04F049EF04F05DEFE2
:1008900004F09351D8A44FEF04F051EF04F057EF58
:1008A00004F0000E796F2B0E786F5BEF04F0000EF2
:1008B000796F2D0E786F78C093F094C005F095C0D5
:1008C00006F096C007F097C008F081EC16F005041A
:1008D0000610D8A46EEF04F070EF04F09FEF04F060
:1008E00000019351D8B477EF04F079EF04F082EF70
:1008F00004F093C00CF18307D8A08407000E996F11
:10090000010E986F0C0E9825056E010E9921066E4A
:100910001B0E076E50EC1AF00001FD0E8327FF0E30
:1009200084236AC015F00C0E166E010E176E83C07C
:1009300018F084C019F076EC18F005EF09F094C0B7
:1009400005F095C006F096C007F097C008F081EC5E
:1009500016F005500610D8A4B0EF04F0B2EF04F082
:10096000D0EF04F000019351D8B4B9EF04F0BBEF1D
:1009700004F0C4EF04F093C00CF18307D8A08407FF
:10098000000E996F010E986F0C0E9825056E010EE2
:100990009921066E1F0E076E50EC1AF08CEF04F0D2
:1009A000000E00019A6F000E9B6F800E9C6F3F0E31
:1009B0009D6F000E826F000E816F94C005F095C090
:1009C00006F096C007F097C008F0000E096E000E02
:1009D0000A6E000E0B6E000E0C6E5DEC17F0D8B0B8
:1009E000F4EF04F0F6EF04F0D5EF05F003EF05F0B7
:1009F00085C09AF086C09BF087C09CF088C09DF0AF
:100A00000001814B822B9AC013F09BC014F09CC054
:100A100015F09DC016F0000E176E000E186E200E19
:100A2000196E410E1A6E66EC0BF013C085F014C0FF
:100A300086F015C087F016C088F000018551945DDE
:100A4000056E86519559066E87519659076E8851E5
:100A50009759086EA9EC18F008BE3AEF05F0085057
:100A60000710061009E1020E055CD8A03AEF05F068
:100A70003CEF05F0F8EF04F085C02CF086C02DF0B7
:100A800087C02EF088C02FF094C030F095C031F0B0
:100A900096C032F097C033F0FFEC15F0D8A053EFBA
:100AA00005F055EF05F0F8EF04F000019A51945D60
:100AB000056E9B519559066E9C519659076E9D5136
:100AC0009759086EA9EC18F008BE74EF05F00850AD
:100AD0000710061007E1020E055CD8B072EF05F0B2
:100AE00074EF05F0BCEF05F09AC094F09BC095F050
:100AF0009CC096F09DC097F0D5EF05F09AC034F0F9
:100B00009BC035F09CC036F09DC037F0000E386EAB
:100B1000000E396E200E3A6E410E3B6E7BEC0DF0EE
:100B200034C09AF035C09BF036C09CF037C09DF0C1
:100B300000018107D8A082079A51945D056E9B51F0
:100B40009559066E9C519659076E9D519759086E9E
:100B5000A9EC18F008BEBAEF05F00850071006100F
:100B600007E1020E055CD8B0B8EF05F0BAEF05F06A
:100B7000BCEF05F074EF05F094C02CF095C02DF09B
:100B800096C02EF097C02FF09AC030F09BC031F085
:100B90009CC032F09DC033F0FFEC15F0D8A0D3EF2D
:100BA00005F0D5EF05F07EEF05F06FC07BF07BC060
:100BB0007CF00001DEBFDFEF05F0E1EF05F0E7EFCD
:100BC00005F0DDC074F0DEC075F0EBEF05F0000E4F
:100BD000756F060E746F74C07FF075C080F07F4B28
:100BE000802B660E7C19D8A4F8EF05F0FAEF05F01B
:100BF0001AEF06F082BF01EF06F0FFEF05F00DEFF0
:100C000006F0000E9A6F000E9B6F800E9C6F3F0ED9
:100C10009D6F000E826F000E816F670E7B19D8B436
:100C200014EF06F016EF06F01AEF06F081517F2759
:100C300082518023000E8A6F000E896F94C08BF062
:100C400095C08CF096C08DF097C08EF09AC085F05C
:100C50009BC086F09CC087F09DC088F0ABEF06F08B
:100C60008BC034F08CC035F08DC036F08EC037F0BC
:100C70009AC038F09BC039F09CC03AF09DC03BF060
:100C80007BEC0DF034C04DF035C04EF036C04FF067
:100C900037C050F0FAEC10F04DC08FF04EC090F01D
:100CA0004FC091F050C092F08FC005F090C006F098
:100CB00091C007F092C008F07CEC15F005C07DF003
:100CC00006C07EF08BC02CF08CC02DF08DC02EF0B5
:100CD0008EC02FF08FC017F090C018F091C019F09F
:100CE00092C01AF09AC013F09BC014F09CC015F08B
:100CF0009DC016F066EC0BF013C030F014C031F05C
:100D000015C032F016C033F08CEC19F02CC08BF00B
:100D10002DC08CF02EC08DF02FC08EF09AC034F014
:100D20009BC035F09CC036F09DC037F0000E386E89
:100D3000000E396E200E3A6E410E3B6E7BEC0DF0CC
:100D400034C09AF035C09BF036C09CF037C09DF09F
:100D50000001894B8A2B7F51895D8A51800A706F0F
:100D60008051800A7059D8A0B8EF06F0BAEF06F0AB
:100D700030EF06F09AC013F09BC014F09CC015F041
:100D80009DC016F0000E176E000E186EA00E196EA4
:100D9000400E1A6E66EC0BF013C08FF014C090F08A
:100DA00015C091F016C092F08BC02CF08CC02DF0C5
:100DB0008DC02EF08EC02FF08FC030F090C031F07B
:100DC00091C032F092C033F0FFEC15F0D8B0EBEFE9
:100DD00006F0EDEF06F0F8EF06F0000E00018F6F61
:100DE000000E906F000E916F000E926F21EF07F0D2
:100DF0008BC005F08CC006F08DC007F08EC008F0E7
:100E00008FC009F090C00AF091C00BF092C00CF0B6
:100E10005DEC17F0D8A00FEF07F011EF07F021EF0E
:100E200007F000017DB117EF07F019EF07F021EF90
:100E300007F0000E8F6F000E906F000E916F000E86
:100E4000926F94C005F095C006F096C007F097C069
:100E500008F08FC009F090C00AF091C00BF092C06A
:100E60000CF006EC09F005C08BF006C08CF007C052
:100E70008DF008C08EF08BC02CF08CC02DF08DC092
:100E80002EF08EC02FF0000E176E000E186E200E82
:100E9000196E410E1A6E85C013F086C014F087C01B
:100EA00015F088C016F066EC0BF013C030F014C0DB
:100EB00031F015C032F016C033F0FFEC15F0D8A0B9
:100EC00064EF07F066EF07F08FEF07F00001814B4A
:100ED000822B85C013F086C014F087C015F088C03F
:100EE00016F0000E176E000E186E200E196E410ED1
:100EF0001A6E66EC0BF013C085F014C086F015C0B6
:100F000087F016C088F0660E00017C19D8A48BEF1C
:100F100007F08DEF07F08FEF07F07F4B802B85C038
:100F20009AF086C09BF087C09CF088C09DF081C07D
:100F300072F082C073F0000E00017A6F000E776FBE
:100F4000000E766F000E8A6F000E896F8DEF08F02D
:100F50008BC034F08CC035F08DC036F08EC037F0C9
:100F60009AC038F09BC039F09CC03AF09DC03BF06D
:100F70007BEC0DF034C04DF035C04EF036C04FF074
:100F800037C050F0FAEC10F04DC08FF04EC090F02A
:100F90004FC091F050C092F08FC005F090C006F0A5
:100FA00091C007F092C008F07CEC15F006BEE4EFAB
:100FB00007F0065007E10A0E055CD8B0E2EF07F033
:100FC000E4EF07F0F4EF07F08FC005F090C006F0F3
:100FD00091C007F092C008F07CEC15F005C07DF0E0
:100FE00006C07EF0F9EF07F0000E00017E6F090EDB
:100FF0007D6F00017A51D8A400EF08F002EF08F0ED
:101000002AEF08F073BF09EF08F007EF08F02AEFA6
:1010100008F00C0E9825D96E010E9921DA6E2E0E6D
:10102000DF6E984B992B8307D8A08407010E7A6F47
:101030002AEF08F00C0E9825D96E010E9921DA6E70
:10104000300EDF6E984B992B8307D8A08407760764
:10105000D8A0770776517711D8A431EF08F033EF95
:1010600008F01AEF08F00C0E9825D96E010E9921A0
:10107000DA6E7D51300FDF6E984B992B8307D8A025
:1010800084078BC02CF08CC02DF08DC02EF08EC04C
:101090002FF08FC017F090C018F091C019F092C0D7
:1010A0001AF09AC013F09BC014F09CC015F09DC0BC
:1010B00016F066EC0BF013C030F014C031F015C020
:1010C00032F016C033F08CEC19F02CC08BF02DC030
:1010D0008CF02EC08DF02FC08EF09AC034F09BC0E3
:1010E00035F09CC036F09DC037F0000E386E000E13
:1010F000396E200E3A6E410E3B6E7BEC0DF034C023
:101100009AF035C09BF036C09CF037C09DF00001CE
:101110007207D8A07307894B8A2B7F51895D8A514A
:10112000800A706F8051800A7059D8B09AEF08F029
:101130009CEF08F0AAEF08F099BFA8EF08F09951CA
:1011400009E14B0E985DD8A0A8EF08F0AAEF08F0CF
:10115000A8EF07F0000E8A6F4F0E896F0C0E8925DD
:10116000D96E010E8A21DA6EDF6A0C0E706F010EE5
:10117000716F9851705F9951715B89517025056E3F
:101180008A517121066E0C0E076E010E086E98C012
:1011900009F099C00AF0D4EC18F000019851895D6B
:1011A000986F99518A59996F9351D8A4DAEF08F042
:1011B000DDEF08F0010EDEEF08F0000E896F8A6B9C
:1011C0009351D8B4E6EF08F0E8EF08F0F3EF08F039
:1011D0009807D8A099070C0E9825D96E010E992171
:1011E000DA6E93C0DFFF8951835F8A51845B6AC0E6
:1011F00015F00C0E9825166E010E9921176E83C0FE
:1012000018F084C019F076EC18F012000850800B2A
:10121000116E08500824136E07AE11EF09F013EF9A
:1012200009F014EF09F013801350D8B41AEF09F045
:101230001CEF09F031EF09F01328D8A422EF09F0D0
:1012400024EF09F02CEF09F0000E056E000E066E7B
:10125000000E076E000E086E078E000E086E39EF46
:1012600009F0000E056E000E066E000E076E000EF1
:10127000086E0C50800B126E11501218D8B443EF48
:1012800009F045EF09F046EF09F0118C0C500C24E1
:10129000126E0BAE4EEF09F050EF09F051EF09F06E
:1012A00012801250D8B457EF09F059EF09F06EEFE1
:1012B00009F01228D8A45FEF09F061EF09F069EF97
:1012C00009F0000E096E000E0A6E000E0B6E000E85
:1012D0000C6E0B8E000E0C6E76EF09F0000E096E90
:1012E000000E0A6E000E0B6E000E0C6E1350125C98
:1012F000D8B07DEF09F07FEF09F0A6EF09F011AC4F
:1013000084EF09F086EF09F088EF09F0800E111ADA
:1013100013C014F012C013F014C012F005C014F082
:1013200009C005F014C009F006C014F00AC006F0A8
:1013300014C00AF007C014F00BC007F014C00BF083
:1013400008C014F00CC008F014C00CF0000E146EAD
:10135000135012C00DF00E6A0D5E000E0E5A0EBE36
:10136000BBEF09F00E5009E11A0E0D5CD8A0BBEFDF
:1013700009F0BDEF09F0F4EF09F005500610071071
:101380000810D8A4C6EF09F0C9EF09F0010ECAEFA2
:1013900009F0000E146E000E056E000E066E000EB3
:1013A000076E000E086E12C013F0FDEF09F014A0D6
:1013B000DCEF09F0DEEF09F0E4EF09F0D89014302B
:1013C0000109146EE6EF09F0D890143205A0EBEF96
:1013D00009F0EDEF09F0EEEF09F0148E0834083251
:1013E000073206320532132A1250135CD8A0FBEFE5
:1013F00009F0FDEF09F0D7EF09F011BC02EF0AF098
:1014000004EF0AF044EF0AF01350D8A40AEF0AF0F0
:101410000CEF0AF016EF0AF0000E056E000E066ED5
:10142000000E076E000E086E65EF0BF009500526E2
:101430000A5006220B5007220C50082208A023EF66
:101440000AF025EF0AF0D1EF0AF014A02AEF0AF013
:101450002CEF0AF032EF0AF0D89014300109146E24
:1014600034EF0AF0D890143205A039EF0AF03BEFC0
:101470000AF03CEF0AF0148E0834083207320632C4
:101480000532132AD1EF0AF00950055C0A500658BC
:101490000B5007580850800A0D6E0C50800A0D58EA
:1014A000D8B055EF0AF057EF0AF082EF0AF0055076
:1014B000095C0D6E06500A580E6E07500B580F6EE1
:1014C00008500C58106EFF0E0D24056EFF0E0E20F6
:1014D000066EFF0E0F20076EFF0E1020086E800EA6
:1014E000111A146C1450D8A478EF0AF07AEF0AF0AD
:1014F0008AEF0AF0010E0526000E062207220822B6
:101500008AEF0AF00950055E0A50065A0B50075A36
:101510000C50085A0550061007100810D8A493EF75
:101520000AF095EF0AF0CAEF0AF01450D8A49BEF26
:101530000AF09DEF0AF0CAEF0AF0000E056E000EE9
:10154000066E000E076E000E086E65EF0BF0D89069
:10155000053606360736083614AEB1EF0AF0B3EF9B
:101560000AF0B4EF0AF0058014A0B9EF0AF0BBEF5F
:101570000AF0BFEF0AF0D8801436C1EF0AF0D89015
:1015800014361350D8B4C7EF0AF0C9EF0AF0CAEF07
:101590000AF0130607AECFEF0AF0D1EF0AF0A7EF7B
:1015A0000AF0000E126E14AED8EF0AF0DAEF0AF06D
:1015B000F2EF0AF014C00DF07F0E0D16D8B4E3EF71
:1015C0000AF0E5EF0AF0E9EF0AF0010E126EF2EF11
:1015D0000AF005A0EEEF0AF0F0EF0AF0F2EF0AF0E1
:1015E000E5EF0AF01250D8B4F8EF0AF0FAEF0AF07B
:1015F00025EF0BF0010E0526000E06220722082219
:1016000008A005EF0BF007EF0BF025EF0BF005C07E
:101610000DF006C00EF007C00FF008C010F0103437
:1016200010320F320E320D320DC005F00EC006F032
:101630000FC007F010C008F01328D8B422EF0BF049
:1016400024EF0BF025EF0BF0132A1328D8B42BEF5F
:101650000BF02DEF0BF035EF0BF01350D8A433EF58
:101660000BF035EF0BF047EF0BF0000E056E000EA0
:10167000066E000E076E000E086E1350D8A443EFDE
:101680000BF045EF0BF047EF0BF0000E116E13A0BF
:101690004CEF0BF04EEF0BF051EF0BF0078E52EFCB
:1016A0000BF0079ED8901330086E11AE5AEF0BF076
:1016B0005CEF0BF05DEF0BF0088E05C005F006C087
:1016C00006F007C007F008C008F012001650800BA3
:1016D0001F6E16501624256E15AE71EF0BF073EFCA
:1016E0000BF074EF0BF025802550D8B47AEF0BF097
:1016F0007CEF0BF08FEF0BF02528D8A482EF0BF0D6
:1017000084EF0BF08CEF0BF0000E136E000E146ED6
:10171000000E156E000E166E158E97EF0BF0000E74
:10172000136E000E146E000E156E000E166E1A501B
:10173000800B1F1A1A501A24206E19AEA2EF0BF05C
:10174000A4EF0BF0A5EF0BF020802050D8B4ABEF46
:101750000BF0ADEF0BF0C0EF0BF02028D8A4B3EFE7
:101760000BF0B5EF0BF0BDEF0BF0000E176E000E97
:10177000186E000E196E000E1A6E198EC8EF0BF05F
:10178000000E176E000E186E000E196E000E1A6E07
:101790002050D8B4CEEF0BF0D0EF0BF0D8EF0BF019
:1017A0002550D8A4D6EF0BF0D8EF0BF0E2EF0BF0FA
:1017B000000E136E000E146E000E156E000E166EE7
:1017C0007AEF0DF019501302F3CF2AF0F4CF2BF07B
:1017D0002A50216E226A236A246A2B50266E276AB9
:1017E000286A296A18501402F3CF2AF0F4CF2BF09C
:1017F0002A502126000E2222232224222B50262684
:10180000000E27222822292217501502F3CF2AF092
:10181000F4CF2BF02A502126000E2222232224224C
:101820002B502626000E27222822292223C024F00E
:1018300022C023F021C022F0216A17501402F3CFF6
:101840002AF0F4CF2BF02A5021262B502222000E12
:101850002322000E242218501302F3CF2AF0F4CFD3
:101860002BF02A5021262B502222000E2322000E7C
:10187000242223C024F022C023F021C022F0216AB8
:1018800017501302F3CF2AF0F4CF2BF02A50212661
:101890002B502222000E2322000E24221950140263
:1018A000F3CF2AF0F4CF2BF02A5026262B502722F4
:1018B000000E2822000E292218501502F3CF2AF01C
:1018C000F4CF2BF02A5026262B502722000E282258
:1018D000000E292219501502F3CF2AF0F4CF2BF075
:1018E0002A501B6E2B501C6E1D6A1E6A1DC01EF0F6
:1018F0001CC01DF01BC01CF01B6A1B5026261C5070
:1019000027221D5028221E50292221C01BF022C050
:101910001CF023C01DF024C01EF0190E95EF0CF032
:10192000D8901E321D321C321B32E82E90EF0CF084
:101930001B5026261C5027221D5028221E502922CB
:1019400023C024F022C023F021C022F0216A2050BD
:1019500025C01BF01C6A1B26000E1C22820E1B24B5
:101960002A6EFF0E1C202B6ECBEF0CF0D890263683
:1019700027362836293624AEC0EF0CF0C2EF0CF023
:10198000C3EF0CF02680D890213622362336243639
:101990002A06D8A02B0628AED0EF0CF0D2EF0CF020
:1019A000B6EF0CF0000E206E24AED9EF0CF0DBEF9A
:1019B0000CF0FFEF0CF0FF0E21141B6EFF0E221433
:1019C0001C6EFF0E23141D6E7F0E24141E6E1B5002
:1019D0001C101D101E10D8B4F0EF0CF0F2EF0CF03C
:1019E000F6EF0CF0010E206EFFEF0CF026A0FBEFDF
:1019F0000CF0FDEF0CF0FFEF0CF0F2EF0CF02050CC
:101A0000D8B405EF0DF007EF0DF02BEF0DF0010E40
:101A10002626000E27222822292229A012EF0DF0C7
:101A200014EF0DF02BEF0DF026C01BF027C01CF0BB
:101A300028C01DF029C01EF01E341E321D321C327B
:101A40001B321BC026F01CC027F01DC028F01EC092
:101A500029F02A4A2B2A2BBE36EF0DF02B5008E135
:101A60002A28D8A036EF0DF038EF0DF042EF0DF038
:101A7000000E266E000E276E800E286E7F0E296ED9
:101A800070EF0DF02BBE4FEF0DF02B5006E12A0446
:101A9000D8B04DEF0DF04FEF0DF05BEF0DF0000EF5
:101AA000266E000E276E000E286E000E296E000EA8
:101AB0001F6E70EF0DF02AC025F0FF0E2616FF0EE8
:101AC00027167F0E2816000E291625A06AEF0DF0A6
:101AD0006CEF0DF06DEF0DF0288ED8902530296E4B
:101AE0001F50291226C013F027C014F028C015F08B
:101AF00029C016F012003750800B446E375037243F
:101B00004B6E36AE86EF0DF088EF0DF089EF0DF0DD
:101B10004B804B50D8B48FEF0DF091EF0DF0A6EF46
:101B20000DF04B28D8A497EF0DF099EF0DF0A1EF31
:101B30000DF0000E346E000E356E000E366E000E87
:101B4000376E368E000E376EAEEF0DF0000E346E2F
:101B5000000E356E000E366E000E376E3B50800B59
:101B6000441A3B503B244C6E3AAEB9EF0DF0BBEF3C
:101B70000DF0BCEF0DF04C804C50D8B4C2EF0DF01E
:101B8000C4EF0DF0D9EF0DF04C28D8A4CAEF0DF03A
:101B9000CCEF0DF0D4EF0DF0000E386E000E396E64
:101BA000000E3A6E000E3B6E3A8E000E3B6EE1EF79
:101BB0000DF0000E386E000E396E000E3A6E000EFB
:101BC0003B6E385039103A103B10D8A4EAEF0DF0B4
:101BD000ECEF0DF004EF0EF0000E346E000E356EDB
:101BE000000E366E000E376E800E36127F0E3712E4
:101BF0004450371234C034F035C035F036C036F0BA
:101C000037C037F047EF0FF04B50D8A40AEF0EF073
:101C10000CEF0EF016EF0EF0000E346E000E356E67
:101C2000000E366E000E376E47EF0FF04C504BC073
:101C30003CF03D6A3C5E000E3D5A7F0E3C24456EF2
:101C4000000E3D20466E34C040F035C041F036C035
:101C500042F037C043F0000E346E000E356E000EB9
:101C6000366E000E376E000E476E000E486E000E88
:101C7000496E000E4A6E000E4C6E77EF0EF04C501F
:101C8000D8B445EF0EF047EF0EF05EEF0EF0D890AF
:101C90004036413642364336D890343635363636BD
:101CA00037364AAE56EF0EF058EF0EF059EF0EF001
:101CB0003480D8904736483649364A363850405CEA
:101CC000395041583A5042583B504358D8A06BEFD6
:101CD0000EF06DEF0EF076EF0EF04A8C3850405E4D
:101CE0003950415A3A50425A3B50435A4C2A190EE5
:101CF0004C647DEF0EF07FEF0EF03FEF0EF04050A2
:101D0000411042104310D8B488EF0EF08AEF0EF065
:101D1000A2EF0EF04780A2EF0EF0D89034363536A1
:101D2000363637364AAE97EF0EF099EF0EF09AEF4F
:101D30000EF03480D8904736483649364A36450644
:101D4000D8A0460636AEA7EF0EF0A9EF0EF08DEF45
:101D50000EF0000E4C6E4AAEB0EF0EF0B2EF0EF089
:101D6000D6EF0EF0FF0E47143C6EFF0E48143D6E8A
:101D7000FF0E49143E6E7F0E4A143F6E3C503D10DC
:101D80003E103F10D8B4C7EF0EF0C9EF0EF0CDEF04
:101D90000EF0010E4C6ED6EF0EF034A0D2EF0EF026
:101DA000D4EF0EF0D6EF0EF0C9EF0EF04C50D8B4D1
:101DB000DCEF0EF0DEEF0EF002EF0FF0010E342636
:101DC000000E35223622372237A0E9EF0EF0EBEF76
:101DD0000EF002EF0FF034C03CF035C03DF036C0DD
:101DE0003EF037C03FF03F343F323E323D323C326E
:101DF0003CC034F03DC035F03EC036F03FC037F057
:101E0000454A462A46BE0DEF0FF0465008E14528E8
:101E1000D8A00DEF0FF00FEF0FF01AEF0FF0000E3C
:101E2000466E4568000E346E000E356E000E366E3E
:101E3000000E376E46BE27EF0FF0465006E1450410
:101E4000D8B025EF0FF027EF0FF035EF0FF0000EB1
:101E5000466E000E456E000E346E000E356E000E9E
:101E6000366E000E376E000E446E45C04BF04BA030
:101E70003CEF0FF03EEF0FF041EF0FF0368E42EFE8
:101E80000FF0369ED8904B30376EF8EF0DF0120001
:101E9000000E2C6E000E2D6E100E2E6E410E2F6E4B
:101EA00057C030F058C031F059C032F05AC033F04A
:101EB000FFEC15F0D8B05FEF0FF061EF0FF07DEFA2
:101EC0000FF057C02CF058C02DF059C02EF05AC05A
:101ED0002FF0000E306E000E316E800E326E410E0D
:101EE000336EFFEC15F0D8B078EF0FF07AEF0FF00B
:101EF0007DEF0FF0000E0001F86F000E2C6E000E4B
:101F00002D6E100E2E6E410E2F6E57C030F058C041
:101F100031F059C032F05AC033F0FFEC15F0D8A0C0
:101F200094EF0FF096EF0FF0D2EF0FF0010E0001DB
:101F3000F86F899AD7C0C7F0D8C0C8F0D9C0C9F027
:101F4000DAC0CAF0C351C75D386EC451C859396E82
:101F5000C551C9593A6EC651CA593B6E3B503A10E9
:101F60000BE1400E385C380E3958D8A0BAEF0FF0AC
:101F7000BCEF0FF0D2EF0FF0000EF86FC7C0C3F048
:101F8000C8C0C4F0C9C0C5F0CAC0C6F0898AB70EBF
:101F9000396EA10E386EC40EE82EFED7382EFCD74F
:101FA000392EFAD757C02CF058C02DF059C02EF05A
:101FB0005AC02FF0000E306E000E316E800E326E61
:101FC000410E336EFFEC15F0D8A0E9EF0FF0EBEF08
:101FD0000FF022EF10F057C02CF058C02DF059C070
:101FE0002EF05AC02FF0000E306E000E316E880EAB
:101FF000326E410E336EFFEC15F0D8B002EF10F0E8
:1020000004EF10F022EF10F0010E0001F86F010E46
:10201000E525E56F000EE621E66FE6BF19EF10F04B
:10202000590EE55D020EE659D8A019EF10F01BEF2E
:1020300010F022EF10F0000EE66F000EE56F899AA7
:1020400020EF10F057C02CF058C02DF059C02EF0E2
:102050005AC02FF0000E306E000E316E880E326EB8
:10206000410E336EFFEC15F0D8A039EF10F03BEFC6
:1020700010F072EF10F057C02CF058C02DF059C07E
:102080002EF05AC02FF0000E306E000E316E900E02
:10209000326E410E336EFFEC15F0D8B052EF10F0F7
:1020A00054EF10F072EF10F0010E0001F86F010E06
:1020B000E325E36F000EE421E46FE4BF69EF10F065
:1020C0002D0EE35D010EE459D8A069EF10F06BEF1F
:1020D00010F072EF10F0000EE46F000EE36F899ABB
:1020E00070EF10F057C02CF058C02DF059C02EF0F2
:1020F0005AC02FF0000E306E000E316E900E326E10
:10210000410E336EFFEC15F0D8A089EF10F08BEF85
:1021100010F0C2EF10F057C02CF058C02DF059C08D
:102120002EF05AC02FF0000E306E000E316E980E59
:10213000326E410E336EFFEC15F0D8B0A2EF10F006
:10214000A4EF10F0C2EF10F0010E0001F86F010EC5
:10215000E125E16F000EE221E26FE2BFB9EF10F07E
:10216000E25109E1790EE15DD8A0B9EF10F0BBEFC3
:1021700010F0C2EF10F0000EE26F000EE16F899ACE
:10218000C0EF10F057C02CF058C02DF059C02EF001
:102190005AC02FF0000E306E000E316E980E326E67
:1021A000410E336EFFEC15F0D8A0D9EF10F0DBEF45
:1021B00010F0F9EF10F0010E0001F86F010EDF25AD
:1021C000DF6F000EE021E06FE0BFF0EF10F0E051B4
:1021D00009E1100EDF5DD8A0F0EF10F0F2EF10F083
:1021E000F9EF10F0000EE06F000EDF6F899AF7EF45
:1021F00010F0120000C166F001C167F002C168F082
:1022000003C169F04DC066F04EC067F04FC068F082
:1022100050C069F0810E516EFF0E526E66C053F0D1
:1022200067C054F068C055F069C056F0180E1EEF34
:1022300011F0D8905632553254325332E82E19EFFD
:1022400011F0535051240001646F000E5220656F4D
:1022500065BF34EF11F0655109E1170E645DD8A038
:1022600034EF11F036EF11F040EF11F04DC04DF0AA
:102270004EC04EF04FC04FF050C050F004EF12F07F
:1022800065BF45EF11F047EF11F0B8EF11F064C0F2
:1022900051F0FF0E526EFF0E536E7F0E546E000E05
:1022A000556E516656EF11F05EEF11F05534553210
:1022B000543253325232512E51EF11F052C060F06D
:1022C00053C061F054C062F055C063F0000160512A
:1022D0006615516E61516715526E62516815536EE5
:1022E00063516915546E5150521053105410D8A4B4
:1022F0007CEF11F07EEF11F080EF11F036EF11F06E
:1023000066C051F067C052F068C053F069C054F025
:10231000200E90EF11F0D890543253325232513295
:10232000E82E8BEF11F05150521053105410D8B4C6
:102330009CEF11F09EEF11F0A6EF11F060516627AF
:10234000615167236251682363516923601D516E97
:10235000611D526E621D536E631D546E515066179F
:10236000525067175350681754506917FCEF11F01B
:1023700066C051F067C052F068C053F069C054F0B5
:10238000200EC8EF11F0D8905432533252325132ED
:10239000E82EC3EF11F05150521053105410D8A42E
:1023A000D4EF11F0D6EF11F0E0EF11F0000E666FF0
:1023B000000E676F000E686F000E696FFCEF11F082
:1023C000D8906635516E6735526E6835536E6935F3
:1023D000546E5150521053105410D8B4F2EF11F003
:1023E000F4EF11F0FCEF11F0000E666F000E676F56
:1023F000800E686FBF0E696F66C04DF067C04EF00B
:1024000068C04FF069C050F0120000019F51D96EB2
:10241000DA6ADFCFF6FF080EF76E0800F550250ADE
:10242000D8A415EF12F017EF12F0FBEF12F09F5146
:10243000D96EDA6ADF2A000EDC6F000EDB6FDBC0BC
:10244000F7F0DD69DE699F51D96EDA6ADFCFF6FFFA
:10245000080EF76E0800F5502E0AD8A432EF12F0DD
:1024600034EF12F042EF12F09F51D96EDA6ADF2A90
:102470009FC00BF0A0C00CF0B2EC17F00BC0DDF069
:102480000CC0DEF000019F51D96EDA6ADF50A86FF0
:10249000A8C0F6FF080EF76E0800F5CFA7F05CEFB6
:1024A00012F0A82B75EF12F06C0EA76F75EF12F0FB
:1024B000000EA76F75EF12F0A751A16FA26BA2518A
:1024C000000AD8B466EF12F058EF12F0A1514C0A8E
:1024D000D8B451EF12F02A0AD8B454EF12F00A0A15
:1024E000D8B451EF12F058EF12F0A8C0F6FF080E62
:1024F000F76E0800F550660AD8A481EF12F083EF5A
:1025000012F0F4EF12F0ADEF12F0A051D96EDA6ACA
:10251000DFCFA1F0040EDF26A151D96EDA6ADECF3B
:10252000A3F0DECFA4F0DECFA5F0DECFA6F0C2EFA1
:1025300012F0A051D96EDA6ADFCFA1F0040EDF26C7
:10254000A151D96EDA6ADECFA3F0DECFA4F0DECFE0
:10255000A5F0DECFA6F0C2EF12F0A751A16FA26BDB
:10256000A251000AD8B4B7EF12F0C2EF12F0A15195
:102570004C0AD8B499EF12F0200AD8B485EF12F0C3
:10258000C2EF12F09F51D96EDA6AA829DF6EDEEF32
:1025900012F09EC06AF0A3C06BF0A4C06CF0A5C09E
:1025A0006DF0A6C06EF0A8C0F6FF080EF76E08002A
:1025B000F5CF6FF012EC04F00CEF13F0A8C0F6FFAB
:1025C000080EF76E0800F550A16FA26BA251000A29
:1025D000D8B4EDEF12F0F4EF12F0A151660AD8B4BE
:1025E000C9EF12F0F4EF12F000019F51D96EDA6AD0
:1025F000DF2A0CEF13F09F51D96EDA6ADFCFF6FFB6
:10260000080EF76E0800F550076E086A9EC009F0C4
:1026100000EC17F0F4EF12F01200000E0001CF6F83
:10262000000ED06F000ED16F000ED26F000ECB6F78
:10263000000ECC6F000ECD6F000ECE6F000E616FDE
:10264000000E606FBFEF13F0000E6DEC1AF005C0C6
:10265000E7F006C0E8F0E7C005F0E8C006F0076A5A
:10266000086A000EFBEC13F005C013F006C014F06E
:1026700007C015F008C016F00A0E176E280E186E67
:10268000A00E196E3B0E1A6E66EC0BF013C0D3F061
:1026900014C0D4F015C0D5F016C0D6F05E0E096E89
:1026A000BA0E0A6E210E0B6EC00E0C6ED3C005F072
:1026B000D4C006F0D5C007F0D6C008F006EC09F08B
:1026C00005C034F006C035F007C036F008C037F05A
:1026D0004E0E386E620E396E900E3A6E3E0E3B6EA6
:1026E0007BEC0DF034C062F035C063F036C064F0AE
:1026F00037C065F0CFC02CF0D0C02DF0D1C02EF087
:10270000D2C02FF062C030F063C031F064C032F04C
:1027100065C033F0FFEC15F0D8B091EF13F093EFF4
:1027200013F09BEF13F062C0CFF063C0D0F064C031
:10273000D1F065C0D2F062C02CF063C02DF064C04F
:102740002EF065C02FF0CBC030F0CCC031F0CDC042
:1027500032F0CEC033F0FFEC15F0D8B0B2EF13F08A
:10276000B4EF13F0BCEF13F062C0CBF063C0CCF059
:1027700064C0CDF065C0CEF00001604B612B4D50C0
:10278000605D6151800A516E4E50800A5158D8A048
:10279000CCEF13F0CEEF13F024EF13F0CBC030F0FA
:1027A000CCC031F0CDC032F0CEC033F0CFC02CF071
:1027B000D0C02DF0D1C02EF0D2C02FF08CEC19F08B
:1027C0002CC034F02DC035F02EC036F02FC037F0BD
:1027D000000E386E000E396E000E3A6E400E3B6EE3
:1027E0007BEC0DF034C04DF035C04EF036C04FF0EC
:1027F00037C050F012000D6E0D50D8B402EF14F037
:1028000004EF14F026EF14F008BE0BEF14F009EFFC
:1028100014F026EF14F005C009F006C00AF007C056
:102820000BF008C00CF0091E0A1E0B1E0C1E092A14
:10283000000E0A220B220C2209C00FF00AC010F071
:102840000BC011F00CC012F02EEF14F005C00FF009
:1028500006C010F007C011F008C012F005500610B5
:1028600007100810D8A437EF14F039EF14F043EF35
:1028700014F0000E056E000E066E000E076E000EC0
:10288000086ED4EF14F0960E0E6E4DEF14F00E2A73
:10289000D8901232113210320F32000E0F14096E1E
:1028A000000E10140A6E000E11140B6EFE0E1214A0
:1028B0000C6E09500A100B100C10D8A462EF14F023
:1028C00064EF14F047EF14F072EF14F00E2A010ECB
:1028D0000F26000E102211221222D890123211322D
:1028E00010320F32000E0F14096E000E10140A6E13
:1028F000000E11140B6EFF0E12140C6E09500A100C
:102900000B100C10D8A487EF14F089EF14F066EFC9
:1029100014F091EF14F00E06D8900F3610361136E1
:10292000123611BE96EF14F098EF14F0A0EF14F0E9
:10293000020E0E609EEF14F0A0EF14F08BEF14F077
:102940000EB0A5EF14F0A7EF14F0A8EF14F0119E4D
:10295000D8900E320EC009F00A6A0B6A0C6A09C0E0
:102960000CF00B6A0A6A096A09500F120A50101219
:102970000B5011120C5012120D50D8B4C2EF14F0BB
:10298000C4EF14F0CCEF14F008BECBEF14F0C9EF95
:1029900014F0CCEF14F0128E0FC005F010C006F04A
:1029A00011C007F012C008F0120061EC1BF0F28EAB
:1029B000F28C070E0F015B6F000E5C6F000E5D6FF7
:1029C000A5EC1BF0110E05EC18F07A0E0001C26F99
:1029D000C10EC16F810EE82EFED7C12FFCD7C22FCA
:1029E000FAD700D0898AB70E0001C26FA10EC16F5D
:1029F000C30EE82EFED7C12FFCD7C22FFAD700D0C6
:102A0000070E4E6ED00E4D6E0DEC13F04DC076F1EC
:102A10004EC077F14FC078F150C079F1CD0E096EFC
:102A2000CC0E0A6ECC0E0B6EBD0E0C6E76C105F090
:102A300077C106F078C107F079C108F006EC09F01B
:102A400005C034F006C035F007C036F008C037F0D6
:102A5000CD0E386ECC0E396ECC0E3A6E3D0E3B6EFE
:102A60007BEC0DF034C057F035C058F036C059F04B
:102A700037C05AF05C0E0001AD6F010EAE6F0F0E45
:102A8000AF6F57C0B0F058C0B1F059C0B2F05AC0E3
:102A9000B3F0D0EC19F007EC1BF00009D8B453EFF9
:102AA00015F055EF15F05BEF15F05C0E066E010E9C
:102AB000076EC3EC1AF048EC0FF00001F851D8A4EF
:102AC00064EF15F066EF15F06AEF15F0FCEC18F006
:102AD0006BEF15F0899A040E0001C26F0C0EC16FE6
:102AE000330EE82EFED7C12FFCD7C22FFAD700D065
:102AF00000EF15F026EF00F0073408340E6E0E508C
:102B0000D8A485EF15F087EF15F091EF15F0000EC2
:102B1000056E000E066E000E076E000E086EFEEFCC
:102B200015F005C009F006C00AF007C00BF008C098
:102B30000CF0200EA1EF15F0D8900C320B320A32B7
:102B40000932E82E9CEF15F009500D6E078EFF0E2E
:102B50000516FF0E0616FF0E0716000E0816960E37
:102B60000E5E0EBEB8EF15F0B6EF15F0CEEF15F015
:102B70000E50800A970FD8B0C0EF15F0C2EF15F0D5
:102B8000C4EF15F087EF15F0D890083207320632FF
:102B900005320E3EC4EF15F0E6EF15F01F0E0E6481
:102BA000D4EF15F0D6EF15F0DEEF15F087EF15F046
:102BB000D89005360636073608360E060E50D8A4CD
:102BC000E4EF15F0E6EF15F0D8EF15F00D50D8B49E
:102BD000ECEF15F0EEEF15F0F6EF15F0081E071EFE
:102BE000061E056C000E06220722082205C005F00D
:102BF00006C006F007C007F008C008F01200000E7B
:102C00002C14346E000E2D14356E800E2E14366E7C
:102C10007F0E2F14376E3450351036103710D8A46D
:102C200014EF16F016EF16F01EEF16F0000E2C6ED5
:102C3000000E2D6E000E2E6E000E2F6E000E301444
:102C4000346E000E3114356E800E3214366E7F0EE7
:102C50003314376E3450351036103710D8A433EF94
:102C600016F035EF16F03DEF16F0000E306E000E48
:102C7000316E000E326E000E336E2FAE42EF16F044
:102C800044EF16F04DEF16F02C6C2D1ED8B02D2A07
:102C90002E1ED8B02E2A800E2F5633AE52EF16F0CD
:102CA00054EF16F05DEF16F0306C311ED8B0312ABB
:102CB000321ED8B0322A800E3356000E2C1A000E67
:102CC0002D1A000E2E1A800E2F1A000E301A000E2A
:102CD000311A000E321A800E331A30502C5C3150EB
:102CE0002D5832502E5833502F58D8B07AEF16F056
:102CF0007CEF16F07FEF16F0D89080EF16F0D880BA
:102D0000120004C10FF005C110F006C111F007C197
:102D100012F005C00FF006C010F007C011F008C097
:102D200012F00FC009F010C00AF011C00BF012C071
:102D30000CF0180EA1EF16F0D8900C320B320A32BC
:102D40000932E82E9CEF16F009500D6E0E6A0D50F8
:102D50000E10D8A4AEEF16F0B0EF16F0D0EF16F0CC
:102D6000D8900F34096E10340A6E11340B6E123481
:102D70000C6E09500A100B100C10D8A4C2EF16F0FC
:102D8000C4EF16F0CAEF16F0000E066E020E056EC6
:102D9000FFEF16F0000E066E030E056EFFEF16F045
:102DA0000D280E10D8A4D7EF16F0D9EF16F0FBEFD0
:102DB00016F00FC009F010C00AF011C00BF012C0DD
:102DC0000CF0090ED89009360A360B360C36E82E70
:102DD000E2EF16F009500A100B100C10D8B4F3EF04
:102DE00016F0F6EF16F0010EF7EF16F0000E056E76
:102DF000066AFFEF16F0000E066E040E056E120056
:102E00000950D8B406EF17F008EF17F010EF17F0DD
:102E10000950D8A40EEF17F010EF17F015EF17F0C8
:102E20000750DDEC1BF05CEF17F00950D96EDA6A41
:102E30000A0ED926DE50DE10D8B421EF17F023EFAA
:102E400017F03CEF17F00950D96EDA6A0A0ED9264E
:102E50000950E16EE26A030EE126DE50E65CE650C0
:102E6000800A0E6EDE50800A0E58D8B03AEF17F086
:102E70003CEF17F05CEF17F00950D96EDA6A030ED9
:102E8000D926DECF0AF0DDCF0BF00950D96EDA6A11
:102E9000DECF0CF0DDCF0DF00A500C24D96E0B50B4
:102EA0000D20DA6E07C0DFFF0950D96EDA6A030E13
:102EB000D926DE2A000EDD221200000E05140D6E4A
:102EC000000E06140E6E800E07140F6E7F0E08148F
:102ED000106E0D500E100F101010D8A472EF17F0D6
:102EE00074EF17F07CEF17F0000E056E000E066E03
:102EF000000E076E000E086E000E09140D6E000E17
:102F00000A140E6E800E0B140F6E7F0E0C14106ED2
:102F10000D500E100F101010D8A491EF17F093EF72
:102F200017F09BEF17F0000E096E000E0A6E000EF0
:102F30000B6E000E0C6E095005180FE10A500618B2
:102F40000CE10B50071809E10C500818D8B4ABEF8E
:102F500017F0ADEF17F0B0EF17F0D890B1EF17F012
:102F6000D8801200000E0F6E000E0E6E0B50D96E40
:102F7000DA6ADFCFF6FF080EF76E0800F5502A0A6E
:102F8000D8A4C5EF17F0C7EF17F0EDEF17F00B500F
:102F9000D96EDA6ADF2A0C50D96EDA6A020EDF26A1
:102FA000DF5CD96EDA6ADECF0EF0DECF0FF000EF15
:102FB00018F00EC005F00FC006F0000E086E0A0EE5
:102FC000076E2FEC1BF00D5005240E6E000E062030
:102FD0000F6E0B50D96EDA6ADF2A0B50D96EDA6A9F
:102FE000DFCFF6FF080EF76E0800F550D00F0D6E1C
:102FF000090E0D64FEEF17F000EF18F0D9EF17F08F
:103000000EC00BF00FC00CF012000B6E8A920C0E6B
:10301000076E000E7EEC1BF0000E076E040E7EECB9
:103020001BF0030E076E030E7EEC1BF0160E076EF0
:10303000060E7EEC1BF00BC007F0050E7EEC1BF0BD
:10304000000E076E010E7EEC1BF0010E076E110ED6
:103050007EEC1BF00F0E076E000E7EEC1BF00A0ECE
:10306000076E100E086E10EC1AF00A0E076E0A0EAC
:10307000086E10EC1AF099EC1BF08A821200AE0E6A
:10308000F66E370EF76E000EF86E01EE6AF010EE77
:103090000CF00900F5CFEEFFE550E150FAE1F40E37
:1030A000F66E370EF76E000EF86E00EEFBF010EEC7
:1030B00005F00900F5CFEEFFE550E150FAE101EE31
:1030C00000F06A0EEE6AE806FDE100EEC3F0380E8D
:1030D000EE6AE806FDE15A6A596A586A576A5B90D7
:1030E0005B92000EF86E0001D5EF14F019BE7DEF73
:1030F00018F07BEF18F081EF18F0000E196E000E3B
:10310000186E000E1C6E000E1B6E91EF18F0000E74
:10311000086E200E076E15C009F000EC17F01B4A70
:103120001C2A18501B5C1C50800A1A6E1950800A09
:103130001A58D8A09EEF18F0A0EF18F087EF18F0FB
:1031400016C00FF017C010F015C011F0F0EC19F018
:10315000120008BEAEEF18F0B0EF18F0BAEF18F09A
:1031600005C005F006C006F007C007F008C008F06B
:10317000D3EF18F005C009F006C00AF007C00BF045
:1031800008C00CF0091E0A1E0B1E0C1E092A000E98
:103190000A220B220C2209C005F00AC006F00BC05F
:1031A00007F00CC008F0120007C00EF008C00FF0C6
:1031B00005C00CF006C00DF0EEEF18F00EC0D9FF00
:1031C0000FC0DAFFDF500B6E0E4A0F2A0CC0D9FF7A
:1031D0000DC0DAFF0BC0DFFF0C4A0D2A0906D8A08C
:1031E0000A06092806E10A28D8A4F9EF18F0FBEF2F
:1031F00018F0DEEF18F0120052EC1BF0E806D8A42D
:1032000004EF19F006EF19F020EF19F08CEC1BF029
:103210000001FF6F610EFF19D8A411EF19F013EF31
:1032200019F016EF19F0898A20EF19F0620EFF19D4
:10323000D8A41DEF19F01FEF19F020EF19F0899AAB
:103240001200056E000E066E000E066E05AE2BEF28
:1032500019F02DEF19F030EF19F08B8231EF19F0E2
:103260008B92D89005368A84140EE82EFED78A9465
:10327000140EE82EFED7062A070E066442EF19F058
:1032800044EF19F026EF19F01200010E0001D725C6
:10329000D76F000ED821D86F000ED921D96F000E3C
:1032A000DA21DA6FEB51EC11D8B459EF19F05BEF7A
:1032B00019F068EF19F002D868EF19F00500FA6EFE
:1032C000EB51FD6EEC51FE6EF850FF6EFA5012009D
:1032D0001200000E066E000E056E000E066ED890EF
:1032E00005368A84040EE82EFED781A67AEF19F0FF
:1032F0007CEF19F07DEF19F005808A94040EE82E1A
:10330000FED7062A070E066488EF19F08AEF19F037
:103310006FEF19F005501200000E301A000E311A2E
:10332000000E321A800E331A2CC005F02DC006F0A4
:103330002EC007F02FC008F030C009F031C00AF0ED
:1033400032C00BF033C00CF006EC09F005C02CF0D5
:1033500006C02DF007C02EF008C02FF01200AAC042
:10336000ACF0BCEF19F0A9C09EF0AC0E00019F6F4D
:10337000ABC0A0F005EC12F0ACC0F6FF080EF76E83
:103380000800F5500009D8A4C8EF19F0CAEF19F0E9
:10339000B3EF19F0000E0001AA6F000EA96F120022
:1033A000B00E0001B46FADC0B5F0AEC0B6F0000E07
:1033B000B96F000EB86F000EC06F000EBF6FB50E74
:1033C000A96FAFC0AAF0B40EAB6FAFEC19F000015B
:1033D000B851AD25D96EB951AE21DA6EDF6A12004F
:1033E000000E146E000E136EFFEF19F012C007F0FE
:1033F000086A11C009F000EC17F0134A142A1350A0
:103400000F24D96E14501020DA6EDF50126E125055
:10341000D8A40DEF1AF00FEF1AF0F6EF19F0120022
:103420008B940850200921EC19F0000E0A6E075009
:103430000A24096E09C0F6FF080EF76E0800F55061
:1034400021EC19F00A2A040E0A6429EF1AF02BEF76
:103450001AF017EF1AF08B84140EE82EFED7120024
:10346000080EB86E900EAB6E240EAC6EE10EAF6E11
:10347000040EB06E000E056E000E066EECEC1BF036
:10348000000E056E000E066EE7EC1BF0000E056EDA
:10349000000E066EF1EC1BF0000E0001FA6F120038
:1034A00005C009F006C00AF0072A0704086E08C024
:1034B000F6FF080EF76E09C0D9FF0AC0DAFF094A05
:1034C0000A2A0800F5CFDFFFDF50D8A46AEF1AF010
:1034D0006CEF1AF054EF1AF01200096E09C007F0F1
:1034E00007460746C2500718830B0718C26EC280F2
:1034F000C282C2B27EEF1AF080EF1AF079EF1AF0B2
:10350000C450086E076AC3500724056E000E0820D9
:10351000066E12009E90EDC001F0EEC002F01BECB2
:103520001BF00001E94BEA2BE80EE95D030EEA59B6
:10353000D8A09DEF1AF09FEF1AF0A6EF1AF045EC15
:1035400019F0000E0001EA6F000EE96F120005503D
:10355000061007100810D8B4B0EF1AF0B2EF1AF046
:10356000BAEF1AF0000E051A000E061A000E071A1E
:10357000800E081A05C005F006C006F007C007F067
:1035800008C008F01200CEEF1AF006C0D9FF07C03D
:10359000DAFFDF50BBEC1BF0064A072A06C0D9FF52
:1035A00007C0DAFFDF50D8A4D8EF1AF0DAEF1AF02C
:1035B000C5EF1AF01200000E896E000E8A6E000E22
:1035C0008B6EC70E926EFE0E936E870E946E040E77
:1035D0000F015D6F3E0E5C6F070E5B6F000E856E18
:1035E000F18E1200000ECC6ED10ECF6E200ECE6E7C
:1035F000CECFEDF0CFCFEEF09E909D80FE0E056E0B
:10360000370E066EE2EC1BF0010ECD6E1200000EBE
:10361000056E9EA80EEF1BF010EF1BF019EF1BF0CC
:10362000ACAA15EF1BF017EF1BF019EF1BF0010E02
:10363000056E05501200CDA420EF1BF022EF1BF009
:103640002AEF1BF0CD900250CF6E01C0CEFFCD808F
:103650002EEF1BF00250CF6E01C0CEFF12000550BE
:103660000702F3CF09F0F4CF0AF005500802F35037
:103670000A2606500702F3500A2609C005F00AC0C0
:1036800006F01200700ED36E000ED26E800E9B6E8E
:10369000000EB56ED2AE4FEF1BF051EF1BF04AEFAC
:1036A0001BF01200F6EC1BF0400AD8A45AEF1BF0F6
:1036B0005CEF1BF05FEF1BF0010E60EF1BF0000EE4
:1036C0001200FDEC1BF0DBEC1AF042EC1BF0D0EC2E
:1036D0001BF0F2EC1AF0B0EC1BF030EC1AF0120018
:1036E000076E8B94075021EC19F069EC19F0086E05
:1036F0008B84140EE82EFED708501200086E8B94AF
:103700000850200921EC19F0075021EC19F08B84A6
:10371000140EE82EFED712008B94610E21EC19F0E6
:1037200069EC19F0076E8B84140EE82EFED7075053
:103730001200700E076E070E7EEC1BF0E10EC6EC59
:103740001BF0E20EC6EC1BF012009492939494943A
:103750009386939294808A948B948B928A9212008F
:10376000000EC16E870EC06E000EC36E000EC46EDA
:10377000010EC26E1200056E9EA8C1EF1BF0C3EFD2
:103780001BF0BCEF1BF005C0ADFF1200076E8B9461
:10379000075021EC19F08B84140EE82EFED712008E
:1037A000000E976E000E906E000E916E1200CDCC42
:1037B000CC3DCDCCCC3D4E62903E066E0650BBEC6F
:1037C0001BF0120005C0EBF006C0ECF0120005C0C3
:1037D000F3F006C0F4F0120005C0F5F006C0F6F0F4
:1037E000120005C0F1F006C0F2F01200070E70ECF6
:0937F0001BF0120062006100638D
:0637FA00D09E1200120037
:020000040020DA
:08000000FFFFFFFFFFFFFFFF00
:020000040030CA
:0E00000023225E3CFFD185FF0FC00FE00F40B2
:00000001FF
