:0400000071EF00F0AC
:100008005B82FACF01F0FBCF02F0D9CF03F0DACF51
:1000180004F0F0A612EF00F014EF00F067EF00F024
:10002800F0A019EF00F01BEF00F067EF00F0F0A070
:1000380020EF00F022EF00F064EF00F04650D8A463
:1000480028EF00F02AEF00F064EF00F04250431070
:10005800D8B431EF00F033EF00F05BEF00F0D6CF0B
:1000680044F0000ED76E000ED66E5F0E4224D96E95
:10007800000E4320DA6E44C0DFFF424A432AF1AA49
:1000880048EF00F04BEF00F0F18A4CEF00F0F19AE6
:10009800F2A451EF00F053EF00F064EF00F04206D5
:1000A800D8A04306010E466EF09664EF00F0F29475
:1000B800000ED76E000ED66E424A432A64EF00F057
:1000C800F0905FEC0DF004C0DAFF03C0D9FF02C066
:0E00D800FBFF01C0FAFF5B92110003EF0DF079
:1008000000010000000A00000064000000E803008E
:100810000010270000A086010040420F008096983B
:100820000000E1F50500CA9A3B010000001000003D
:100830000000010000001000000000010000001096
:100840000000000001000000103031323334353632
:1008500037383961626364656600434F4449474FE6
:10086000204952203D2000434F4D414E444F31001E
:10087000434F4D414E444F3200434F4D414E444F44
:100880003300536F6E3A2000256C78002564000A0F
:10089000000D00001650800B1F6E16501624256E9A
:1008A00015AE55EF04F057EF04F058EF04F0258033
:1008B0002550D8B45EEF04F060EF04F073EF04F05D
:1008C0002528D8A466EF04F068EF04F070EF04F078
:1008D000000E136E000E146E000E156E000E166ED6
:1008E000158E7BEF04F0000E136E000E146E000EDA
:1008F000156E000E166E1A50800B1F1A1A501A240D
:10090000246E19AE86EF04F088EF04F089EF04F04E
:1009100024802450D8B48FEF04F091EF04F0A4EFBA
:1009200004F02428D8A497EF04F099EF04F0A1EF85
:1009300004F0000E176E000E186E000E196E000EF9
:100940001A6E198EACEF04F0000E176E000E186EC2
:10095000000E196E000E1A6E2450D8B4B2EF04F0D7
:10096000B4EF04F0BCEF04F02550D8A4BAEF04F0C3
:10097000BCEF04F0C6EF04F0000E136E000E146E10
:10098000000E156E000E166E5EEF06F01950130283
:10099000F3CF2AF0F4CF2BF02A50206E216A226A7E
:1009A000236A2B50266E276A286A296A1850140277
:1009B000F3CF2AF0F4CF2BF02A502026000E21226C
:1009C000222223222B502626000E272228222922EB
:1009D00017501502F3CF2AF0F4CF2BF02A5020261F
:1009E000000E2122222223222B502626000E27220F
:1009F0002822292222C023F021C022F020C021F089
:100A0000206A17501402F3CF2AF0F4CF2BF02A50AB
:100A100020262B502122000E2222000E23221850C5
:100A20001302F3CF2AF0F4CF2BF02A5020262B50BC
:100A30002122000E2222000E232222C023F021C0F8
:100A400022F020C021F0206A17501302F3CF2AF0C1
:100A5000F4CF2BF02A5020262B502122000E2222E8
:100A6000000E232219501402F3CF2AF0F4CF2BF0FA
:100A70002A5026262B502722000E2822000E29223B
:100A800018501502F3CF2AF0F4CF2BF02A50262667
:100A90002B502722000E2822000E29221950150261
:100AA000F3CF2AF0F4CF2BF02A501B6E2B501C6E84
:100AB0001D6A1E6A1DC01EF01CC01DF01BC01CF06C
:100AC0001B6A1B5026261C5027221D5028221E5010
:100AD000292220C01BF021C01CF022C01DF023C021
:100AE0001EF0190E79EF05F0D8901E321D321C321F
:100AF0001B32E82E74EF05F01B5026261C502722CF
:100B00001D5028221E50292222C023F021C022F08D
:100B100020C021F0206A245025C01BF01C6A1B262F
:100B2000000E1C22820E1B242A6EFF0E1C202B6E30
:100B3000AFEF05F0D890263627362836293623AE73
:100B4000A4EF05F0A6EF05F0A7EF05F02680D890FA
:100B500020362136223623362A06D8A02B0628AE88
:100B6000B4EF05F0B6EF05F09AEF05F0000E246E35
:100B700023AEBDEF05F0BFEF05F0E3EF05F0FF0E8C
:100B800020141B6EFF0E21141C6EFF0E22141D6E0E
:100B90007F0E23141E6E1B501C101D101E10D8B487
:100BA000D4EF05F0D6EF05F0DAEF05F0010E246E74
:100BB000E3EF05F026A0DFEF05F0E1EF05F0E3EF4E
:100BC00005F0D6EF05F02450D8B4E9EF05F0EBEFCF
:100BD00005F00FEF06F0010E2626000E2722282230
:100BE000292229A0F6EF05F0F8EF05F00FEF06F047
:100BF00026C01BF027C01CF028C01DF029C01EF025
:100C00001E341E321D321C321B321BC026F01CC08B
:100C100027F01DC028F01EC029F02A4A2B2A2BBE1F
:100C20001AEF06F02B5008E12A28D8A01AEF06F098
:100C30001CEF06F026EF06F0000E266E000E276E63
:100C4000800E286E7F0E296E54EF06F02BBE33EF18
:100C500006F02B5006E12A04D8B031EF06F033EF4E
:100C600006F03FEF06F0000E266E000E276E000E17
:100C7000286E000E296E000E1F6E54EF06F02AC07B
:100C800025F0FF0E2616FF0E27167F0E2816000EE3
:100C9000291625A04EEF06F050EF06F051EF06F0B2
:100CA000288ED8902530296E1F50291226C013F0A7
:100CB00027C014F028C015F029C016F012001F0E2E
:100CC000286E000E296E1FEF08F0250E2F18D8B4DD
:100CD0006CEF06F06EEF06F078EF06F01BC0D9FF60
:100CE0001CC0DAFF2FC0DFFF1B4A1C2A1FEF08F0D1
:100CF000000E2E6E82EF06F02E8882EF06F02E8E0A
:100D0000A2EF06F01DC0F6FF1EC0F7FF1D4A1E2A07
:100D10000800F5CF2FF02F50000AD8B430EF08F0BC
:100D2000640AD8B4A2EF06F00D0AD8B4A2EF06F018
:100D3000050AD8B47CEF06F0140AD8B47FEF06F0A9
:100D40001FEF08F02EBEA7EF06F0A9EF06F0E6EFC2
:100D500006F02EA8AEEF06F0B0EF06F0C2EF06F0F8
:100D600028C0D9FF29C0DAFFDECF2AF0DECF2BF072
:100D7000DECF2CF0DECF2DF0040E2826000E292227
:100D8000D3EF06F028C0D9FF29C0DAFFDECF2AF062
:100D9000DDCF2BF0000E2BBEFF0E2C6E2D6E020E43
:100DA0002826000E29222DBEDAEF06F0D8EF06F035
:100DB00069EF07F0030E2E122D1E2C1E2B1E2A6C1F
:100DC000000E2B222C222D2269EF07F02EA8EBEF2C
:100DD00006F0EDEF06F0FFEF06F028C0D9FF29C0BE
:100DE000DAFFDECF2AF0DECF2BF0DECF2CF0DECF25
:100DF0002DF0040E2826000E292269EF07F028C0E6
:100E0000D9FF29C0DAFFDECF23F0DDCF24F023C0E5
:100E10002AF024C02BF02C6A2D6A020E2826000E20
:100E2000292269EF07F0010E2F6E2F50040D010EDD
:100E3000F324F66E080EF420F76E0900F5502A5CD4
:100E40000900F5502B580900F5502C580900F550B1
:100E50002D58D8B02EEF07F030EF07F032EF07F043
:100E600075EF07F02F2A0A0E2F18D8A43AEF07F0D3
:100E70003CEF07F015EF07F075EF07F0010E2F6E4E
:100E80002F50040D290EF324F66E080EF420F76E91
:100E90000900F5502A5C0900F5502B580900F5505F
:100EA0002C580900F5502D58D8B059EF07F05BEFDA
:100EB00007F05DEF07F075EF07F02F2A080E2F18E7
:100EC000D8A465EF07F067EF07F040EF07F075EF84
:100ED00007F02E50800B000AD8B413EF07F0800AF9
:100EE000D8B43EEF07F075EF07F02EC023F0030EE5
:100EF0002316D8B47EEF07F080EF07F088EF07F0F5
:100F00001BC0D9FF1CC0DAFF2D0EDF6E1B4A1C2A46
:100F10002FC026F0276A12EF08F026C023F027C062
:100F200024F0D89023362436D89023362436010E68
:100F30002324F66E080E2420F76E0900F5CF09F081
:100F40000900F5CF0AF00900F5CF0BF00A00F5CF44
:100F50000CF02AC005F02BC006F02CC007F02DC005
:100F600008F0BCEC0BF005C012F006C013F007C08F
:100F700014F008C015F00A0E166E000E176E000E63
:100F8000186E000E196E0EEC0CF01250300F2F6E12
:100F90000AEF08F02AC005F02BC006F02CC007F0BD
:100FA0002DC008F026C023F027C024F0D8902336A7
:100FB0002436D89023362436290E2324F66E080EC4
:100FC0002420F76E0900F5CF09F00900F5CF0AF0EB
:100FD0000900F5CF0BF00A00F5CF0CF0BCEC0BF0DC
:100FE00005500F0B256E490E2524F66EF76A080E84
:100FF000F7220800F5CF2FF00AEF08F02E50800BF3
:10100000000AD8B48DEF07F0800AD8B4CAEF07F011
:101010000AEF08F01BC0D9FF1CC0DAFF2FC0DFFFAA
:101020001B4A1C2A2606D8A02706262806E12728C0
:10103000D8A41DEF08F01FEF08F0FEEF07F01DC069
:10104000F6FF1EC0F7FF1D4A1E2A0800F5CF2FF03D
:101050002F50D8A42EEF08F030EF08F065EF06F01F
:101060001BC0D9FF1CC0DAFF000EDF6E120016ECA9
:101070000DF0070E0F015B6F000E5D6FF28EF28CAC
:101080004604D8A446EF08F048EF08F028EF09F02E
:101090001BEC0AF069EC0BF011C03EF012C03FF0FF
:1010A00013C040F014C041F0820E066E080E076EA9
:1010B00087EC0CF0480E1B6E000E1C6E8C0E1D6E25
:1010C000080E1E6E42C01FF043C020F05FEC06F019
:1010D000480E066E000E076E87EC0CF0910E066E41
:1010E000080E076E87EC0CF08F0E066E080E076E6A
:1010F00087EC0CF0480E1B6E000E1C6E880E1D6EE9
:10110000080E1E6E3EC01FF03FC020F040C021F010
:1011100041C022F05FEC06F05A0E066E080E076E14
:1011200087EC0CF0480E066E000E076E87EC0CF094
:10113000910E066E080E076E87EC0CF08F0E066E91
:10114000080E076E87EC0CF0C50E3E180DE19D0EE3
:101150003F180AE11C0E401807E1810E4118D8A47F
:10116000B4EF08F0B6EF08F0C7EF08F089A6BBEFC0
:1011700008F0BEEF08F08986BFEF08F08996670E89
:10118000066E080E076E87EC0CF00BEF09F0A00E50
:101190003E180DE11D0E3F180AE1680E401807E1E8
:1011A000BF0E4118D8A4D7EF08F0D9EF08F0EAEF46
:1011B00008F089A8DEEF08F0E1EF08F08988E2EF97
:1011C00008F08998700E066E080E076E87EC0CF01A
:1011D0000BEF09F0A00E3E180DE11D0E3F180AE1BD
:1011E000680E401807E1BF0E4118D8A4FAEF08F0C6
:1011F000FCEF08F00BEF09F089AA01EF09F004EF0A
:1012000009F0898A05EF09F0899A790E066E080EB1
:10121000076E87EC0CF0000E3E6E000E3F6E000E67
:10122000406E000E416E290E3D6E960E3C6E7F0E96
:10123000E82EFED73C2EFCD73D2EFAD700F0000E4C
:10124000466E000E436E000E426EF19AF090F086EC
:10125000020E3D6EA00E3C6E920EE82EFED73C2E86
:10126000FCD73D2EFAD700D08AA039EF09F03CEF29
:1012700009F08A803DEF09F08A9040EF08F071EFA5
:1012800000F00D6E0D50D8B448EF09F04AEF09F0A8
:101290006CEF09F008BE51EF09F04FEF09F06CEF69
:1012A00009F005C009F006C00AF007C00BF008C03D
:1012B0000CF0091E0A1E0B1E0C1E092A000E0A2223
:1012C0000B220C2209C00FF00AC010F00BC011F065
:1012D0000CC012F074EF09F005C00FF006C010F05A
:1012E00007C011F008C012F00550061007100810D2
:1012F000D8A47DEF09F07FEF09F089EF09F0000E27
:10130000056E000E066E000E076E000E086E1AEFD8
:101310000AF0960E0E6E93EF09F00E2AD890123254
:10132000113210320F32000E0F14096E000E10141D
:101330000A6E000E11140B6EFE0E12140C6E095084
:101340000A100B100C10D8A4A8EF09F0AAEF09F0AE
:101350008DEF09F0B8EF09F00E2A010E0F26000EEE
:10136000102211221222D8901232113210320F3272
:10137000000E0F14096E000E10140A6E000E1114E8
:101380000B6EFF0E12140C6E09500A100B100C108D
:10139000D8A4CDEF09F0CFEF09F0ACEF09F0D7EF0B
:1013A00009F00E06D8900F3610361136123611BEDF
:1013B000DCEF09F0DEEF09F0E6EF09F0020E0E6057
:1013C000E4EF09F0E6EF09F0D1EF09F00EB0EBEF32
:1013D00009F0EDEF09F0EEEF09F0119ED8900E3212
:1013E0000EC009F00A6A0B6A0C6A09C00CF00B6A9D
:1013F0000A6A096A09500F120A5010120B50111292
:101400000C5012120D50D8B408EF0AF00AEF0AF08F
:1014100012EF0AF008BE11EF0AF00FEF0AF012EF18
:101420000AF0128E0FC005F010C006F011C007F0D0
:1014300012C008F01200000E456ED2EF0AF0620EE4
:101440004524D96EDA6A000EDA22DF50386E385041
:10145000056E066A076A086A000E41EC09F005C0CD
:101460002CF006C02DF007C02EF008C02FF0CD0ED6
:10147000176ECC0E186E4C0E196E3F0E1A6E600E63
:101480004524D96EDA6A000EDA22DF50396E3950FF
:10149000056E066A076A086A000E41EC09F005C08D
:1014A00013F006C014F007C015F008C016F04AEC9F
:1014B00004F013C030F014C031F015C032F016C083
:1014C00033F0E7EC0AF0D8B068EF0AF06AEF0AF000
:1014D00074EF0AF0600E4524D96EDA6A000EDA2243
:1014E000000EDF6ED1EF0AF0600E4524D96EDA6A85
:1014F000000EDA22DF50386E3850056E066A076A31
:10150000086A000E41EC09F005C02CF006C02DF071
:1015100007C02EF008C02FF0CD0E176ECC0E186E3F
:101520004C0E196E3F0E1A6E620E4524D96EDA6AA1
:10153000000EDA22DF50396E3950056E066A076AEE
:10154000086A000E41EC09F005C013F006C014F063
:1015500007C015F008C016F04AEC04F013C030F0D4
:1015600014C031F015C032F016C033F0E7EC0AF0C9
:10157000D8B0BDEF0AF0BFEF0AF0C9EF0AF0600E75
:101580004524D96EDA6A000EDA22020EDF6ED1EF40
:101590000AF0600E4524D96EDA6A000EDA22010ED6
:1015A000DF6E452A010E4224386E000E4320396E4C
:1015B00045503A6E3B6A38503A5C39503B58D8A097
:1015C000E4EF0AF0E6EF0AF01FEF0AF01200000E57
:1015D0002C14346E000E2D14356E800E2E14366EC3
:1015E0007F0E2F14376E3450351036103710D8A4B4
:1015F000FCEF0AF0FEEF0AF006EF0BF0000E2C6E87
:10160000000E2D6E000E2E6E000E2F6E000E30148A
:10161000346E000E3114356E800E3214366E7F0E2D
:101620003314376E3450351036103710D8A41BEFF2
:101630000BF01DEF0BF025EF0BF0000E306E000EDF
:10164000316E000E326E000E336E2FAE2AEF0BF0AD
:101650002CEF0BF035EF0BF02C6C2D1ED8B02D2A93
:101660002E1ED8B02E2A800E2F5633AE3AEF0BF036
:101670003CEF0BF045EF0BF0306C311ED8B0312A47
:10168000321ED8B0322A800E3356000E2C1A000EAD
:101690002D1A000E2E1A800E2F1A000E301A000E70
:1016A000311A000E321A800E331A30502C5C315031
:1016B0002D5832502E5833502F58D8B062EF0BF0BF
:1016C00064EF0BF067EF0BF0D89068EF0BF0D88069
:1016D0001200C50E1B6E9D0E1C6E1C0E1D6E810E23
:1016E0001E6E000E456E99EF0BF01BC005F01CC07E
:1016F00006F01DC007F01EC008F0930E096E010E23
:101700000A6E000E0B6E010E0C6E52EC0CF0600EA9
:101710004524D96EDA6A000EDA22DF50156E1550B4
:1017200005181B6E06501C6E07501D6E08501E6E6D
:10173000452AFF0E156EFF0E166E42C017F043C00D
:1017400018F015501726165018224550196E1A6AAF
:101750001750195C18501A58D8A0B1EF0BF0B3EF1E
:101760000BF075EF0BF01BC011F01CC012F01DC088
:1017700013F01EC014F01200000E0D6E000E0E6E5F
:10178000000E0F6E000E106E09500A100B100C1098
:10179000D8B4CDEF0BF0CFEF0BF005EF0CF0010E4E
:1017A000116ED9EF0BF0D89009360A360B360C368D
:1017B000112A0CAEDEEF0BF0E0EF0BF0D3EF0BF0E5
:1017C000D8900D360E360F3610360950055C0A508B
:1017D00006580B5007580C500858D8A0F2EF0BF0E1
:1017E000F4EF0BF0FDEF0BF00950055E0A50065ABE
:1017F0000B50075A0C50085A0D80D8900C320B32FF
:101800000A320932112EE0EF0BF00DC005F00EC0C8
:1018100006F00FC007F010C008F0120016501710A5
:1018200018101910D8B417EF0CF019EF0CF049EF9D
:101830000CF0010E1A6E23EF0CF0D8901636173606
:10184000183619361A2A19AE28EF0CF02AEF0CF0C8
:101850001DEF0CF01650125C175013581850145806
:1018600019501558D8A037EF0CF039EF0CF041EFB4
:101870000CF01650125E1750135A1850145A195083
:10188000155AD89019321832173216321A2E2AEFFA
:101890000CF012C012F013C013F014C014F015C0F5
:1018A00015F01200000E0D6E000E0E6E000E0F6E83
:1018B000000E106E05A05FEF0CF061EF0CF069EF09
:1018C0000CF009500D260A500E220B500F220C501E
:1018D0001022D89009360A360B360C36D8900832CA
:1018E0000732063205320550061007100810D8A43A
:1018F0007CEF0CF07EEF0CF05AEF0CF00DC005F011
:101900000EC006F00FC007F010C008F012009DEFE7
:101910000CF006C0F6FF07C0F7FFF86A070EF76481
:1019200003D00800F55005D0F6CFE9FFF7CFEAFF66
:10193000EF5023EC0DF0064A072A06C0F6FF07C059
:10194000F7FFF86A070EF76403D00800F55005D0DA
:10195000F6CFE9FFF7CFEAFFEF500009D8A4B3EFC5
:101960000CF0B5EF0CF089EF0CF01200080EB86E19
:10197000800EAB6E240EAC6EA00EAF6E010EB06E7C
:10198000000E056E000E066E55EC0DF0000E056E95
:10199000000E066E50EC0DF0000E056E000E066E89
:1019A0005AEC0DF0000E476E1200000E896E000E0C
:1019B0008A6E000E8B6EC70E926EFE0E936E870EB1
:1019C000946E840E0F015D6F3C0E5C6F070E5B6FB3
:1019D000000E856EF18E120052505310D8B4F3EF02
:1019E0000CF0F5EF0CF002EF0DF002D802EF0DF065
:1019F0000500FA6E5250FD6E5350FE6EF850FF6EA9
:101A0000FA501200120000EE60F0460EEE6AE80690
:101A1000FDE100EE3EF0140EEE6AE806FDE15B909B
:101A20005B92000EF86E000137EF08F063EC0DF0EA
:101A3000D5EC0CF042EC0DF038EC0DF02EEC0DF086
:101A4000B6EC0CF01200056E9EA829EF0DF02BEFFE
:101A50000DF024EF0DF005C0ADFF1200000ED76EA3
:101A6000640ED66E640E5A6EF294D70ED56E1200C6
:101A7000F090F19ACA0E056E1A0E066E4BEC0DF040
:101A8000F0861200700ED36E000ED26E800E9B6E2A
:101A9000000EB56E120005C052F006C053F01200E1
:101AA00005C056F006C057F0120005C058F006C039
:101AB00059F0120005C054F006C055F01200F09025
:0C1AC000ECEC0CF01200D09E12001200A2
:020000040020DA
:08000000FFFFFFFFFFFFFFFF00
:020000040030CA
:0E00000021235E3CFFD181FF0FC00FE00F40B7
:00000001FF
