:040000001FEF00F0FE
:100008005182FACF4BF0FBCF4CF0F2AA0EEF00F082
:1000180010EF00F019EF00F0F2A415EF00F017EF61
:1000280000F019EF00F025EC04F04CC0FBFF4BC0CA
:0A003800FAFF5192110083EF04F06B
:10080000001111111111111111111100080EB86E02
:10081000900EAB6E240EAC6EE10EAF6E040EB06E99
:10082000000E4D6E000E4E6EB2EC04F0000E4D6EDA
:10083000000E4E6EADEC04F0000E4D6E000E4E6ECE
:10084000B7EC04F0000E4A6E1200F2943E50D76EE0
:100850003DC0D6FF3F504010D8B431EF04F033EF25
:1008600004F040EF04F002D840EF04F00500FA6E07
:100870003F50FD6E4050FE6EF850FF6EFA50120071
:100880001200D59C150ED76E9F0ED66ED650D7CFC0
:100890004FF0506A4FC050F04F6A4F103D6E5050AD
:1008A0003E6EF294F28A7C0E4D6E090E4E6EA8ECEE
:1008B00004F0900ED56E1200000E896E000E8A6E46
:1008C000000E8B6EC70E926EFE0E936E870E946EA8
:1008D000040E0F015D6F3E0E5C6F070E5B6F000E26
:1008E000856EF18E1200700ED36E000ED26E800EE9
:1008F0009B6E000EB56ED2AE80EF04F082EF04F076
:100900007BEF04F0120000EE01F04A0EEE6AE806FA
:10091000FDE151905192000EF86E000190EF04F04D
:100920009DEC04F0070E0F015B6F000E5C6F000E74
:100930005D6F99EF04F01FEF00F0BCEC04F05CEC8D
:1009400004F073EC04F041EC04F006EC04F0120047
:100950004DC03FF04EC040F012004DC043F04EC0BD
:1009600044F012004DC045F04EC046F012004DC09C
:0E09700041F04EC042F01200D09E1200120064
:020000040020DA
:08000000FFFFFFFFFFFFFFFF00
:020000040030CA
:0E00000023225E3CFFD185FF0FC00FE00F40B2
:00000001FF
