:04000000F5EF05F023
:10080000001111111111111111111100A3EC06F0B9
:10081000070E0F015B6F000E5C6F000E5D6F92861E
:10082000898A8A803D0E506EE10E4F6E400EE82E92
:10083000FED74F2EFCD7502EFAD7899A8A907AECA1
:1008400006F0110ED2EC04F0010E3E6E80B62BEFD6
:1008500004F02DEF04F044EF04F080A832EF04F030
:1008600034EF04F044EF04F02FEC05F036EC06F022
:10087000E806D8A43EEF04F040EF04F045EF04F0A2
:1008800006EC06F045EF04F0899A070E506E170E3D
:100890004F6E6A0EE82EFED74F2EFCD7502EFAD799
:1008A00000D026EF04F000EF00F0000E4E6E000EB8
:1008B0004D6E80A65EEF04F060EF04F06DEF04F083
:1008C00080B865EF04F067EF04F06DEF04F002EC20
:1008D00005F016EC06F097EF04F080B672EF04F026
:1008E00074EF04F059EF04F080A879EF04F07BEF87
:1008F00004F059EF04F04D4A4E2A3D0E4C6EE10EC5
:100900004B6E400EE82EFED74B2EFCD74C2EFAD75E
:100910002C0E4D1806E14E04D8A491EF04F093EF8D
:1009200004F095EF04F097EF04F059EF04F0120093
:10093000466E8A920C0E426E000E53EC06F0000ECC
:10094000426E040E53EC06F0030E426E030E53EC9F
:1009500006F0160E426E060E53EC06F046C042F04C
:10096000050E53EC06F0000E426E010E53EC06F03D
:10097000010E426E110E53EC06F00F0E426E000E89
:1009800053EC06F0060E426E100E436EA3EC05F01B
:10099000060E426E0A0E436EA3EC05F06EEC06F0F6
:1009A0008A821200466E8A92000E426E040E53EC4A
:1009B00006F0030E426E030E53EC06F0160E426E66
:1009C000060E53EC06F046C042F0050E53EC06F05E
:1009D000000E426E010E53EC06F00E0E426E000E3B
:1009E00053EC06F0060E426E100E436EA3EC05F0BB
:1009F000060E426E0A0E436EA3EC05F06EEC06F096
:100A00008A821200020E3E6E898A000E4A6E000E25
:100A1000496E000E4A6E000E496E3E50C3EC05F062
:100A2000040E486E0C0E476E340EE82EFED7472E8D
:100A3000FCD7482EFAD7494A4A2A4ABE29EF05F080
:100A40004A5009E10A0E495CD8A029EF05F02BEFC6
:100A500005F00DEF05F0110E98EC04F01200010EF8
:100A60003E6E898A000E4A6E000E496E000E4A6E76
:100A7000000E496E3E50C3EC05F0040E486E0C0E9D
:100A8000476E340EE82EFED7472EFCD7482EFAD7F5
:100A9000494A4A2A4ABE56EF05F04A5009E10A0E71
:100AA000495CD8A056EF05F058EF05F03AEF05F095
:100AB000110E98EC04F01200406E000E416E000E14
:100AC000416E40AE66EF05F068EF05F06BEF05F0A4
:100AD0008B826CEF05F08B92D89040368A84140E8E
:100AE000E82EFED78A94140EE82EFED7412A070E70
:100AF00041647DEF05F07FEF05F061EF05F0120036
:100B0000000E416E000E406E000E416ED8904036D1
:100B10008A84040EE82EFED781A691EF05F093EFAC
:100B200005F094EF05F040808A94040EE82EFED77D
:100B3000412A070E41649FEF05F0A1EF05F086EF13
:100B400005F0405012008B94435020095CEC05F0F6
:100B5000000E456E42504524446E44C0F6FF080E18
:100B6000F76E0800F5505CEC05F0452A040E45646C
:100B7000BCEF05F0BEEF05F0AAEF05F08B84140E74
:100B8000E82EFED71200446E9AEC06F00E0E426E6E
:100B9000000E53EC06F08B94A00E5CEC05F0445074
:100BA0005CEC05F08B848A823C0EE82EFED78A929C
:100BB0000F0E426E000E53EC06F01200000E896E0E
:100BC000000E8A6E000E8B6EC70E926EFE0E936E36
:100BD000870E946E040E0F015D6F3E0E5C6F070E64
:100BE0005B6F000E856EF18E120000EE60F01E0E3F
:100BF000EE6AE806FDE100EE01F03F0EEE6AE8065F
:100C0000FDE1000EF86E000106EF04F061EC06F065
:100C10003E6E3E04D8A40FEF06F011EF06F015EF7C
:100C200006F016EC06F055EC04F012008A803D0E3A
:100C3000416EE10E406E400EE82EFED7402EFCD7EE
:100C4000412EFAD78A90000E3E6E1200700ED36EBF
:100C5000000ED26E800E9B6E000EB56ED2AE33EFDC
:100C600006F035EF06F02EEF06F01200B3EC06F0BA
:100C7000400AD8A43EEF06F040EF06F043EF06F03E
:100C8000010E44EF06F0000E1200426E8B944250AB
:100C90005CEC05F080EC05F0436E8B84140EE82EBE
:100CA000FED743501200436E8B94435020095CECF6
:100CB00005F042505CEC05F08B84140EE82EFED754
:100CC00012008B94610E5CEC05F080EC05F0426E36
:100CD0008B84140EE82EFED742501200700E426E26
:100CE000070E53EC06F0E10E90EC06F0E20E90ECED
:100CF00006F0120094929394949493869392948025
:100D00008A948B948B928A921200000EC16E870E89
:100D1000C06E000EC36E000EC46E010EC26E1200D5
:100D2000426E8B9442505CEC05F08B84140EE82EDE
:100D3000FED71200700E426E070E53EC06F0E20E64
:100D400090EC06F01200DEEC05F026EC06F0ACECC0
:100D500006F085EC06F01200000E976E000E906E05
:0E0D6000000E916E1200070E45EC06F0120018
:020000040020DA
:08000000FFFFFFFFFFFFFFFF00
:020000040030CA
:0E00000023225E3CFFD185FF0FC00FE00F40B2
:00000001FF
