:0400000039EF00F0E4
:100008005C82D9CF49F0DACF4AF09EAA0EEF00F011
:1000180010EF00F033EF00F0DAEC05F0286E2B0E4D
:100028002924D96EDA6A000EDA2228C0DFFF292ACD
:100038001D0E296422EF00F024EF00F026EF00F0F7
:10004800000E296E2F0E2818D8A42DEF00F02FEFE0
:1000580000F032EF00F09D9A010E276E9E9A4AC07A
:0E006800DAFF49C0D9FF5C921100FEEF05F0EF
:100800000011111111111111111111636965723D5E
:0B08100000617065723D006F6E00001B
:10081C002B0E566E000E576E0B0E586E080E596E40
:10082C0077EC04F056505710D8B41FEF04F021EFBA
:10083C0004F042EF04F02B0E566E000E576E170E9E
:10084C00586E080E596E77EC04F056505710D8B409
:10085C0032EF04F034EF04F041EF04F08A80130E11
:10086C005B6E440E5A6E440EE82EFED75A2EFCD701
:10087C005B2EFAD700D08A902B0E566E000E576E58
:10088C00110E586E080E596E77EC04F05650571036
:10089C00D8B453EF04F055EF04F076EF04F02B0EC0
:1008AC00566E000E576E170E586E080E596E77EC7A
:1008BC0004F056505710D8B466EF04F068EF04F00B
:1008CC0075EF04F0898A130E5B6E440E5A6E440E5B
:1008DC00E82EFED75A2EFCD75B2EFAD700D0899A79
:1008EC001200B0EF04F056C04FF057C050F058C093
:1008FC0051F059C052F058C04BF059C04CF08AEC32
:10090C0005F04BC053F04CC054F0CAEC04F04F50FF
:10091C005010D8A494EF04F096EF04F09CEF04F080
:10092C0056C056F057C057F0C9EF04F0010E5624CC
:10093C004B6E000E57204C6E58C0F6FF59C0F7FF97
:10094C000800F5504D6E4E6A45EC05F04BC056F064
:10095C004CC057F056505710D8B4B7EF04F0B9EF5D
:10096C0004F0C5EF04F056C0D9FF57C0DAFFDF50D2
:10097C00D8A4C3EF04F0C5EF04F079EF04F0000E37
:10098C00566E000E576E120003EF05F04FC0D9FFE4
:10099C0050C0DAFFDF50D8B4D6EF04F0D8EF04F033
:1009AC00ECEF04F04FC0D9FF50C0DAFFDF50556EAA
:1009BC0051C0F6FF52C0F7FF0800F5505518D8B4D7
:1009CC00EAEF04F0ECEF04F0FFEF04F04FC0D9FFB6
:1009DC0050C0DAFFDF50556E51C0F6FF52C0F7FF22
:1009EC000800F550555C4F6E506AD8A0500614EFB5
:1009FC0005F04F4A502A514A522A5306D8A05406A1
:100A0C00532806E15428D8A40EEF05F010EF05F09A
:100A1C00CCEF04F0000E506E000E4F6E12000BEC7B
:100A2C0006F0070E0F015B6F000E5C6F000E5D6F22
:100A3C00400EF26E9E9A9D8AF28E2704D8A429EF5E
:100A4C0005F02BEF05F023EF05F00EEC04F0000E93
:100A5C00296E2B0E4B6E000E4C6E000E4E6E000E61
:100A6C004D6E000E506E1E0E4F6EA7EC05F0000E74
:100A7C00276E9E9A9D8A23EF05F039EF00F04BC04C
:100A8C00D9FF4CC0DAFF4D50DE18D8A450EF05F05A
:100A9C0052EF05F058EF05F04BC04BF04CC04CF04A
:100AAC006AEF05F04BC0D9FF4CC0DAFF4B4A4C2A19
:100ABC00DF50D8A464EF05F066EF05F045EF05F0C4
:100ACC00000E4B6E000E4C6E1200080EB86E900E9F
:100ADC00AB6E240EAC6EE10EAF6E040EB06E000E5B
:100AEC004B6E000E4C6E2DEC06F0000E4B6E000E95
:100AFC004C6E28EC06F0000E4B6E000E4C6E32EC79
:100B0C0006F0000E2A6E12004BC04DF04CC04EF099
:100B1C0092EF05F04D4A4E2A4DC0F6FF4EC0F7FF3E
:100B2C000800F5500009D8A49EEF05F0A0EF05F0E1
:100B3C0090EF05F04B504D5C4B6E4C504E584C6E3C
:100B4C0012004BC051F04CC052F0B5EF05F051C043
:100B5C00D9FF52C0DAFF4DC0DFFF514A522A4F066F
:100B6C00D8A050064F2806E15028D8A4C0EF05F0B5
:100B7C00C2EF05F0ADEF05F01200000E896E000E0D
:100B8C008A6E000E8B6EC70E926EFE0E936E870EE3
:100B9C00946E040E0F015D6F3E0E5C6F070E5B6F63
:100BAC00000E856EF18E12009EAADFEF05F0E1EFCC
:100BBC0005F0DAEF05F0000E2A6EABA2E8EF05F0B7
:100BCC00EAEF05F0ECEF05F0AB98AB88AE501200F5
:100BDC00700ED36E000ED26E800E9B6E000EB56E34
:100BEC00D2AEFBEF05F0FDEF05F0F6EF05F01200CD
:100BFC0000EE01F0480EEE6AE806FDE15C905C92B6
:100C0C00000EF86E000115EF05F0C3EC05F0EEECEC
:100C1C0005F021EC06F016EC06F06BEC05F012007A
:100C2C00000EC16E870EC06E000EC36E000EC46E39
:100C3C00010EC26E1200000E976E000E906E000E2A
:100C4C00916E12004BC023F04CC024F012004BC02C
:100C5C0025F04CC026F012004BC021F04CC022F005
:020C6C00120074
:020000040020DA
:08000000FFFFFFFFFFFFFFFF00
:020000040030CA
:0E00000023225E3CFFD185FF0FC00FE00F40B2
:00000001FF
