:0400000037EF05F0E1
:100800000011111111111111111111636965723D5E
:0B08100000617065723D006F6E00001B
:10081C00BDEC05F0070E0F015B6F000E5C6F000E58
:10082C005D6F898A7A0E4C6EC10E4B6E820EE82E6D
:10083C00FED74B2EFCD74C2EFAD7899A9DEC05F09F
:10084C00110E5BEC04F0000E03EC05F042C015F049
:10085C0043C016F059EC05F0E806D8A438EF04F0C4
:10086C003AEF04F04BEF04F084EC05F0226E220416
:10087C00D8A443EF04F045EF04F049EF04F04D80A9
:10088C00898A4BEF04F04D90899A070E4C6E170E27
:10089C004B6E6A0EE82EFED74B2EFCD74C2EFAD799
:1008AC0000D029EF04F000EF00F04A6E8A920C0E93
:1008BC00446E000E76EC05F0000E446E040E76ECE1
:1008CC0005F0030E446E030E76EC05F00E0E446E2E
:1008DC00060E76EC05F04AC044F0050E76EC05F0F9
:1008EC00000E446E010E76EC05F0010E446E110EF6
:1008FC0076EC05F00F0E446E000E76EC05F0060E4D
:10090C00446E080E456E100E466EE0EC04F0060EBA
:10091C00446E080E456E0A0E466EE0EC04F091EC47
:10092C0005F08A821200426E000E436E000E436E7A
:10093C0042AEA3EF04F0A5EF04F0A8EF04F08B8215
:10094C00A9EF04F08B92D89042368A84140EE82ECC
:10095C00FED78A94140EE82EFED7432A070E436462
:10096C00BAEF04F0BCEF04F09EEF04F01200000E9E
:10097C00436E000E426E000E436ED89042368A844F
:10098C00040EE82EFED781A6CEEF04F0D0EF04F0D3
:10099C00D1EF04F042808A94040EE82EFED7432A4D
:1009AC00070E4364DCEF04F0DEEF04F0C3EF04F059
:1009BC00425012008B944650200999EC04F0000E22
:1009CC00496E49504424476E000E4520486E47C07E
:1009DC00F6FF48C0F7FF0800F55099EC04F0492ADF
:1009EC00040E4964FCEF04F0FEEF04F0E7EF04F0B2
:1009FC008B84140EE82EFED71200466E46C044F0CF
:100A0C0044464446C2504418830B4418C26EC280FC
:100A1C00C282C2B214EF05F016EF05F00FEF05F02D
:100A2C00C450456E446AC3504424426E000E4520A7
:100A3C00436E1200000E896E000E8A6E000E8B6ED5
:100A4C00C70E926EFE0E936E870E946E040E0F01FF
:100A5C005D6F3E0E5C6F070E5B6F000E856EF18E48
:100A6C00120000EE60F01E0EEE6AE806FDE14D6A23
:100A7C0000EE01F0410EEE6AE806FDE1000EF86EA4
:100A8C0000010EEF04F0700ED36E000ED26E800ECD
:100A9C009B6E000EB56ED2AE56EF05F058EF05F01A
:100AAC0051EF05F01200CDEC05F0400AD8A461EF2F
:100ABC0005F063EF05F066EF05F0010E67EF05F04A
:100ACC00000E1200446E8B94445099EC04F0BDEC73
:100ADC0004F0456E8B84140EE82EFED745501200A0
:100AEC00456E8B944550200999EC04F0445099ECD8
:100AFC0004F08B84140EE82EFED712008B94610E3A
:100B0C0099EC04F0BDEC04F0446E8B84140EE82ECA
:100B1C00FED744501200700E446E070E76EC05F0B2
:100B2C00E10EB3EC05F0E20EB3EC05F0120094927A
:100B3C00939494949386939294808A948B948B92AE
:100B4C008A921200000EC16E870EC06E000EC36E2C
:100B5C00000EC46E010EC26E1200446E8B94445093
:100B6C0099EC04F08B84140EE82EFED7120020ECC6
:100B7C0005F049EC05F0C6EC05F0A8EC05F0120008
:100B8C00000E976E000E906E000E916E1200070E06
:060B9C0068EC05F01200F8
:020000040020DA
:08000000FFFFFFFFFFFFFFFF00
:020000040030CA
:0E00000023225E3CFFD185FF0FC00FE00F40B2
:00000001FF
