:0400000020EF05F0F8
:100800000011111111111111111111636965723D5E
:0B08100000617065723D006F6E00001B
:10081C0084EC05F0070E0F015B6F000E5C6F000E91
:10082C005D6F9286808A1F0E4A6E710E496E1E0E87
:10083C00E82EFED7492EFCD74A2EFAD700D0809A44
:10084C005BEC05F0110E73EC04F080A630EF04F0B5
:10085C0032EF04F050EF04F080BA37EF04F03AEFC7
:10086C0004F0010E3BEF04F0000EFF0A496E493A0A
:10087C00494680504918DF0B4918806E130E4A6E9A
:10088C00440E496E440EE82EFED7492EFCD74A2E54
:10089C00FAD700D080AA55EF04F057EF04F05EEFC2
:1008AC0004F0010E206E010EEEEC04F063EF04F088
:1008BC00000E206E000EEEEC04F0070E4A6E170EC2
:1008CC00496E6A0EE82EFED7492EFCD74A2EFAD76F
:1008DC0000D02BEF04F000EF00F0486E8A92000E6F
:1008EC00426E040E41EC05F0030E426E030E41EC19
:1008FC0005F00E0E426E060E41EC05F048C042F0BB
:10090C00050E41EC05F0000E426E010E41EC05F0B7
:10091C000E0E426E000E41EC05F0060E426E080EF5
:10092C00436E100E446ECBEC04F0060E426E080EB5
:10093C00436E0A0E446ECBEC04F04FEC05F08A8249
:10094C001200406E000E416E000E416E40AEB1EFD3
:10095C0004F0B3EF04F0B6EF04F08B82B7EF04F0C1
:10096C008B92D89040368A84140EE82EFED78A9447
:10097C00140EE82EFED7412A070E4164C8EF04F08E
:10098C00CAEF04F0ACEF04F012008B944450200931
:10099C00A7EC04F0000E476E47504224456E000E43
:1009AC004320466E45C0F6FF46C0F7FF0800F550E1
:1009BC00A7EC04F0472A040E4764E7EF04F0E9EFD4
:1009CC0004F0D2EF04F08B84140EE82EFED7120044
:1009DC00446E7BEC05F00E0E426E000E41EC05F001
:1009EC008B94A00EA7EC04F04450A7EC04F08B847D
:1009FC008A823C0EE82EFED78A920F0E426E000EB3
:100A0C0041EC05F01200000E896E000E8A6E000E8D
:100A1C008B6EC70E926EFE0E936E870E946E040E46
:100A2C000F015D6F3E0E5C6F070E5B6F000E856EE7
:100A3C00F18E120000EE60F01E0EEE6AE806FDE18B
:100A4C0000EE01F03F0EEE6AE806FDE1000EF86ED6
:100A5C0000010EEF04F0700ED36E000ED26E800EFD
:100A6C009B6E000EB56ED2AE3EEF05F040EF05F07A
:100A7C0039EF05F01200436E8B9443502009A7EC1C
:100A8C0004F04250A7EC04F08B84140EE82EFED731
:100A9C001200700E426E070E41EC05F0E10E71EC87
:100AAC0005F0E20E71EC05F012009492939494947C
:100ABC009386939294808A948B948B928A92120050
:100ACC00000EC16E870EC06E000EC36E000EC46E9B
:100ADC00010EC26E1200426E8B944250A7EC04F0D1
:100AEC008B84140EE82EFED71200700E426E070E89
:100AFC0041EC05F0E20E71EC05F0120009EC05F08A
:100B0C0031EC05F08DEC05F066EC05F01200000EF2
:0C0B1C00976E000E906E000E916E12009D
:020000040020DA
:08000000FFFFFFFFFFFFFFFF00
:020000040030CA
:0E00000023225E3CFFD185FF0FC00FE00F40B2
:00000001FF
