:0400000017EF05F001
:100800000011111111111111111111636965723D5E
:0B08100000617065723D006F6E00001B
:10081C007BEC05F0070E0F015B6F000E5C6F000E9A
:10082C005D6F9286898A1F0E4A6E710E496E1E0E7E
:10083C00E82EFED7492EFCD74A2EFAD700D0899A3B
:10084C0052EC05F0110E6AEC04F080A630EF04F0C7
:10085C0032EF04F047EF04F089AA37EF04F03AEFD7
:10086C0004F0898A3BEF04F0899A130E4A6E440E09
:10087C00496E440EE82EFED7492EFCD74A2EFAD7E5
:10088C0000D089AA4CEF04F04EEF04F055EF04F0C1
:10089C00010E206E010EE5EC04F05AEF04F0000E90
:1008AC00206E000EE5EC04F0070E4A6E170E496E32
:1008BC006A0EE82EFED7492EFCD74A2EFAD700D066
:1008CC002BEF04F000EF00F0486E8A92000E426E9F
:1008DC00040E38EC05F0030E426E030E38EC05F0F6
:1008EC000E0E426E060E38EC05F048C042F0050EB6
:1008FC0038EC05F0000E426E010E38EC05F00E0ED1
:10090C00426E000E38EC05F0060E426E080E436E79
:10091C00100E446EC2EC04F0060E426E080E436ECE
:10092C000A0E446EC2EC04F046EC05F08A8212000A
:10093C00406E000E416E000E416E40AEA8EF04F00A
:10094C00AAEF04F0ADEF04F08B82AEEF04F08B92C3
:10095C00D89040368A84140EE82EFED78A94140E52
:10096C00E82EFED7412A070E4164BFEF04F0C1EF19
:10097C0004F0A3EF04F012008B94445020099EEC79
:10098C0004F0000E476E47504224456E000E432083
:10099C00466E45C0F6FF46C0F7FF0800F5509EECCA
:1009AC0004F0472A040E4764DEEF04F0E0EF04F095
:1009BC00C9EF04F08B84140EE82EFED71200446E9F
:1009CC0072EC05F00E0E426E000E38EC05F08B94B6
:1009DC00A00E9EEC04F044509EEC04F08B848A82B2
:1009EC003C0EE82EFED78A920F0E426E000E38ECAB
:1009FC0005F01200000E896E000E8A6E000E8B6ED2
:100A0C00C70E926EFE0E936E870E946E040E0F013F
:100A1C005D6F3E0E5C6F070E5B6F000E856EF18E88
:100A2C00120000EE60F01E0EEE6AE806FDE100EE2C
:100A3C0001F03F0EEE6AE806FDE1000EF86E0001D3
:100A4C000EEF04F0700ED36E000ED26E800E9B6E05
:100A5C00000EB56ED2AE35EF05F037EF05F030EF86
:100A6C0005F01200436E8B94435020099EEC04F069
:100A7C0042509EEC04F08B84140EE82EFED712002C
:100A8C00700E426E070E38EC05F0E10E68EC05F0C6
:100A9C00E20E68EC05F01200949293949494938671
:100AAC00939294808A948B948B928A921200000E6B
:100ABC00C16E870EC06E000EC36E000EC46E010EAA
:100ACC00C26E1200426E8B9442509EEC04F08B84EA
:100ADC00140EE82EFED71200700E426E070E38EC84
:100AEC0005F0E20E68EC05F0120000EC05F028ECC5
:100AFC0005F084EC05F05DEC05F01200000E976E2D
:0A0B0C00000E906E000E916E1200B4
:020000040020DA
:08000000FFFFFFFFFFFFFFFF00
:020000040030CA
:0E00000023225E3CFFD185FF0FC00FE00F40B2
:00000001FF
