:0400000026EF00F0F7
:100008005B82FACF03F0FBCF04F0F2AC0EEF00F006
:1000180010EF00F020EF00F09DA015EF00F017EFB3
:1000280000F020EF00F09EA01CEF00F01EEF00F0A3
:1000380020EF00F0A5EC1EF004C0FBFF03C0FAFFA0
:080048005B9211006DEF1DF049
:1008000000111111111140380000111111111125A1
:100810002E336620416D702E0A0D00494E46004E63
:0F082000414E00696E66006E616E006C660000EE
:10083000000E0001916F000E906F6CC0A2F06DC0B1
:10084000A3F06EC0A4F06FC0A5F0A5BF2CEF04F01C
:100850002AEF04F042EF04F0000E916F010E906F4A
:10086000A2C005F0A3C006F0A4C007F0A5C008F020
:10087000DEEC1EF005C0A2F006C0A3F007C0A4F095
:1008800008C0A5F0000E0001A96F000EA86FE8C017
:1008900094F0E9C095F090519111D8A452EF04F072
:1008A00054EF04F05BEF04F0ECA559EF04F05BEFBC
:1008B00004F075EF04F090519111D8A462EF04F0A8
:1008C00064EF04F06AEF04F0000E776F2B0E766F82
:1008D0006EEF04F0000E776F2D0E766F76C024F168
:1008E000A84BA92B9407D8A09507A2C005F0A3C0D8
:1008F00006F0A4C007F0A5C008F08DEC19F00504BF
:100900000610D8A486EF04F088EF04F0DFEF04F0BF
:10091000BF0E0001716FFF0E726F7051736F746BB9
:10092000715173277251742374510AE11A0E735D69
:10093000D8A09DEF04F0A0EF04F0010EA1EF04F0A9
:10094000000E786F796B78517911D8B4AAEF04F062
:10095000ACEF04F0BAEF04F0240EA825056E010EEA
:10096000A921066E1B0E076E080E086EEDEC1CF03A
:10097000C6EF04F0240EA825056E010EA921066E0F
:10098000230E076E080E086EEDEC1CF00001FD0E44
:100990009427FF0E95236AC017F06BC018F0240E41
:1009A000196E010E1A6E94C01BF095C01CF0DCECA1
:1009B0001AF017C06AF018C06BF043EF0AF0A2C03B
:1009C00005F0A3C006F0A4C007F0A5C008F08DECA8
:1009D00019F005500610D8A4F0EF04F0F2EF04F07F
:1009E00032EF05F0BF0E0001716FFF0E726F705194
:1009F000736F746B715173277251742374510AE1D0
:100A00001A0E735DD8A007EF05F00AEF05F0010E8E
:100A10000BEF05F0000E7A6F7B6B7A517B11D8B427
:100A200014EF05F016EF05F024EF05F0240EA825CD
:100A3000056E010EA921066E1F0E076E080E086EC8
:100A4000EDEC1CF0C6EF04F0240EA825056E010E97
:100A5000A921066E270E076E080E086EEDEC1CF03D
:100A6000C6EF04F0000E0001AA6F000EAB6F800EFF
:100A7000AC6F3F0EAD6F000EA76F000EA66FA2C049
:100A800005F0A3C006F0A4C007F0A5C008F0000E52
:100A9000096E000E0A6E000E0B6E000E0C6EF9EC65
:100AA0001BF0D8B056EF05F058EF05F0DBEF05F07E
:100AB00077EF05F0AAC013F0ABC014F0ACC015F08E
:100AC000ADC016F0000E176E000E186E200E196ED7
:100AD000410E1A6EDBEC0EF013C0AAF014C0ABF09E
:100AE00015C0ACF016C0ADF00001A64BA72BA2C0FC
:100AF0002CF0A3C02DF0A4C02EF0A5C02FF0000E46
:100B0000176E000E186E200E196E410E1A6EAAC0D6
:100B100013F0ABC014F0ACC015F0ADC016F0DBECB8
:100B20000EF013C030F014C031F015C032F016C012
:100B300033F00BEC19F0D8B0A0EF05F0A2EF05F000
:100B40005AEF05F0C2EF05F0AAC034F0ABC035F0A3
:100B5000ACC036F0ADC037F0000E386E000E396E06
:100B6000200E3A6E410E3B6EF0EC10F034C0AAF04D
:100B700035C0ABF036C0ACF037C0ADF00001A60711
:100B8000D8A0A707A2C02CF0A3C02DF0A4C02EF0BF
:100B9000A5C02FF0AAC030F0ABC031F0ACC032F02D
:100BA000ADC033F00BEC19F0D8A0D9EF05F0DBEFB6
:100BB00005F0A4EF05F070C00BF00C6ABDEC1CF062
:100BC0000B500001976F97C096F0670E9719D8A445
:100BD000ECEF05F0EEEF05F014EF06F0EA51EB1143
:100BE000D8A4F5EF05F0F7EF05F0FBEF05F0000EE8
:100BF000EB6F010EEA6FEBBF08EF06F0EB5106E179
:100C0000EA05D8B006EF06F008EF06F00EEF06F0A2
:100C1000000E936F060E926F1DEF06F0EAC092F081
:100C2000EBC093F01DEF06F0EBBF19EF06F01BEFE2
:100C300006F008EF06F00EEF06F0670E9719D8A43D
:100C400024EF06F026EF06F055EF06F0A7AF34EFDD
:100C500006F0FC0EA65DFF0EA759D8A032EF06F0F5
:100C600034EF06F053EF06F0FF0E716FFF0E726F58
:100C700092C073F093C074F0715173277251742352
:100C8000A651735D7451800A756FA751800A75591A
:100C9000D8A04DEF06F04FEF06F053EF06F0660ECA
:100CA000966F55EF06F0650E966F92C088F093C070
:100CB00089F0670E9719D8A460EF06F062EF06F08E
:100CC00072EF06F0660E9619D8A469EF06F06BEF86
:100CD00006F074EF06F0A7BF72EF06F070EF06F0B3
:100CE00074EF06F0884B892B660E9619D8A47BEF1B
:100CF00006F07DEF06F09DEF06F0A7BF84EF06F04B
:100D000082EF06F090EF06F0000EAA6F000EAB6FB8
:100D1000800EAC6F3F0EAD6F000EA76F000EA66F7A
:100D2000670E9719D8B497EF06F099EF06F09DEF8C
:100D300006F0A6518827A7518923000EA16F000E47
:100D4000A06FA2C098F0A3C099F0A4C09AF0A5C06B
:100D50009BF0AAC08AF0ABC08BF0ACC08CF0ADC0E9
:100D60008DF02EEF07F098C034F099C035F09AC09E
:100D700036F09BC037F0AAC038F0ABC039F0ACC039
:100D80003AF0ADC03BF0F0EC10F034C04DF035C09F
:100D90004EF036C04FF037C050F02EEC14F04DC07E
:100DA0009CF04EC09DF04FC09EF050C09FF09CC084
:100DB00005F09DC006F09EC007F09FC008F088ECCB
:100DC00018F005C08EF006C08FF098C02CF099C0C6
:100DD0002DF09AC02EF09BC02FF0AAC017F0ABC028
:100DE00018F0ACC019F0ADC01AF09CC013F09DC053
:100DF00014F09EC015F09FC016F0DBEC0EF013C08F
:100E000030F014C031F015C032F016C033F023ECCE
:100E10001EF02CC098F02DC099F02EC09AF02FC073
:100E20009BF0AAC034F0ABC035F0ACC036F0ADC01A
:100E300037F0000E386E000E396E200E3A6E410EFD
:100E40003B6EF0EC10F034C0AAF035C0ABF036C009
:100E5000ACF037C0ADF00001A04BA12B8851A05DD4
:100E6000A151800A716F8951800A7159D8A03BEF56
:100E700007F03DEF07F0B3EF06F0AAC013F0ABC0E8
:100E800014F0ACC015F0ADC016F0000E176E000ED9
:100E9000186EA00E196E400E1A6EDBEC0EF013C029
:100EA0009CF014C09DF015C09EF016C09FF098C035
:100EB0002CF099C02DF09AC02EF09BC02FF09CC052
:100EC00030F09DC031F09EC032F09FC033F00BEC8B
:100ED00019F0D8B06EEF07F070EF07F07BEF07F076
:100EE000000E00019C6F000E9D6F000E9E6F000EA5
:100EF0009F6FA4EF07F098C005F099C006F09AC064
:100F000007F09BC008F09CC009F09DC00AF09EC08D
:100F10000BF09FC00CF0F9EC1BF0D8A092EF07F09B
:100F200094EF07F0A4EF07F000018EB19AEF07F0FD
:100F30009CEF07F0A4EF07F0000E9C6F000E9D6F72
:100F4000000E9E6F000E9F6FA2C005F0A3C006F0BA
:100F5000A4C007F0A5C008F09CC009F09DC00AF02D
:100F60009EC00BF09FC00CF044EC0AF005C098F056
:100F700006C099F007C09AF008C09BF098C02CF00A
:100F800099C02DF09AC02EF09BC02FF0000E176E66
:100F9000000E186E200E196E410E1A6E8AC013F0E4
:100FA0008BC014F08CC015F08DC016F0DBEC0EF089
:100FB00013C030F014C031F015C032F016C033F059
:100FC0000BEC19F0D8A0E7EF07F0E9EF07F012EF0C
:100FD00008F00001A64BA72B8AC013F08BC014F0B9
:100FE0008CC015F08DC016F0000E176E000E186E36
:100FF000200E196E410E1A6EDBEC0EF013C08AF053
:1010000014C08BF015C08CF016C08DF0660E000178
:101010009619D8A40EEF08F010EF08F012EF08F0C0
:10102000884B892B8AC0AAF08BC0ABF08CC0ACF087
:101030008DC0ADF0650E00019619D8B422EF08F00E
:1010400024EF08F02AEF08F0A6C086F0A7C087F0CA
:101050002EEF08F0000E876F000E866F000E856F72
:10106000000E846F000E836F000E826F000EA16F62
:10107000000EA06F29EF09F098C034F099C035F048
:101080009AC036F09BC037F0AAC038F0ABC039F038
:10109000ACC03AF0ADC03BF0F0EC10F034C04DF015
:1010A00035C04EF036C04FF037C050F02EEC14F083
:1010B0004DC09CF04EC09DF04FC09EF050C09FF0C0
:1010C0009CC005F09DC006F09EC007F09FC008F0D0
:1010D00088EC18F005C08EF006C08FF00001ECB966
:1010E00074EF08F076EF08F093EF08F08E518F114F
:1010F000D8A47DEF08F07FEF08F093EF08F0670EBB
:101100009719D8A486EF08F088EF08F093EF08F05D
:1011100087BF8FEF08F08DEF08F093EF08F0824B58
:10112000832BDDEF08F084518511D8A49AEF08F0E5
:101130009CEF08F0C6EF08F087BFA3EF08F0A1EF1F
:1011400008F0C6EF08F0240EA825D96E010EA921DB
:10115000DA6E2E0EDF6EA84BA92B9407D8A0950748
:10116000000E856F010E846FC6EF08F0240EA825CF
:10117000D96E010EA921DA6E300EDF6EA84BA92BB5
:101180009407D8A095078207D8A0830782518311BE
:10119000D8A4CDEF08F0CFEF08F0B6EF08F0240E9A
:1011A000A825D96E010EA921DA6E8E51300FDF6E9F
:1011B000A84BA92B9407D8A0950798C02CF099C0EC
:1011C0002DF09AC02EF09BC02FF0AAC017F0ABC034
:1011D00018F0ACC019F0ADC01AF09CC013F09DC05F
:1011E00014F09EC015F09FC016F0DBEC0EF013C09B
:1011F00030F014C031F015C032F016C033F023ECDB
:101200001EF02CC098F02DC099F02EC09AF02FC07F
:101210009BF0AAC034F0ABC035F0ACC036F0ADC026
:1012200037F0000E386E000E396E200E3A6E410E09
:101230003B6EF0EC10F034C0AAF035C0ABF036C015
:10124000ACF037C0ADF000018607D8A08707A04BEF
:10125000A12B8851A05DA151800A716F8951800A2C
:101260007159D8B036EF09F038EF09F046EF09F0C0
:10127000A9BF44EF09F0A95109E14B0EA85DD8A020
:1012800044EF09F046EF09F03CEF08F08451851176
:10129000D8A44DEF09F04FEF09F060EF09F0ECA989
:1012A00054EF09F056EF09F060EF09F0240EA8257D
:1012B000D96E010EA921DA6E2E0EDF6EA84BA92B76
:1012C000240EA825D96E010EA921DA6E000EDF6E5C
:1012D000650E9619D8A46FEF09F071EF09F0CBEF06
:1012E00004F0000EA16F4F0EA06F240EA025D96E42
:1012F000010EA121DA6E000EDF6E000E916F000E5E
:10130000906FA7BF88EF09F086EF09F090EF09F022
:10131000000E916F010E906FA66DA71FD8B0A72B7E
:10132000000E936F020E926FC1EF09F0A007D8A0D4
:10133000A107240EA025D96E010EA121DA6EA6C048
:1013400005F0A7C006F0000E086E0A0E076EA1ECAD
:101350001BF00550300FDF6EA6C005F0A7C006F0E9
:10136000000E086E0A0E076E3FEC1BF005C0A6F0DB
:1013700006C0A7F000019207D8A093079407D8A051
:101380009507A651A711D8A4C8EF09F0CAEF09F034
:1013900096EF09F093BFD7EF09F0935106E192055C
:1013A000D8B0D5EF09F0D7EF09F096EF09F0A00714
:1013B000D8A0A10790519111D8A4E1EF09F0E3EF73
:1013C00009F0E9EF09F0000E7D6F2B0E7C6FEDEF59
:1013D00009F0000E7D6F2D0E7C6F240EA025D96EB6
:1013E000010EA121DA6E7CC0DFFF9407D8A095071B
:1013F000A007D8A0A107BF0E716FFF0E726F7051CA
:10140000736F746B715173277251742374510AE1B5
:101410001A0E735DD8A00FEF0AF012EF0AF0010E5A
:1014200013EF0AF0000E806F816B80518111D8A4F8
:101430001CEF0AF01EEF0AF024EF0AF0000E7F6F97
:10144000650E7E6F28EF0AF0000E7F6F450E7E6FEF
:10145000240EA025D96E010EA121DA6E7EC0DFFF19
:101460009407D8A09507240EA825056E010EA92182
:10147000066E240EA025076E010EA121086EEDEC6C
:101480001CF0CBEF04F012000850800B116E0850D6
:101490000824136E07AE4FEF0AF051EF0AF052EF37
:1014A0000AF013801350D8B458EF0AF05AEF0AF03C
:1014B0006FEF0AF01328D8A460EF0AF062EF0AF089
:1014C0006AEF0AF0000E056E000E066E000E076E43
:1014D000000E086E078E000E086E77EF0AF0000E01
:1014E000056E000E066E000E076E000E086E0C50A4
:1014F000800B126E11501218D8B481EF0AF083EFEE
:101500000AF084EF0AF0118C0C500C24126E0BAE12
:101510008CEF0AF08EEF0AF08FEF0AF01280125073
:10152000D8B495EF0AF097EF0AF0ACEF0AF0122862
:10153000D8A49DEF0AF09FEF0AF0A7EF0AF0000E83
:10154000096E000E0A6E000E0B6E000E0C6E0B8EF6
:10155000000E0C6EB4EF0AF0000E096E000E0A6E5B
:10156000000E0B6E000E0C6E1350125CD8B0BBEF69
:101570000AF0BDEF0AF0E4EF0AF011ACC2EF0AF096
:10158000C4EF0AF0C6EF0AF0800E111A13C014F06F
:1015900012C013F014C012F005C014F009C005F019
:1015A00014C009F006C014F00AC006F014C00AF016
:1015B00007C014F00BC007F014C00BF008C014F003
:1015C0000CC008F014C00CF0000E146E135012C0C2
:1015D0000DF00E6A0D5E000E0E5A0EBEF9EF0AF007
:1015E0000E5009E11A0E0D5CD8A0F9EF0AF0FBEFDE
:1015F0000AF032EF0BF00550061007100810D8A4BF
:1016000004EF0BF007EF0BF0010E08EF0BF0000EEC
:10161000146E000E056E000E066E000E076E000EB4
:10162000086E12C013F03BEF0BF014A01AEF0BF092
:101630001CEF0BF022EF0BF0D89014300109146E60
:1016400024EF0BF0D890143205A029EF0BF02BEF0C
:101650000BF02CEF0BF0148E0834083207320632F0
:101660000532132A1250135CD8A039EF0BF03BEF70
:101670000BF015EF0BF011BC40EF0BF042EF0BF04D
:1016800082EF0BF01350D8A448EF0BF04AEF0BF0A9
:1016900054EF0BF0000E056E000E066E000E076E86
:1016A000000E086EA3EF0CF0095005260A50062222
:1016B0000B5007220C50082208A061EF0BF063EFDB
:1016C0000BF00FEF0CF014A068EF0BF06AEF0BF0CB
:1016D00070EF0BF0D89014300109146E72EF0BF01C
:1016E000D890143205A077EF0BF079EF0BF07AEF7A
:1016F0000BF0148E08340832073206320532132AF2
:101700000FEF0CF00950055C0A5006580B500758B3
:101710000850800A0D6E0C50800A0D58D8B093EF17
:101720000BF095EF0BF0C0EF0BF00550095C0D6E60
:1017300006500A580E6E07500B580F6E08500C5882
:10174000106EFF0E0D24056EFF0E0E20066EFF0EAE
:101750000F20076EFF0E1020086E800E111A146CF9
:101760001450D8A4B6EF0BF0B8EF0BF0C8EF0BF0A5
:10177000010E0526000E062207220822C8EF0BF0F4
:101780000950055E0A50065A0B50075A0C50085A69
:101790000550061007100810D8A4D1EF0BF0D3EFB6
:1017A0000BF008EF0CF01450D8A4D9EF0BF0DBEFDE
:1017B0000BF008EF0CF0000E056E000E066E000E2A
:1017C000076E000E086EA3EF0CF0D89005360636B3
:1017D0000736083614AEEFEF0BF0F1EF0BF0F2EF37
:1017E0000BF0058014A0F7EF0BF0F9EF0BF0FDEF15
:1017F0000BF0D8801436FFEF0BF0D890143613504E
:10180000D8B405EF0CF007EF0CF008EF0CF013065E
:1018100007AE0DEF0CF00FEF0CF0E5EF0BF0000E44
:10182000126E14AE16EF0CF018EF0CF030EF0CF057
:1018300014C00DF07F0E0D16D8B421EF0CF023EF7D
:101840000CF027EF0CF0010E126E30EF0CF005A03B
:101850002CEF0CF02EEF0CF030EF0CF023EF0CF02F
:101860001250D8B436EF0CF038EF0CF063EF0CF0F8
:10187000010E0526000E06220722082208A043EFCB
:101880000CF045EF0CF063EF0CF005C00DF006C056
:101890000EF007C00FF008C010F0103410320F32F5
:1018A0000E320D320DC005F00EC006F00FC007F06D
:1018B00010C008F01328D8B460EF0CF062EF0CF001
:1018C00063EF0CF0132A1328D8B469EF0CF06BEF18
:1018D0000CF073EF0CF01350D8A471EF0CF073EF11
:1018E0000CF085EF0CF0000E056E000E066E000E7B
:1018F000076E000E086E1350D8A481EF0CF083EF32
:101900000CF085EF0CF0000E116E13A08AEF0CF0B6
:101910008CEF0CF08FEF0CF0078E90EF0CF0079E21
:10192000D8901330086E11AE98EF0CF09AEF0CF0CF
:101930009BEF0CF0088E05C005F006C006F007C04E
:1019400007F008C008F01200B0C0D9FFB1C0DAFF3C
:10195000DECFF6FFDDCFF7FF0800F550250AD8A44B
:10196000B4EF0CF0B6EF0CF0BFEF0EF0B0C0D9FF43
:10197000B1C0DAFFDE2A000EDD22000E0001E96FA1
:10198000000EE86FE8C0ECF0E9C0EDF0EA69EB6941
:10199000B0C0D9FFB1C0DAFFDECFF6FFDDCFF7FF71
:1019A0000800F5502E0AD8A4D8EF0CF0DAEF0CF0AE
:1019B00058EF0DF0000EEB6F000EEA6FB0C0D9FFCC
:1019C000B1C0DAFFDE2A000EDD22B0C0D9FFB1C0FF
:1019D000DAFFDECFF6FFDDCFF7FF0800F5502A0A69
:1019E000D8A4F5EF0CF0F7EF0CF014EF0DF0B0C049
:1019F000D9FFB1C0DAFFDE2A000EDD22B2C0D9FF66
:101A0000B3C0DAFFDFCFB4F0020EDE26DFCFB5F0D1
:101A1000000EDD22B4C0D9FFB5C0DAFFDECFEAF098
:101A2000DDCFEBF058EF0DF0B0C0D9FFB1C0DAFF59
:101A3000DECF0CF0DDCF0DF001EC17F00CC0EAF0BA
:101A40000DC0EBF02BEF0DF0B0C0D9FFB1C0DAFF45
:101A5000DE2A000EDD22D00E0001B46FFF0EB56F3E
:101A6000B0C0D9FFB1C0DAFFDECFF6FFDDCFF7FFA0
:101A70000800F550B66FB76BB451B627B551B72310
:101A8000B7510AE10A0EB65DD8A049EF0DF04CEF50
:101A90000DF0010E4DEF0DF0000EB86FB96BB8519F
:101AA000B911D8A456EF0DF058EF0DF024EF0DF05A
:101AB000B0C0D9FFB1C0DAFFDECFF6FFDDCFF7FF50
:101AC0000800F5500B6E0C6ABDEC1CF00B500001C9
:101AD000C06FC051D8B46FEF0DF071EF0DF0ABEFE8
:101AE0000DF0B0C0D9FFB1C0DAFFDECFB4F0DDCF6A
:101AF000B5F0010EB427000EB523B4C0F6FFB5C093
:101B0000F7FF0800F5500B6E0C6ABDEC1CF00B5093
:101B10000001C16FC151D8B490EF0DF092EF0DF0FC
:101B2000ABEF0DF0B0C0D9FFB1C0DAFFDECFB4F03B
:101B3000DDCFB5F0020EB427000EB523B4C0F6FF1A
:101B4000B5C0F7FF0800F5500B6E0C6ABDEC1CF039
:101B50000B500001C26F660EC019D8A4B2EF0DF091
:101B6000B4EF0DF0F4EF0DF0B0C0D9FFB1C0DAFF63
:101B7000DECFF6FFDDCFF7FF0800F5CFC3F0B0C032
:101B8000D9FFB1C0DAFFDE2A000EDD22B2C0D9FFD4
:101B9000B3C0DAFFDFCFB4F0040EDE26DFCFB5F03E
:101BA000000EDD22B4C0D9FFB5C0DAFFDECFBCF035
:101BB000DECFBDF0DECFBEF0DECFBFF0AEC06AF04C
:101BC000AFC06BF0BCC06CF0BDC06DF0BEC06EF0BD
:101BD000BFC06FF0C3C070F018EC04F06AC0AEF084
:101BE0006BC0AFF0DAEF0EF0C00E056E000E066EA1
:101BF0002B0E076E080E086E000E0A6E020E096E9E
:101C00000CEC1AF005500610D8A409EF0EF00BEFFB
:101C10000EF087EF0EF0B0C0D9FFB1C0DAFFDECF13
:101C2000B4F0DDCFB5F0010E0001B427000EB523EE
:101C3000B4C0F6FFB5C0F7FF0800F5CFC3F0BF0E84
:101C4000B46FFF0EB56FB0C0D9FFB1C0DAFFDECF01
:101C5000F6FFDDCFF7FF0800F550B66FB76BB45154
:101C6000B627B551B723B7510AE11A0EB65DD8A011
:101C70003CEF0EF03FEF0EF0010E40EF0EF0000EC5
:101C8000BA6FBB6BBA51BB11D8B449EF0EF04BEF32
:101C90000EF065EF0EF0B2C0D9FFB3C0DAFFDFCFB0
:101CA000B4F0040EDE26DFCFB5F0000EDD22B4C0A6
:101CB000D9FFB5C0DAFFDECFBCF0DECFBDF0DECF9E
:101CC000BEF0DECFBFF07DEF0EF0B2C0D9FFB3C0E3
:101CD000DAFFDFCFB4F0040EDE26DFCFB5F0000E62
:101CE000DD22B4C0D9FFB5C0DAFFDECFBCF0DECF55
:101CF000BDF0DECFBEF0DECFBFF0020EB0C0D9FF28
:101D0000B1C0DAFFDE26000EDD22DEEF0DF0B0C03E
:101D1000D9FFB1C0DAFFDECFF6FFDDCFF7FF080055
:101D2000F550250AD8A497EF0EF099EF0EF0B1EF19
:101D30000EF0B0C0D9FFB1C0DAFFDE2A000EDD22FE
:101D4000000E086E250E076EAEC009F0AFC00AF097
:101D500077EC1AF0000E0001AF6F010EAE6FDAEFF4
:101D60000EF0B0C0D9FFB1C0DAFFDE2A000EDD22CE
:101D7000000E0001AF6F000EAE6FDAEF0EF0B0C0D4
:101D8000D9FFB1C0DAFFDECFF6FFDDCFF7FF0800E5
:101D9000F550076E086AAEC009F0AFC00AF077ECE4
:101DA0001AF0B0C0D9FFB1C0DAFFDE2A000EDD2282
:101DB000AAEF0EF012001650800B1F6E165016245C
:101DC000256E15AEE6EF0EF0E8EF0EF0E9EF0EF03F
:101DD00025802550D8B4EFEF0EF0F1EF0EF004EFB0
:101DE0000FF02528D8A4F7EF0EF0F9EF0EF001EF71
:101DF0000FF0000E136E000E146E000E156E000E26
:101E0000166E158E0CEF0FF0000E136E000E146E92
:101E1000000E156E000E166E1A50800B1F1A1A5007
:101E20001A24206E19AE17EF0FF019EF0FF01AEF0A
:101E30000FF020802050D8B420EF0FF022EF0FF0E9
:101E400035EF0FF02028D8A428EF0FF02AEF0FF07D
:101E500032EF0FF0000E176E000E186E000E196EA6
:101E6000000E1A6E198E3DEF0FF0000E176E000E69
:101E7000186E000E196E000E1A6E2050D8B443EF83
:101E80000FF045EF0FF04DEF0FF02550D8A44BEFBA
:101E90000FF04DEF0FF057EF0FF0000E136E000E26
:101EA000146E000E156E000E166EEFEF10F0195046
:101EB0001302F3CF2AF0F4CF2BF02A50216E226ABE
:101EC000236A246A2B50266E276A286A296A1850CA
:101ED0001402F3CF2AF0F4CF2BF02A502126000E63
:101EE0002222232224222B502626000E27222822BB
:101EF000292217501502F3CF2AF0F4CF2BF02A50E5
:101F00002126000E2222232224222B502626000ED8
:101F100027222822292223C024F022C023F021C016
:101F200022F0216A17501402F3CF2AF0F4CF2BF0DD
:101F30002A5021262B502222000E2322000E24227A
:101F400018501302F3CF2AF0F4CF2BF02A50212699
:101F50002B502222000E2322000E242223C024F024
:101F600022C023F021C022F0216A17501302F3CFC0
:101F70002AF0F4CF2BF02A5021262B502222000EDB
:101F80002322000E242219501402F3CF2AF0F4CF9A
:101F90002BF02A5026262B502722000E2822000E36
:101FA000292218501502F3CF2AF0F4CF2BF02A5033
:101FB00026262B502722000E2822000E29221950F7
:101FC0001502F3CF2AF0F4CF2BF02A501B6E2B50C2
:101FD0001C6E1D6A1E6A1DC01EF01CC01DF01BC0B9
:101FE0001CF01B6A1B5026261C5027221D5028223D
:101FF0001E50292221C01BF022C01CF023C01DF05E
:1020000024C01EF0190E0AEF10F0D8901E321D32B7
:102010001C321B32E82E05EF10F01B5026261C50F8
:1020200027221D5028221E50292223C024F022C01E
:1020300023F021C022F0216A205025C01BF01C6A29
:102040001B26000E1C22820E1B242A6EFF0E1C2053
:102050002B6E40EF10F0D8902636273628362936DA
:1020600024AE35EF10F037EF10F038EF10F0268087
:10207000D89021362236233624362A06D8A02B06BD
:1020800028AE45EF10F047EF10F02BEF10F0000EE8
:10209000206E24AE4EEF10F050EF10F074EF10F001
:1020A000FF0E21141B6EFF0E22141C6EFF0E231454
:1020B0001D6E7F0E24141E6E1B501C101D101E1052
:1020C000D8B465EF10F067EF10F06BEF10F0010E71
:1020D000206E74EF10F026A070EF10F072EF10F089
:1020E00074EF10F067EF10F02050D8B47AEF10F0D2
:1020F0007CEF10F0A0EF10F0010E2626000E272234
:102100002822292229A087EF10F089EF10F0A0EFF4
:1021100010F026C01BF027C01CF028C01DF029C0FD
:102120001EF01E341E321D321C321B321BC026F024
:102130001CC027F01DC028F01EC029F02A4A2B2AF7
:102140002BBEABEF10F02B5008E12A28D8A0ABEF44
:1021500010F0ADEF10F0B7EF10F0000E266E000E8D
:10216000276E800E286E7F0E296EE5EF10F02BBED5
:10217000C4EF10F02B5006E12A04D8B0C2EF10F0E3
:10218000C4EF10F0D0EF10F0000E266E000E276E98
:10219000000E286E000E296E000E1F6EE5EF10F087
:1021A0002AC025F0FF0E2616FF0E27167F0E2816D2
:1021B000000E291625A0DFEF10F0E1EF10F0E2EF9E
:1021C00010F0288ED8902530296E1F50291226C075
:1021D00013F027C014F028C015F029C016F0120023
:1021E0003750800B446E375037244B6E36AEFBEFC2
:1021F00010F0FDEF10F0FEEF10F04B804B50D8B414
:1022000004EF11F006EF11F01BEF11F04B28D8A4EA
:102210000CEF11F00EEF11F016EF11F0000E346E0E
:10222000000E356E000E366E000E376E368E000EC6
:10223000376E23EF11F0000E346E000E356E000E77
:10224000366E000E376E3B50800B441A3B503B24D9
:102250004C6E3AAE2EEF11F030EF11F031EF11F07D
:102260004C804C50D8B437EF11F039EF11F04EEFED
:1022700011F04C28D8A43FEF11F041EF11F049EFD5
:1022800011F0000E386E000E396E000E3A6E000E20
:102290003B6E3A8E000E3B6E56EF11F0000E386E1C
:1022A000000E396E000E3A6E000E3B6E385039103B
:1022B0003A103B10D8A45FEF11F061EF11F079EF05
:1022C00011F0000E346E000E356E000E366E000EEC
:1022D000376E800E36127F0E37124450371234C0DC
:1022E00034F035C035F036C036F037C037F0BCEFCB
:1022F00012F04B50D8A47FEF11F081EF11F08BEF6B
:1023000011F0000E346E000E356E000E366E000EAB
:10231000376EBCEF12F04C504BC03CF03D6A3C5E57
:10232000000E3D5A7F0E3C24456E000E3D20466E49
:1023300034C040F035C041F036C042F037C043F001
:10234000000E346E000E356E000E366E000E376EC7
:10235000000E476E000E486E000E496E000E4A6E6B
:10236000000E4C6EECEF11F04C50D8B4BAEF11F0F7
:10237000BCEF11F0D3EF11F0D89040364136423621
:102380004336D89034363536363637364AAECBEF0C
:1023900011F0CDEF11F0CEEF11F03480D890473628
:1023A000483649364A363850405C395041583A50E0
:1023B00042583B504358D8A0E0EF11F0E2EF11F043
:1023C000EBEF11F04A8C3850405E3950415A3A5088
:1023D000425A3B50435A4C2A190E4C64F2EF11F00A
:1023E000F4EF11F0B4EF11F04050411042104310DF
:1023F000D8B4FDEF11F0FFEF11F017EF12F04780A6
:1024000017EF12F0D89034363536363637364AAEB6
:102410000CEF12F00EEF12F00FEF12F03480D890A4
:102420004736483649364A364506D8A0460636AEBF
:102430001CEF12F01EEF12F002EF12F0000E4C6EC5
:102440004AAE25EF12F027EF12F04BEF12F0FF0E1D
:1024500047143C6EFF0E48143D6EFF0E49143E6E4D
:102460007F0E4A143F6E3C503D103E103F10D8B4D2
:102470003CEF12F03EEF12F042EF12F0010E4C6E04
:102480004BEF12F034A047EF12F049EF12F04BEF90
:1024900012F03EEF12F04C50D8B451EF12F053EF5F
:1024A00012F077EF12F0010E3426000E352236229C
:1024B000372237A05EEF12F060EF12F077EF12F0E4
:1024C00034C03CF035C03DF036C03EF037C03FF080
:1024D0003F343F323E323D323C323CC034F03DC0AE
:1024E00035F03EC036F03FC037F0454A462A46BE7A
:1024F00082EF12F0465008E14528D8A082EF12F092
:1025000084EF12F08FEF12F0000E466E4568000E59
:10251000346E000E356E000E366E000E376E46BEFF
:102520009CEF12F0465006E14504D8B09AEF12F045
:102530009CEF12F0AAEF12F0000E466E000E456EF0
:10254000000E346E000E356E000E366E000E376EC5
:10255000000E446E45C04BF04BA0B1EF12F0B3EF4C
:1025600012F0B6EF12F0368EB7EF12F0369ED8901A
:102570004B30376E6DEF11F01200000E2C6E000E16
:102580002D6E100E2E6E410E2F6E57C030F058C0BB
:1025900031F059C032F05AC033F00BEC19F0D8A02A
:1025A000D4EF12F0D6EF12F00EEF13F0899A10C1AB
:1025B0000CF111C10DF112C10EF113C10FF10101A6
:1025C00008510C5D386E09510D59396E0A510E597A
:1025D0003A6E0B510F593B6E3B503A100BE1400ED7
:1025E000385C380E3958D8A0F8EF12F0FAEF12F034
:1025F0000EEF13F00CC108F10DC109F10EC10AF183
:102600000FC10BF1898AB70E396EA10E386EC40E58
:10261000E82EFED7382EFCD7392EFAD757C02CF02B
:1026200058C02DF059C02EF05AC02FF0000E306E59
:10263000000E316E800E326E410E336E0BEC19F0CF
:10264000D8A025EF13F027EF13F05CEF13F057C07D
:102650002CF058C02DF059C02EF05AC02FF0000EAB
:10266000306E000E316E880E326E410E336E0BEC02
:1026700019F0D8B03EEF13F040EF13F05CEF13F019
:10268000010E0001FA25FA6F000EFB21FB6FFBBF64
:1026900053EF13F0590EFA5D020EFB59D8A053EF19
:1026A00013F055EF13F05CEF13F0000EFB6F000E0C
:1026B000FA6F899A5AEF13F057C02CF058C02DF0DA
:1026C00059C02EF05AC02FF0000E306E000E316E41
:1026D000880E326E410E336E0BEC19F0D8A073EFFA
:1026E00013F075EF13F0AAEF13F057C02CF058C099
:1026F0002DF059C02EF05AC02FF0000E306E000E93
:10270000316E900E326E410E336E0BEC19F0D8B074
:102710008CEF13F08EEF13F0AAEF13F0010E00010F
:10272000F825F86F000EF921F96FF9BFA1EF13F04A
:102730002D0EF85D010EF959D8A0A1EF13F0A3EF0B
:1027400013F0AAEF13F0000EF96F000EF86F899ADC
:10275000A8EF13F057C02CF058C02DF059C02EF040
:102760005AC02FF0000E306E000E316E900E326E99
:10277000410E336E0BEC19F0D8A0C1EF13F0C3EF8C
:1027800013F0F8EF13F057C02CF058C02DF059C0DB
:102790002EF05AC02FF0000E306E000E316E980EE3
:1027A000326E410E336E0BEC19F0D8B0DAEF13F045
:1027B000DCEF13F0F8EF13F0010E0001F625F66FD1
:1027C000000EF721F76FF7BFEFEF13F0F75109E1B4
:1027D000790EF65DD8A0EFEF13F0F1EF13F0F8EFFC
:1027E00013F0000EF76F000EF66F899AF6EF13F0F4
:1027F00057C02CF058C02DF059C02EF05AC02FF001
:10280000000E306E000E316E980E326E410E336E39
:102810000BEC19F0D8A00FEF14F011EF14F02DEF1E
:1028200014F0010E0001F425F46F000EF521F56F90
:10283000F5BF24EF14F0F55109E1100EF45DD8A0B6
:1028400024EF14F026EF14F02DEF14F0000EF56FC6
:10285000000EF46F899A2BEF14F0120000C166F09D
:1028600001C167F002C168F003C169F04DC066F0B4
:102870004EC067F04FC068F050C069F0810E516ED5
:10288000FF0E526E66C053F067C054F068C055F03A
:1028900069C056F0180E52EF14F0D89056325532E7
:1028A00054325332E82E4DEF14F0535051240001AE
:1028B000646F000E5220656F65BF68EF14F06551BC
:1028C00009E1170E645DD8A068EF14F06AEF14F008
:1028D00074EF14F04DC04DF04EC04EF04FC04FF0AD
:1028E00050C050F038EF15F065BF79EF14F07BEF72
:1028F00014F0ECEF14F064C051F0FF0E526EFF0EB6
:10290000536E7F0E546E000E556E51668AEF14F0B2
:1029100092EF14F055345532543253325232512E14
:1029200085EF14F052C060F053C061F054C062F003
:1029300055C063F0000160516615516E6151671515
:10294000526E62516815536E63516915546E515041
:10295000521053105410D8A4B0EF14F0B2EF14F08A
:10296000B4EF14F06AEF14F066C051F067C052F093
:1029700068C053F069C054F0200EC4EF14F0D89032
:102980005432533252325132E82EBFEF14F05150CC
:10299000521053105410D8B4D0EF14F0D2EF14F0FA
:1029A000DAEF14F0605166276151672362516823A2
:1029B00063516923601D516E611D526E621D536E1D
:1029C000631D546E51506617525067175350681765
:1029D0005450691730EF15F066C051F067C052F0DF
:1029E00068C053F069C054F0200EFCEF14F0D8908A
:1029F0005432533252325132E82EF7EF14F0515024
:102A0000521053105410D8A408EF15F00AEF15F027
:102A100014EF15F0000E666F000E676F000E686F02
:102A2000000E696F30EF15F0D8906635516E67353E
:102A3000526E6835536E6935546E515052105310B2
:102A40005410D8B426EF15F028EF15F030EF15F03C
:102A5000000E666F000E676F800E686FBF0E696FA5
:102A600066C04DF067C04EF068C04FF069C050F0CE
:102A70001200000E0001E26F000EE36F000EE46F23
:102A8000000EE56F000EDE6F000EDF6F000EE06FD0
:102A9000000EE16F000E616F000E606FEBEF15F03E
:102AA000000E88EC1EF005C0FCF006C0FDF0FCC076
:102AB00005F0FDC006F0076A086A000E27EC16F064
:102AC00005C013F006C014F007C015F008C016F0DA
:102AD0000A0E176E280E186EA00E196E3B0E1A6E97
:102AE000DBEC0EF013C018F114C019F115C01AF187
:102AF00016C01BF15E0E096EBA0E0A6E210E0B6E29
:102B0000C00E0C6E18C105F019C106F01AC107F00D
:102B10001BC108F044EC0AF005C034F006C035F0E3
:102B200007C036F008C037F04E0E386E620E396EB0
:102B3000900E3A6E3E0E3B6EF0EC10F034C062F038
:102B400035C063F036C064F037C065F0E2C02CF0E9
:102B5000E3C02DF0E4C02EF0E5C02FF062C030F0ED
:102B600063C031F064C032F065C033F00BEC19F093
:102B7000D8B0BDEF15F0BFEF15F0C7EF15F062C08C
:102B8000E2F063C0E3F064C0E4F065C0E5F062C069
:102B90002CF063C02DF064C02EF065C02FF0DEC0B5
:102BA00030F0DFC031F0E0C032F0E1C033F00BECC8
:102BB00019F0D8B0DEEF15F0E0EF15F0E8EF15F002
:102BC00062C0DEF063C0DFF064C0E0F065C0E1F039
:102BD0000001604B612B4D50605D6151800A516E68
:102BE0004E50800A5158D8A0F8EF15F0FAEF15F0C2
:102BF00050EF15F0DEC030F0DFC031F0E0C032F051
:102C0000E1C033F0E2C02CF0E3C02DF0E4C02EF0C0
:102C1000E5C02FF023EC1EF02CC034F02DC035F0B1
:102C20002EC036F02FC037F0000E386E000E396E11
:102C3000000E3A6E400E3B6EF0EC10F034C04DF0DA
:102C400035C04EF036C04FF037C050F012000D6E58
:102C50000D50D8B42EEF16F030EF16F052EF16F0FC
:102C600008BE37EF16F035EF16F052EF16F005C03C
:102C700009F006C00AF007C00BF008C00CF0091EEE
:102C80000A1E0B1E0C1E092A000E0A220B220C2201
:102C900009C00FF00AC010F00BC011F00CC012F008
:102CA0005AEF16F005C00FF006C010F007C011F083
:102CB00008C012F00550061007100810D8A463EFE2
:102CC00016F065EF16F06FEF16F0000E056E000EB1
:102CD000066E000E076E000E086E00EF17F0960EDF
:102CE0000E6E79EF16F00E2AD89012321132103291
:102CF0000F32000E0F14096E000E10140A6E000E33
:102D000011140B6EFE0E12140C6E09500A100B10EB
:102D10000C10D8A48EEF16F090EF16F073EF16F0AB
:102D20009EEF16F00E2A010E0F26000E1022112221
:102D30001222D8901232113210320F32000E0F14BC
:102D4000096E000E10140A6E000E11140B6EFF0EA9
:102D500012140C6E09500A100B100C10D8A4B3EF0B
:102D600016F0B5EF16F092EF16F0BDEF16F00E0666
:102D7000D8900F3610361136123611BEC2EF16F04B
:102D8000C4EF16F0CCEF16F0020E0E60CAEF16F08C
:102D9000CCEF16F0B7EF16F00EB0D1EF16F0D3EF80
:102DA00016F0D4EF16F0119ED8900E320EC009F036
:102DB0000A6A0B6A0C6A09C00CF00B6A0A6A096A93
:102DC00009500F120A5010120B5011120C5012120F
:102DD0000D50D8B4EEEF16F0F0EF16F0F8EF16F055
:102DE00008BEF7EF16F0F5EF16F0F8EF16F0128EBA
:102DF0000FC005F010C006F011C007F012C008F0B7
:102E00001200000E1A6E000E196E000E136E000EE8
:102E1000126E0DEF17F00C4A0D2A010E186E0CC041
:102E2000F6FF0DC0F7FF0800F550200AD8B41BEFDD
:102E300017F01DEF17F03AEF17F0F70E0E6EFF0EBA
:102E40000F6E0CC0F6FF0DC0F7FF0800F550106EB6
:102E5000116A0E5010260F501122115009E1050E73
:102E6000105CD8A036EF17F038EF17F03AEF17F0F4
:102E7000000E186E18C014F0156A14501510D8A45E
:102E800044EF17F046EF17F00BEF17F050EF17F085
:102E9000000E136E010E126E0C4A0D2A85EF17F00C
:102EA0000CC0F6FF0DC0F7FF0800F5500E6E0F6A5C
:102EB0000F50000AD8B45FEF17F085EF17F00E50EF
:102EC0002B0AD8B44CEF17F0060AD8B448EF17F025
:102ED00085EF17F019C005F01AC006F0000E086E55
:102EE0000A0E076E9DEC1FF00CC0F6FF0DC0F7FF39
:102EF0000800F550055E000E065A300E0524196EC6
:102F0000000E06201A6E4CEF17F0D00E0E6EFF0E5C
:102F10000F6E0CC0F6FF0DC0F7FF0800F550106EE5
:102F2000116A0E5010260F50112211500AE10A0E9C
:102F3000105CD8A09EEF17F0A1EF17F0010EA2EFE2
:102F400017F0000E166E176A16501710D8A4ABEFC4
:102F500017F0ADEF17F06AEF17F012501310D8A466
:102F6000B4EF17F0B6EF17F0C4EF17F019C00EF07A
:102F70001AC00FF00E1E0F1E0E4A0F2A0EC00CF0C4
:102F80000FC00DF0C8EF17F019C00CF01AC00DF00B
:102F90001200CFEC1FF0F28EF28C070E0F015B6F68
:102FA000000E5C6F000E5D6F13EC20F0110E4EEC06
:102FB0001CF07A0E0001DD6FC10EDC6F810EE82E71
:102FC000FED7DC2FFCD7DD2FFAD700D0898AB70EC9
:102FD0000001DD6FA10EDC6FC30EE82EFED7DC2FE3
:102FE000FCD7DD2FFAD700D0070E4E6ED00E4D6EF7
:102FF00039EC15F04DC08EF14EC08FF14FC090F1FD
:1030000050C091F1CD0E096ECC0E0A6ECC0E0B6E37
:10301000BD0E0C6E8EC105F08FC106F090C107F099
:1030200091C108F044EC0AF005C034F006C035F058
:1030300007C036F008C037F0CD0E386ECC0E396EB2
:10304000CC0E3A6E3D0E3B6EF0EC10F034C057F0F3
:1030500035C058F036C059F037C05AF0740E000130
:10306000CC6F010ECD6F0F0ECE6F080ECF6F57C015
:10307000D0F058C0D1F059C0D2F05AC0D3F01BECF8
:103080001DF075EC1FF00009D8B449EF18F04BEFB4
:1030900018F051EF18F0740E066E010E076E31EC49
:1030A0001FF0BDEC12F0C0EC1FF0E806D8A45BEFF7
:1030B00018F05DEF18F077EF18F0FAEC1FF0000150
:1030C000FE6FFE05D8A467EF18F069EF18F077EFF0
:1030D00018F0898AB70E0001DD6FA10EDC6FC30EF8
:1030E000E82EFED7DC2FFCD7DD2FFAD700D0070E55
:1030F0000001DD6F170EDC6F6A0EE82EFED7DC2FA5
:10310000FCD7DD2FFAD700F0F4EF17F026EF00F030
:10311000073408340E6E0E50D8A491EF18F093EFD8
:1031200018F09DEF18F0000E056E000E066E000EF2
:10313000076E000E086E0AEF19F005C009F006C010
:103140000AF007C00BF008C00CF0200EADEF18F02D
:10315000D8900C320B320A320932E82EA8EF18F060
:1031600009500D6E078EFF0E0516FF0E0616FF0E98
:103170000716000E0816960E0E5E0EBEC4EF18F06F
:10318000C2EF18F0DAEF18F00E50800A970FD8B09F
:10319000CCEF18F0CEEF18F0D0EF18F093EF18F056
:1031A000D89008320732063205320E3ED0EF18F0C2
:1031B000F2EF18F01F0E0E64E0EF18F0E2EF18F0D7
:1031C000EAEF18F093EF18F0D89005360636073678
:1031D00008360E060E50D8A4F0EF18F0F2EF18F0F3
:1031E000E4EF18F00D50D8B4F8EF18F0FAEF18F03B
:1031F00002EF19F0081E071E061E056C000E0622BF
:103200000722082205C005F006C006F007C007F037
:1032100008C008F01200000E2C14346E000E2D149D
:10322000356E800E2E14366E7F0E2F14376E34508E
:10323000351036103710D8A420EF19F022EF19F00E
:103240002AEF19F0000E2C6E000E2D6E000E2E6E61
:10325000000E2F6E000E3014346E000E3114356ED9
:10326000800E3214366E7F0E3314376E34503510A4
:1032700036103710D8A43FEF19F041EF19F049EF9D
:1032800019F0000E306E000E316E000E326E000E20
:10329000336E2FAE4EEF19F050EF19F059EF19F0D1
:1032A0002C6C2D1ED8B02D2A2E1ED8B02E2A800EA2
:1032B0002F5633AE5EEF19F060EF19F069EF19F099
:1032C000306C311ED8B0312A321ED8B0322A800E6E
:1032D0003356000E2C1A000E2D1A000E2E1A800ED8
:1032E0002F1A000E301A000E311A000E321A800EFC
:1032F000331A30502C5C31502D5832502E583350E8
:103300002F58D8B086EF19F088EF19F08BEF19F02D
:10331000D8908CEF19F0D880120004C10FF005C1CD
:1033200010F006C111F007C112F005C00FF006C081
:1033300010F007C011F008C012F00FC009F010C063
:103340000AF011C00BF012C00CF0180EADEF19F01E
:10335000D8900C320B320A320932E82EA8EF19F05D
:1033600009500D6E0E6A0D500E10D8A4BAEF19F068
:10337000BCEF19F0DCEF19F0D8900F34096E10345F
:103380000A6E11340B6E12340C6E09500A100B10B9
:103390000C10D8A4CEEF19F0D0EF19F0D6EF19F039
:1033A000000E066E020E056E0BEF1AF0000E066E92
:1033B000030E056E0BEF1AF00D280E10D8A4E3EFE4
:1033C00019F0E5EF19F007EF1AF00FC009F010C07F
:1033D0000AF011C00BF012C00CF0090ED89009369B
:1033E0000A360B360C36E82EEEEF19F009500A10AB
:1033F0000B100C10D8B4FFEF19F002EF1AF0010E09
:1034000003EF1AF0000E056E066A0BEF1AF0000EBD
:10341000066E040E056E120005C00CF006C00DF01D
:1034200007C00EF008C00FF00906D8A00A06092848
:1034300006E10A28D8A41FEF1AF021EF1AF02EEFA8
:103440001AF0000E066E000E056E76EF1AF00C4AAA
:103450000D2A0E4A0F2A0906D8A00A060CC0D9FF69
:103460000DC0DAFFDF50D8B438EF1AF03AEF1AF097
:1034700065EF1AF00EC0F6FF0FC0F7FF0800F55019
:103480000009D8B446EF1AF048EF1AF065EF1AF0C9
:1034900009500A10D8B44FEF1AF051EF1AF065EF47
:1034A0001AF00CC0D9FF0DC0DAFFDF500B6E0EC052
:1034B000F6FF0FC0F7FF0800F5500B18D8B463EF04
:1034C0001AF065EF1AF027EF1AF00CC0D9FF0DC003
:1034D000DAFFDF500B6E0EC0F6FF0FC0F7FF0800DB
:1034E000F5500B5C056E066AD8A00606120009505E
:1034F0000A10D8B47EEF1AF080EF1AF089EF1AF0B4
:1035000009500A10D8A487EF1AF089EF1AF08EEF4D
:103510001AF007504BEC20F0DBEF1AF020EE04F02D
:103520000950D9260A50DA22DE50DE10D8B49BEFBB
:103530001AF09DEF1AF0B8EF1AF020EE04F00950DF
:10354000D9260A50DA2210EE02F00950E1260A507C
:10355000E222DE50E65CE650800A0F6EDE50800A02
:103560000F58D8B0B6EF1AF0B8EF1AF0DBEF1AF038
:1035700020EE02F00950D9260A50DA22DECF0BF0F5
:10358000DDCF0CF009C0D9FF0AC0DAFFDECF0DF0A5
:10359000DDCF0EF00B500D24D96E0C500E20DA6EDC
:1035A00007C0DFFF20EE02F00950D9260A50DA22C8
:1035B000DE2A000EDD2212000001ECA1E2EF1AF07B
:1035C000E4EF1AF0EEEF1AF019C010F01AC011F083
:1035D00017C012F018C013F046EC1EF01CBEF3EF3B
:1035E0001AF0F5EF1AF0FBEF1AF01BC020F01CC028
:1035F00021F0FFEF1AF0000E216E000E206E000E7B
:103600001F6E000E1E6E11EF1BF0000E086E200ED6
:10361000076E17C009F018C00AF077EC1AF01E4ABE
:103620001F2A20501E5C1F50800A1D6E2150800AE8
:103630001D58D8A01EEF1BF020EF1BF005EF1BF06C
:103640000001ECB126EF1BF028EF1BF032EF1BF06E
:1036500019C010F01AC011F017C012F018C013F002
:1036600046EC1EF019C005F01AC006F016EC1FF06B
:1036700020500524176E21500620186E1200000EEF
:103680000A6E08BE48EF1BF046EF1BF04EEF1BF032
:10369000076C081ED8B0082A010E0A6E06BE55EF48
:1036A0001BF053EF1BF05BEF1BF0056C061ED8B050
:1036B000062A010E0A1A000E0C6E000E0B6E075041
:1036C0000810D8B466EF1BF068EF1BF090EF1BF00A
:1036D000010E096E70EF1BF0D89007360836092AE4
:1036E00008AE75EF1BF077EF1BF06CEF1BF0D89076
:1036F0000B360C360750055C08500658D8A083EFEF
:103700001BF085EF1BF08AEF1BF00750055E085099
:10371000065A0B80D89008320732092E77EF1BF03B
:103720000A50D8B496EF1BF098EF1BF09CEF1BF0FB
:103730000B6C0C1ED8B00C2A0BC005F00CC006F0A8
:103740001200000E0A6E06BEAAEF1BF0A8EF1BF0D7
:10375000B0EF1BF0056C061ED8B0062A010E0A6EEB
:1037600008BEB7EF1BF0B5EF1BF0BBEF1BF0076C0B
:10377000081ED8B0082A07500810D8B4C2EF1BF0B2
:10378000C4EF1BF0E8EF1BF0010E096ECCEF1BF04D
:10379000D89007360836092A08AED1EF1BF0D3EFD0
:1037A0001BF0C8EF1BF00750055C08500658D8A066
:1037B000DCEF1BF0DEEF1BF0E2EF1BF00750055EC5
:1037C0000850065AD89008320732092ED3EF1BF062
:1037D0000A50D8B4EEEF1BF0F0EF1BF0F4EF1BF043
:1037E000056C061ED8B0062A05C005F006C006F016
:1037F0001200000E05140D6E000E06140E6E800EE3
:1038000007140F6E7F0E0814106E0D500E100F105F
:103810001010D8A40EEF1CF010EF1CF018EF1CF0E5
:10382000000E056E000E066E000E076E000E086E8E
:10383000000E09140D6E000E0A140E6E800E0B148D
:103840000F6E7F0E0C14106E0D500E100F10101016
:10385000D8A42DEF1CF02FEF1CF037EF1CF0000E5A
:10386000096E000E0A6E000E0B6E000E0C6E0950F3
:1038700005180FE10A5006180CE10B50071809E172
:103880000C500818D8B447EF1CF049EF1CF04CEF6F
:103890001CF0D8904DEF1CF0D88012000D6E8A926B
:1038A0000C0E076E000EECEC1FF0000E076E040EFF
:1038B000ECEC1FF0030E076E030EECEC1FF0160E7F
:1038C000076E060EECEC1FF00DC007F0050EECECD9
:1038D0001FF0000E076E010EECEC1FF0010E076EDC
:1038E000110EECEC1FF00F0E076E000EECEC1FF04B
:1038F0000A0E076E080E086E100E096E00EC1EF020
:103900000A0E076E080E086E0A0E096E00EC1EF015
:1039100007EC20F08A821200C6C0CAF0C7C0CBF004
:10392000000E0001E76F000EE66FAAEF1CF0C4C0A6
:10393000AEF0C5C0AFF0CA0EB06F000EB16FC8C018
:10394000B2F0C9C0B3F0A4EC0CF00001AE51E62710
:10395000AF51E723CAC0F6FFCBC0F7FF0800F55010
:103960000009D8A4B6EF1CF0B8EF1CF097EF1CF0DC
:10397000E6C0C4F0E7C0C5F01200BF0E0D6EFF0E2A
:103980000E6E0BC00FF00CC010F00D500F260E5035
:10399000102210500AE11A0E0F5CD8A0D2EF1CF0D2
:1039A000D5EF1CF0010ED6EF1CF0000E116E126A5E
:1039B00011501210D8B4DFEF1CF0E1EF1CF0E8EF6B
:1039C0001CF0200E0B100B6E0C500C6EECEF1CF06C
:1039D0000BC00BF00CC00CF0120007C00BF008C0BD
:1039E0000CF005C00DF006C00EF00B50096E0C5027
:1039F0000A6E0B4A0C2A09C0F6FF0AC0F7FFF86AE4
:103A00000DC0D9FF0EC0DAFF0D4A0E2A070EF7646B
:103A100003D00800F55005D0F6CFE1FFF7CFE2FF65
:103A2000E750DF6EDF50D8A418EF1DF01AEF1DF03D
:103A3000F5EF1CF01200D00E0001D46F000ED56F10
:103A4000CCC0D6F0CDC0D7F0000ED96F000ED86F25
:103A5000000EDB6F000EDA6FD60EC46F000EC56F5E
:103A6000CEC0C6F0CFC0C7F0D40EC86F000EC96F6D
:103A70008CEC1CF00001D851CC25D96ED951CD2148
:103A8000DA6E000EDF6E1200010E0B6E200E0518AE
:103A90000610D8B44EEF1DF050EF1DF069EF1DF089
:103AA000F70E076EFF0E086E05C009F006C00AF09B
:103AB0000750092608500A220A5009E1050E095C40
:103AC000D8A065EF1DF067EF1DF069EF1DF0000E47
:103AD0000B6E0BC005F0066A12008A0EF66E400EE1
:103AE000F76E000EF86E01EE82F010EE0CF0090099
:103AF000F5CFEEFFE550E150FAE101EE00F0820E65
:103B0000EE6AE806FDE100EEDEF0220EEE6AE8065F
:103B1000FDE15A6A596A586A576A5B905B92000ED7
:103B2000F86E0001C9EF17F0010E01011025106FAA
:103B3000000E1121116F000E1221126F000E1321C1
:103B4000136F0001F051F111D8B4A9EF1DF0ABEFE4
:103B50001DF0B8EF1DF002D8B8EF1DF00500FA6EA9
:103B6000F051FD6EF151FE6EF850FF6EFA501200EA
:103B70001200056E000E066E000E066E05AEC3EF57
:103B80001DF0C5EF1DF0C8EF1DF08B82C9EF1DF0D1
:103B90008B92D89005368A84140EE82EFED78A942C
:103BA000140EE82EFED7062A070E0664DAEF1DF083
:103BB000DCEF1DF0BEEF1DF01200000E066E000ED1
:103BC000056E000E066ED89005368A84040EE82E27
:103BD000FED781A6EEEF1DF0F0EF1DF0F1EF1DF026
:103BE00005808A94040EE82EFED7062A070E066486
:103BF000FCEF1DF0FEEF1DF0E3EF1DF0055012008D
:103C00008B9409502009B9EC1DF0000E0C6E0C507D
:103C100007240A6E000E08200B6E0AC0F6FF0BC0C8
:103C2000F7FF0800F550B9EC1DF00C2A040E0C64E7
:103C30001CEF1EF01EEF1EF007EF1EF08B84140E1B
:103C4000E82EFED71200000E301A000E311A000EB8
:103C5000321A800E331A2CC005F02DC006F02EC08B
:103C600007F02FC008F030C009F031C00AF032C0B0
:103C70000BF033C00CF044EC0AF005C02CF006C089
:103C80002DF007C02EF008C02FF01200000E166EA7
:103C9000000E156E57EF1EF014C007F0086A12C030
:103CA00009F013C00AF077EC1AF0154A162A1550DD
:103CB0001024D96E16501120DA6EDF50146E145095
:103CC000D8A465EF1EF067EF1EF04CEF1EF0120057
:103CD000080EB86E900EAB6E240EAC6EE10EAF6E99
:103CE000040EB06E000E056E000E066E5AEC20F04B
:103CF000000E056E000E066E55EC20F0000E056EEF
:103D0000000E066E5FEC20F0000E0001FF6F120047
:103D1000096E09C007F007460746C2500718830B13
:103D20000718C26EC280C282C2B299EF1EF09BEF2A
:103D30001EF094EF1EF0C450086E076AC3500724AB
:103D4000056E000E0820066E12009E90F2C001F073
:103D5000F3C002F089EC1FF00001EE4BEF2BE80EF0
:103D6000EE5D030EEF59D8A0B8EF1EF0BAEF1EF0CB
:103D7000C1EF1EF094EC1DF0000E0001EF6F000E7D
:103D8000EE6F1200BF0E076EFF0E086E05C009F041
:103D900006C00AF00750092608500A220A500AE114
:103DA0001A0E095CD8A0D7EF1EF0DAEF1EF0010E54
:103DB000DBEF1EF0000E056E066A120005500610BD
:103DC00007100810D8B4E7EF1EF0E9EF1EF0F1EF8E
:103DD0001EF0000E051A000E061A000E071A800EBD
:103DE000081A05C005F006C006F007C007F008C0B5
:103DF00008F01200D00E076EFF0E086E05C009F025
:103E000006C00AF00750092608500A220A500AE1A3
:103E10000A0E095CD8A00FEF1FF012EF1FF0010E81
:103E200013EF1FF0000E056E066A120005C007F0C2
:103E300006C008F01EEF1FF0054A062A05C0D9FF8C
:103E400006C0DAFFDF50D8A428EF1FF02AEF1FF0DA
:103E50001CEF1FF00750055C056E08500658066EF3
:103E600012003CEF1FF006C0D9FF07C0DAFFDF5099
:103E700029EC20F0064A072A06C0D9FF07C0DAFF5E
:103E8000DF50D8A446EF1FF048EF1FF033EF1FF0CC
:103E90001200000E896E000E8A6E000E8B6EC70E29
:103EA000926EFE0E936E870E946E040E0F015D6F80
:103EB0003E0E5C6F070E5B6F000E856EF18E12007A
:103EC000000ECC6ED10ECF6E200ECE6ECECFF2F0A5
:103ED000CFCFF3F09E909D80D40E056E400E066EFF
:103EE00050EC20F0010ECD6E1200000E056E9EA863
:103EF0007CEF1FF07EEF1FF087EF1FF0ACAA83EF7F
:103F00001FF085EF1FF087EF1FF0010E056E0550C3
:103F10001200CDA48EEF1FF090EF1FF098EF1FF06E
:103F2000CD900250CF6E01C0CEFFCD809CEF1FF030
:103F30000250CF6E01C0CEFF120005500702F3CF32
:103F400009F0F4CF0AF005500802F3500A26065093
:103F50000702F3500A2609C005F00AC006F0120055
:103F6000700ED36E000ED26E800E9B6E000EB56E7C
:103F7000D2AEBDEF1FF0BFEF1FF0B8EF1FF0120081
:103F800064EC20F0400AD8A4C8EF1FF0CAEF1FF07D
:103F9000CDEF1FF0010ECEEF1FF0000E120068EC07
:103FA00020F049EC1FF0B0EC1FF03EEC20F060EC8C
:103FB0001FF01EEC20F068EC1EF01200076E8B94D0
:103FC0000750B9EC1DF0DDEC1DF0086E8B84140E6B
:103FD000E82EFED708501200086E8B940850200976
:103FE000B9EC1DF00750B9EC1DF08B84140EE82ECF
:103FF000FED712008B94610EB9EC1DF0DDEC1DF0C4
:10400000076E8B84140EE82EFED707501200700E38
:10401000076E070EECEC1FF0E10E34EC20F0E20E20
:1040200034EC20F01200949293949494938693929B
:1040300094808A948B948B928A921200000EC16EA7
:10404000870EC06E000EC36E000EC46E010EC26EEF
:104050001200056E9EA82FEF20F031EF20F02AEF1E
:1040600020F005C0ADFF1200076E8B940750B9EC2D
:104070001DF08B84140EE82EFED71200000E976EF2
:10408000000E906E000E916E1200CDCCCC3DCDCCCA
:10409000CC3D4E62903E066E065029EC20F0120098
:1040A00005C0F0F006C0F1F0120005C020F106C016
:1040B00021F1120005C022F106C023F1120005C053
:1040C0001EF106C01FF11200070EDEEC1FF01200F9
:0640D000D09E1200120058
:020000040020DA
:08000000FFFFFFFFFFFFFFFF00
:020000040030CA
:0E00000023225E3CFFD185FF0FC00FE00F40B2
:00000001FF
