:0400000012EF05F006
:100800000011111111111111111111636965723D5E
:0B08100000617065723D006F6E00001B
:10081C0076EC05F0070E0F015B6F000E5C6F000E9F
:10082C005D6F808A7A0E4A6EC10E496E820EE82E7A
:10083C00FED7492EFCD74A2EFAD7809A4DEC05F0FC
:10084C00110E65EC04F080A62EEF04F030EF04F0EE
:10085C004EEF04F080BA35EF04F038EF04F0010EDF
:10086C0039EF04F0000EFF0A496E493A49468050B0
:10087C004918DF0B4918806E130E4A6E440E496EF0
:10088C00440EE82EFED7492EFCD74A2EFAD700D0BC
:10089C0080AA53EF04F055EF04F05CEF04F0010E66
:1008AC00206E010EE0EC04F029EF04F0000E206E37
:1008BC00000EE0EC04F029EF04F000EF00F0486EBD
:1008CC008A92000E426E040E33EC05F0030E426E5B
:1008DC00030E33EC05F00E0E426E060E33EC05F0F3
:1008EC0048C042F0050E33EC05F0000E426E010ECE
:1008FC0033EC05F00E0E426E000E33EC05F0060ED6
:10090C00426E080E436E100E446EBDEC04F0060EE3
:10091C00426E080E436E0A0E446EBDEC04F041ECC0
:10092C0005F08A821200406E000E416E000E416E80
:10093C0040AEA3EF04F0A5EF04F0A8EF04F08B8217
:10094C00A9EF04F08B92D89040368A84140EE82ECE
:10095C00FED78A94140EE82EFED7412A070E416466
:10096C00BAEF04F0BCEF04F09EEF04F012008B948D
:10097C004450200999EC04F0000E476E4750422475
:10098C00456E000E4320466E45C0F6FF46C0F7FF8D
:10099C000800F55099EC04F0472A040E4764D9EF8F
:1009AC0004F0DBEF04F0C4EF04F08B84140EE82E9B
:1009BC00FED71200446E6DEC05F00E0E426E000E6A
:1009CC0033EC05F08B94A00E99EC04F0445099ECA8
:1009DC0004F08B848A823C0EE82EFED78A920F0E8E
:1009EC00426E000E33EC05F01200000E896E000E04
:1009FC008A6E000E8B6EC70E926EFE0E936E870E75
:100A0C00946E040E0F015D6F3E0E5C6F070E5B6FF4
:100A1C00000E856EF18E120000EE60F01E0EEE6A76
:100A2C00E806FDE100EE01F03F0EEE6AE806FDE19E
:100A3C00000EF86E00010EEF04F0700ED36E000E77
:100A4C00D26E800E9B6E000EB56ED2AE30EF05F0FE
:100A5C0032EF05F02BEF05F01200436E8B944350F0
:100A6C00200999EC04F0425099EC04F08B84140E9C
:100A7C00E82EFED71200700E426E070E33EC05F016
:100A8C00E10E63EC05F0E20E63EC05F012009492BB
:100A9C00939494949386939294808A948B948B924F
:100AAC008A921200000EC16E870EC06E000EC36ECD
:100ABC00000EC46E010EC26E1200426E8B94425038
:100ACC0099EC04F08B84140EE82EFED71200700EF5
:100ADC00426E070E33EC05F0E20E63EC05F01200EB
:100AEC00FBEC04F023EC05F07FEC05F058EC05F082
:100AFC001200000E976E000E906E000E916E12009A
:020000040020DA
:08000000FFFFFFFFFFFFFFFF00
:020000040030CA
:0E00000023225E3CFFD185FF0FC00FE00F40B2
:00000001FF
