:04000000FBEF04F01E
:100800000011111111111111111111005FEC05F0FE
:10081000070E0F015B6F000E5C6F000E5D6F92861E
:10082000898A1F0E4A6E710E496E1E0EE82EFED783
:10083000492EFCD74A2EFAD700D0899A36EC05F01B
:10084000110E4EEC04F0010E3E6E80A62AEF04F06D
:100850002CEF04F03DEF04F0898A3E50C9EC04F01F
:10086000B70E4A6EA10E496EC40EE82EFED7492E71
:10087000FCD74A2EFAD73EEF04F0899A070E4A6E4B
:10088000170E496E6A0EE82EFED7492EFCD74A2E67
:10089000FAD700D025EF04F000EF00F0486E8A92FE
:1008A000000E426E040E1CEC05F0030E426E030EA9
:1008B0001CEC05F0160E426E060E1CEC05F048C04E
:1008C00042F0050E1CEC05F0000E426E010E1CEC11
:1008D00005F00E0E426E000E1CEC05F0060E426E88
:1008E000080E436E100E446EA6EC04F0060E426E27
:1008F000080E436E0A0E446EA6EC04F02AEC05F0D6
:100900008A821200406E000E416E000E416E40AEB3
:100910008CEF04F08EEF04F091EF04F08B8292EFF5
:1009200004F08B92D89040368A84140EE82EFED7BD
:100930008A94140EE82EFED7412A070E4164A3EFD5
:1009400004F0A5EF04F087EF04F012008B944450FC
:10095000200982EC04F0000E476E47504224456E99
:10096000000E4320466E45C0F6FF46C0F7FF080064
:10097000F55082EC04F0472A040E4764C2EF04F0FD
:10098000C4EF04F0ADEF04F08B84140EE82EFED714
:100990001200446E56EC05F00E0E426E000E1CEC7A
:1009A00005F08B94A00E82EC04F0445082EC04F02D
:1009B0008B848A823C0EE82EFED78A920F0E426EFE
:1009C000000E1CEC05F01200000E896E000E8A6EFF
:1009D000000E8B6EC70E926EFE0E936E870E946E97
:1009E000040E0F015D6F3E0E5C6F070E5B6F000E15
:1009F000856EF18E120000EE60F01E0EEE6AE806C3
:100A0000FDE100EE01F03F0EEE6AE806FDE1000EAA
:100A1000F86E000106EF04F0700ED36E000ED26E79
:100A2000800E9B6E000EB56ED2AE19EF05F01BEF77
:100A300005F014EF05F01200436E8B94435020092B
:100A400082EC04F0425082EC04F08B84140EE82E09
:100A5000FED71200700E426E070E1CEC05F0E10E80
:100A60004CEC05F0E20E4CEC05F0120094929394DD
:100A700094949386939294808A948B948B928A9286
:100A80001200000EC16E870EC06E000EC36E000E07
:100A9000C46E010EC26E1200426E8B94425082EC04
:100AA00004F08B84140EE82EFED71200700E426EF6
:100AB000070E1CEC05F0E20E4CEC05F01200E4EC25
:100AC00004F00CEC05F068EC05F041EC05F01200C8
:0E0AD000000E976E000E906E000E916E1200DA
:020000040020DA
:08000000FFFFFFFFFFFFFFFF00
:020000040030CA
:0E00000023225E3CFFD185FF0FC00FE00F40B2
:00000001FF
