:0400000040EF2DF0B0
:100800000011111111111111111111252E33662032
:10081000416D702E0A0D00636965723D006170655F
:10082000723D00494E46004E414E006868580068CF
:10083000686400696E6600686869006E616E0068D1
:10084000686E0068686F0068687500686878007A8C
:1008500058007A64006C66007A69007A6E007A6FDC
:0B086000007A75007A78006F6E0000CF
:10086C009AC0D9FF9BC0DAFFDECFF6FFDDCFF7FFD2
:10087C000800F550250AD8A446EF04F048EF04F020
:10088C0071EF0EF09AC0D9FF9BC0DAFFDE2A000E82
:10089C00DD22000E0001F26F000EF16FF1C0F5F0D9
:1008AC00F2C0F6F0F369F469000EA16F000EA06FB0
:1008BC00A6EF04F0F5819AC0D9FF9BC0DAFFDE2ABF
:1008CC00000EDD22A6EF04F0F58361EF04F0F58550
:1008DC0061EF04F0F58761EF04F0F58961EF04F046
:1008EC00000EA16F010EA06FA6EF04F09AC0D9FF05
:1008FC009BC0DAFFDECFF6FFDDCFF7FF0800F55027
:10090C005B6E5C6A5C50000AD8B48FEF04F076EF33
:10091C0004F05B50200AD8B470EF04F0030AD8B48A
:10092C0073EF04F0080AD8B46DEF04F0060AD8B4DB
:10093C0060EF04F01D0AD8B46AEF04F076EF04F00F
:10094C00A051A111D8B4ADEF04F0AFEF04F07CEFDF
:10095C0004F0F5A1B4EF04F0B6EF04F0B7EF04F037
:10096C00F5939AC0D9FF9BC0DAFFDECFF6FFDDCF3F
:10097C00F7FF0800F5502A0AD8A4C7EF04F0C9EF16
:10098C0004F0F2EF04F09AC0D9FF9BC0DAFFDE2A24
:10099C00000EDD229CC0D9FF9DC0DAFFDFCF5BF0DB
:1009AC00020EDE26DFCF5CF0000EDD225BC0D9FF2D
:1009BC005CC0DAFFDECFF1F0DDCFF2F0F2BFEBEF8F
:1009CC0004F0E9EF04F036EF05F0F581F16DF21F5C
:1009DC00D8B0F22B36EF05F09AC0D9FF9BC0DAFFE6
:1009EC00DECF08F0DDCF09F0EAEC22F008C0F1F020
:1009FC0009C0F2F009EF05F09AC0D9FF9BC0DAFFED
:100A0C00DE2A000EDD22D00E5B6EFF0E5C6E9AC0ED
:100A1C00D9FF9BC0DAFFDECFF6FFDDCFF7FF080072
:100A2C00F5505D6E5E6A5B505D265C505E225E50DA
:100A3C000AE10A0E5D5CD8A026EF05F029EF05F05F
:100A4C00010E2AEF05F0000E0001A26FA36BA2515C
:100A5C00A311D8A434EF05F036EF05F002EF05F042
:100A6C009AC0D9FF9BC0DAFFDECFF6FFDDCFF7FFD0
:100A7C000800F5502E0AD8A446EF05F048EF05F013
:100A8C00C6EF05F0000EF46F000EF36F9AC0D9FF9D
:100A9C009BC0DAFFDE2A000EDD229AC0D9FF9BC074
:100AAC00DAFFDECFF6FFDDCFF7FF0800F5502A0A9C
:100ABC00D8A463EF05F065EF05F082EF05F09AC05E
:100ACC00D9FF9BC0DAFFDE2A000EDD229CC0D9FFC5
:100ADC009DC0DAFFDFCF5BF0020EDE26DFCF5CF0CD
:100AEC00000EDD225BC0D9FF5CC0DAFFDECFF3F075
:100AFC00DDCFF4F0C6EF05F09AC0D9FF9BC0DAFF4A
:100B0C00DECF08F0DDCF09F0EAEC22F008C0F3F0FC
:100B1C0009C0F4F099EF05F09AC0D9FF9BC0DAFF39
:100B2C00DE2A000EDD22D00E5B6EFF0E5C6E9AC0CC
:100B3C00D9FF9BC0DAFFDECFF6FFDDCFF7FF080051
:100B4C00F5505D6E5E6A5B505D265C505E225E50B9
:100B5C000AE10A0E5D5CD8A0B6EF05F0B9EF05F01E
:100B6C00010EBAEF05F0000E0001A46FA56BA451A5
:100B7C00A511D8A4C4EF05F0C6EF05F092EF05F06F
:100B8C009AC0D9FF9BC0DAFFDECFF6FFDDCFF7FFAF
:100B9C000800F550076E086AB3EC2CF00750000102
:100BAC00AC6FAC51D8B4DDEF05F0DFEF05F019EF09
:100BBC0006F09AC0D9FF9BC0DAFFDECF5BF0DDCF29
:100BCC005CF0010E5B26000E5C225BC0F6FF5CC085
:100BDC00F7FF0800F550076E086AB3EC2CF00750CD
:100BEC000001AD6FAD51D8B4FEEF05F000EF06F08B
:100BFC0019EF06F09AC0D9FF9BC0DAFFDECF5BF08D
:100C0C00DDCF5CF0020E5B26000E5C225BC0F6FFB3
:100C1C005CC0F7FF0800F550076E086AB3EC2CF0C7
:100C2C0007500001AE6F9AC0D9FF9BC0DAFFDECF30
:100C3C00F6FFDDCFF7FF0800F550630AD8A429EFC3
:100C4C0006F02BEF06F052EF06F09AC0D9FF9BC0CE
:100C5C00DAFFDE2A000EDD229CC0D9FF9DC0DAFF30
:100C6C00DFCF5BF0020EDE26DFCF5CF0000EDD2264
:100C7C005BC0D9FF5CC0DAFFDF50B96F98C00CF0D5
:100C8C0099C00DF0B9C00EF099EC29F00CC098F099
:100C9C000DC099F08CEF0EF09AC0D9FF9BC0DAFF13
:100CAC00DECF01F0DDCF02F02F0E036E080E046EC6
:100CBC00000E066E030E056E10EC27F001500210AC
:100CCC00D8B46BEF06F06DEF06F088EF06F09AC023
:100CDC00D9FF9BC0DAFFDECF01F0DDCF02F0370E7B
:100CEC00036E080E046E000E066E030E056E10ECFD
:100CFC0027F001500210D8A486EF06F088EF06F01A
:100D0C00C9EF06F0030E9AC0D9FF9BC0DAFFDE26AE
:100D1C00000EDD229CC0D9FF9DC0DAFFDFCF5BF057
:100D2C00020EDE26DFCF5CF0000EDD225BC0D9FFA9
:100D3C005CC0DAFFDF500001AF6F000EAFBFFF0EDB
:100D4C00B06FB16FB26FB36FB46FB56FB66F98C051
:100D5C001EF099C01FF0AFC020F0B0C021F0B1C0A0
:100D6C0022F0B2C023F0B3C024F0B4C025F0B5C05B
:100D7C0026F0B6C027F0FBEC1AF01EC098F01FC08E
:100D8C0099F08CEF0EF09AC0D9FF9BC0DAFFDECF42
:100D9C0001F0DDCF02F0300E036E080E046E000E73
:100DAC00066E020E056E10EC27F001500210D8B43E
:100DBC00E2EF06F0E4EF06F0FFEF06F09AC0D9FF81
:100DCC009BC0DAFFDECF01F0DDCF02F0380E036EF0
:100DDC00080E046E000E066E020E056E10EC27F067
:100DEC0001500210D8A4FDEF06F0FFEF06F027EF3C
:100DFC0007F0020E9AC0D9FF9BC0DAFFDE26000E68
:100E0C00DD229CC0D9FF9DC0DAFFDFCF5BF0020E64
:100E1C00DE26DFCF5CF0000EDD225BC0D9FF5CC0AC
:100E2C00DAFFDECFAFF0DDCFB0F00001000EB0BFC7
:100E3C00FF0EB16FB26FB36FB46FB56FB66FADEF2E
:100E4C0006F09AC0D9FF9BC0DAFFDECFF6FFDDCFEC
:100E5C00F7FF0800F550640AD8B437EF07F039EF04
:100E6C0007F04BEF07F09AC0D9FF9BC0DAFFDECF3B
:100E7C00F6FFDDCFF7FF0800F550690AD8A449EF5B
:100E8C0007F04BEF07F072EF07F09AC0D9FF9BC049
:100E9C00DAFFDE2A000EDD229CC0D9FF9DC0DAFFEE
:100EAC00DFCF5BF0020EDE26DFCF5CF0000EDD2222
:100EBC005BC0D9FF5CC0DAFFDECFAFF0DDCFB0F0A6
:100ECC000001000EB0BFFF0EB16FB26FB36FB46F05
:100EDC00B56FB66FADEF06F09AC0D9FF9BC0DAFFC5
:100EEC00DECF01F0DDCF02F0520E036E080E046E61
:100EFC00000E066E020E056E10EC27F0015002106B
:100F0C00D8B48BEF07F08DEF07F0A8EF07F09AC07D
:100F1C00D9FF9BC0DAFFDECF01F0DDCF02F0580E17
:100F2C00036E080E046E000E066E020E056E10ECBB
:100F3C0027F001500210D8A4A6EF07F0A8EF07F095
:100F4C00D1EF07F0020E9AC0D9FF9BC0DAFFDE2664
:100F5C00000EDD229CC0D9FF9DC0DAFFDFCF5BF015
:100F6C00020EDE26DFCF5CF0000EDD225BC0D9FF67
:100F7C005CC0DAFFDECF5DF0DDCF5EF05DC0AFF0C0
:100F8C005EC0B0F00001B16BB26BB36BB46BB56B00
:100F9C00B66BADEF06F0660E0001AC19D8A4D9EF14
:100FAC0007F0DBEF07F01BEF08F09AC0D9FF9BC0EE
:100FBC00DAFFDECFF6FFDDCFF7FF0800F5CFB9F093
:100FCC009AC0D9FF9BC0DAFFDE2A000EDD229CC03E
:100FDC00D9FF9DC0DAFFDFCF5BF0040EDE26DFCF3A
:100FEC005CF0000EDD225BC0D9FF5CC0DAFFDECF07
:100FFC00A8F0DECFA9F0DECFAAF0DECFABF098C020
:10100C004FF099C050F0A8C051F0A9C052F0AAC03E
:10101C0053F0ABC054F0B9C055F08DEC0EF04FC08E
:10102C0098F050C099F08CEF0EF0AC0E016E000EE3
:10103C00026E550E036E080E046E000E066E020E46
:10104C00056E10EC27F001500210D8A430EF08F018
:10105C0032EF08F0AEEF08F09AC0D9FF9BC0DAFF70
:10106C00DECF5BF0DDCF5CF0010E5B26000E5C2268
:10107C005BC0F6FF5CC0F7FF0800F5CFB9F0BF0E00
:10108C005B6EFF0E5C6E9AC0D9FF9BC0DAFFDECFA1
:10109C00F6FFDDCFF7FF0800F5505D6E5E6A5B5022
:1010AC005D265C505E225E500AE11A0E5D5CD8A093
:1010BC0062EF08F065EF08F0010E66EF08F0000E25
:1010CC000001A66FA76BA651A711D8B470EF08F05A
:1010DC0072EF08F08CEF08F09CC0D9FF9DC0DAFFCE
:1010EC00DFCF5BF0040EDE26DFCF5CF0000EDD22DE
:1010FC005BC0D9FF5CC0DAFFDECFA8F0DECFA9F071
:10110C00DECFAAF0DECFABF0A4EF08F09CC0D9FF85
:10111C009DC0DAFFDFCF5BF0040EDE26DFCF5CF084
:10112C00000EDD225BC0D9FF5CC0DAFFDECFA8F079
:10113C00DECFA9F0DECFAAF0DECFABF0020E9AC064
:10114C00D9FF9BC0DAFFDE26000EDD2205EF08F08A
:10115C009AC0D9FF9BC0DAFFDECF01F0DDCF02F0E1
:10116C00430E036E080E046E000E066E030E056E23
:10117C0010EC27F001500210D8A4C7EF08F0C9EF0B
:10118C0008F009EF09F0030E9AC0D9FF9BC0DAFFF3
:10119C00DE26000EDD229CC0D9FF9DC0DAFFDFCF1A
:1011AC005BF0020EDE26DFCF5CF0000EDD225BC0B2
:1011BC00D9FF5CC0DAFFDF505D6E5D500001BA6F85
:1011CC00BB6BBC6BBD6BBE6BBF6BC06BC16B98C09C
:1011DC001EF099C01FF0BAC020F0BBC021F0BCC0FB
:1011EC0022F0BDC023F0BEC024F0BFC025F0C0C0AB
:1011FC0026F0C1C027F018EC21F01EC098F01FC0DB
:10120C0099F08CEF0EF09AC0D9FF9BC0DAFFDECFBD
:10121C0001F0DDCF02F0440E036E080E046E000EDA
:10122C00066E020E056E10EC27F001500210D8A4C9
:10123C0022EF09F024EF09F04DEF09F0020E9AC0ED
:10124C00D9FF9BC0DAFFDE26000EDD229CC0D9FF41
:10125C009DC0DAFFDFCF5BF0020EDE26DFCF5CF045
:10126C00000EDD225BC0D9FF5CC0DAFFDECF5DF083
:10127C00DDCF5EF05DC0BAF05EC0BBF00001BC6BB0
:10128C00BD6BBE6BBF6BC06BC16BEDEF08F09AC052
:10129C00D9FF9BC0DAFFDECFF6FFDDCFF7FF0800EA
:1012AC00F5506F0AD8A45DEF09F05FEF09F087EFF6
:1012BC0009F09AC0D9FF9BC0DAFFDE2A000EDD22AE
:1012CC009CC0D9FF9DC0DAFFDFCF5BF0020EDE269B
:1012DC00DFCF5CF0000EDD225BC0D9FF5CC0DAFF13
:1012EC00DECF5DF0DDCF5EF05DC0BAF05EC0BBF06E
:1012FC000001BC6BBD6BBE6BBF6BC06BC16BEDEF0C
:10130C0008F09AC0D9FF9BC0DAFFDECF01F0DDCF29
:10131C0002F05E0E036E080E046E000E066E020ED8
:10132C00056E10EC27F001500210D8A4A0EF09F0C4
:10133C00A2EF09F0CBEF09F0020E9AC0D9FF9BC0C7
:10134C00DAFFDE26000EDD229CC0D9FF9DC0DAFF3D
:10135C00DFCF5BF0020EDE26DFCF5CF0000EDD226D
:10136C005BC0D9FF5CC0DAFFDECF5DF0DDCF5EF095
:10137C005DC0BAF05EC0BBF00001BC6BBD6BBE6B58
:10138C00BF6BC06BC16BEDEF08F09AC0D9FF9BC06F
:10139C00DAFFDECF01F0DDCF02F03F0E036E080E58
:1013AC00046E000E066E030E056E10EC27F0015055
:1013BC000210D8A4E4EF09F0E6EF09F00FEF0AF001
:1013CC00030E9AC0D9FF9BC0DAFFDE26000EDD2289
:1013DC009CC0D9FF9DC0DAFFDFCF5BF0020EDE268A
:1013EC00DFCF5CF0000EDD225BC0D9FF5CC0DAFF02
:1013FC00DECFB7F0DDCFB8F0B7C0D9FFB8C0DAFF99
:10140C00EFC0DFFF000E0001996F000E986F8CEF9C
:10141C000EF09AC0D9FF9BC0DAFFDECF01F0DDCF12
:10142C0002F0400E036E080E046E000E066E020EE5
:10143C00056E10EC27F001500210D8A428EF0AF02A
:10144C002AEF0AF050EF0AF0020E9AC0D9FF9BC0A7
:10145C00DAFFDE26000EDD229CC0D9FF9DC0DAFF2C
:10146C00DFCF5BF0020EDE26DFCF5CF0000EDD225C
:10147C005BC0D9FF5CC0DAFFDECFB7F0DDCFB8F0D0
:10148C00B7C0D9FFB8C0DAFFEFC0DEFFF0C0DDFF98
:10149C0008EF0AF09AC0D9FF9BC0DAFFDECFF6FF47
:1014AC00DDCFF7FF0800F5506E0AD8A460EF0AF004
:1014BC0062EF0AF087EF0AF09AC0D9FF9BC0DAFFFF
:1014CC00DE2A000EDD229CC0D9FF9DC0DAFFDFCFE3
:1014DC005BF0020EDE26DFCF5CF0000EDD225BC07F
:1014EC00D9FF5CC0DAFFDECFB7F0DDCFB8F0B7C004
:1014FC00D9FFB8C0DAFFEFC0DEFFF0C0DDFF08EFA8
:10150C000AF09AC0D9FF9BC0DAFFDECF01F0DDCF25
:10151C0002F05B0E036E080E046E000E066E020ED9
:10152C00056E10EC27F001500210D8A4A0EF0AF0C1
:10153C00A2EF0AF0C8EF0AF0020E9AC0D9FF9BC0C6
:10154C00DAFFDE26000EDD229CC0D9FF9DC0DAFF3B
:10155C00DFCF5BF0020EDE26DFCF5CF0000EDD226B
:10156C005BC0D9FF5CC0DAFFDECFB7F0DDCFB8F0DF
:10157C00B7C0D9FFB8C0DAFFEFC0DEFFF0C0DDFFA7
:10158C0008EF0AF09AC0D9FF9BC0DAFFDECFF6FF56
:10159C00DDCFF7FF0800F550700AD8A4D8EF0AF099
:1015AC00DAEF0AF01EEF0BF09AC0D9FF9BC0DAFFFE
:1015BC00DE2A000EDD229CC0D9FF9DC0DAFFDFCFF2
:1015CC005BF0020EDE26DFCF5CF0000EDD225BC08E
:1015DC00D9FF5CC0DAFFDECF5DF0DDCF5EF05DC021
:1015EC00BAF05EC0BBF00001BC6BBD6BBE6BBF6BD9
:1015FC00C06BC16B98C01EF099C01FF0BAC020F030
:10160C00BBC021F0BCC022F0BDC023F0BEC024F092
:10161C00BFC025F0C0C026F0C1C027F0780E286EE0
:10162C006DEC1CF01EC098F01FC099F08CEF0EF002
:10163C009AC0D9FF9BC0DAFFDECFF6FFDDCFF7FFF4
:10164C000800F550730AD8A42EEF0BF030EF0BF016
:10165C005BEF0BF09AC0D9FF9BC0DAFFDE2A000EBD
:10166C00DD229CC0D9FF9DC0DAFFDFCF5BF0020EFC
:10167C00DE26DFCF5CF0000EDD225BC0D9FF5CC044
:10168C00DAFFDECF9EF0DDCF9FF098C00CF099C052
:10169C000DF09EC00EF09FC00FF076EC24F00CC045
:1016AC0098F00DC099F08CEF0EF09AC0D9FF9BC04A
:1016BC00DAFFDECF01F0DDCF02F0470E036E080E2D
:1016CC00046E000E066E030E056E10EC27F0015032
:1016DC000210D8A474EF0BF076EF0BF0B6EF0BF012
:1016EC00030E9AC0D9FF9BC0DAFFDE26000EDD2266
:1016FC009CC0D9FF9DC0DAFFDFCF5BF0020EDE2667
:10170C00DFCF5CF0000EDD225BC0D9FF5CC0DAFFDE
:10171C00DF505D6E5D500001BA6FBB6BBC6BBD6B77
:10172C00BE6BBF6BC06BC16B98C01EF099C01FF035
:10173C00BAC020F0BBC021F0BCC022F0BDC023F069
:10174C00BEC024F0BFC025F0C0C026F0C1C027F039
:10175C0016EC20F01EC098F01FC099F08CEF0EF024
:10176C009AC0D9FF9BC0DAFFDECF01F0DDCF02F0CB
:10177C00480E036E080E046E000E066E020E056E09
:10178C0010EC27F001500210D8A4CFEF0BF0D1EFE2
:10179C000BF0FAEF0BF0020E9AC0D9FF9BC0DAFFE8
:1017AC00DE26000EDD229CC0D9FF9DC0DAFFDFCF04
:1017BC005BF0020EDE26DFCF5CF0000EDD225BC09C
:1017CC00D9FF5CC0DAFFDECF5DF0DDCF5EF05DC02F
:1017DC00BAF05EC0BBF00001BC6BBD6BBE6BBF6BE7
:1017EC00C06BC16B9AEF0BF09AC0D9FF9BC0DAFFAC
:1017FC00DECFF6FFDDCFF7FF0800F550750AD8A451
:10180C000AEF0CF00CEF0CF034EF0CF09AC0D9FF8F
:10181C009BC0DAFFDE2A000EDD229CC0D9FF9DC0E2
:10182C00DAFFDFCF5BF0020EDE26DFCF5CF0000EBE
:10183C00DD225BC0D9FF5CC0DAFFDECF5DF0DDCF0F
:10184C005EF05DC0BAF05EC0BBF00001BC6BBD6B5E
:10185C00BE6BBF6BC06BC16B9AEF0BF09AC0D9FF1C
:10186C009BC0DAFFDECF01F0DDCF02F0610E036E1C
:10187C00080E046E000E066E020E056E10EC27F0BC
:10188C0001500210D8A44DEF0CF04FEF0CF078EF94
:10189C000CF0020E9AC0D9FF9BC0DAFFDE26000EB8
:1018AC00DD229CC0D9FF9DC0DAFFDFCF5BF0020EBA
:1018BC00DE26DFCF5CF0000EDD225BC0D9FF5CC002
:1018CC00DAFFDECF5DF0DDCF5EF05DC0BAF05EC05A
:1018DC00BBF00001BC6BBD6BBE6BBF6BC06BC16B57
:1018EC009AEF0BF09AC0D9FF9BC0DAFFDECF01F064
:1018FC00DDCF02F04B0E036E080E046E000E066E6A
:10190C00030E056E10EC27F001500210D8B491EFC5
:10191C000CF093EF0CF0AEEF0CF09AC0D9FF9BC01B
:10192C00DAFFDECF01F0DDCF02F02B0E036E080ED6
:10193C00046E000E066E030E056E10EC27F00150BF
:10194C000210D8A4ACEF0CF0AEEF0CF003EF0DF0DE
:10195C009AC0D9FF9BC0DAFFDECF5BF0DDCF5CF025
:10196C00020E5B26000E5C225BC0F6FF5CC0F7FF2C
:10197C000800F5CFB9F0030E9AC0D9FF9BC0DAFF6F
:10198C00DE26000EDD229CC0D9FF9DC0DAFFDFCF22
:10199C005BF0020EDE26DFCF5CF0000EDD225BC0BA
:1019AC00D9FF5CC0DAFFDF505D6E5D500001BA6F8D
:1019BC00BB6BBC6BBD6BBE6BBF6BC06BC16B98C0A4
:1019CC001EF099C01FF0BAC020F0BBC021F0BCC003
:1019DC0022F0BDC023F0BEC024F0BFC025F0C0C0B3
:1019EC0026F0C1C027F0B9C028F06DEC1CF01EC069
:1019FC0098F01FC099F08CEF0EF09AC0D9FF9BC0E5
:101A0C00DAFFDECF01F0DDCF02F04C0E036E080ED4
:101A1C00046E000E066E020E056E10EC27F00150DF
:101A2C000210D8B41CEF0DF01EEF0DF039EF0DF0D5
:101A3C009AC0D9FF9BC0DAFFDECF01F0DDCF02F0F8
:101A4C002C0E036E080E046E000E066E020E056E52
:101A5C0010EC27F001500210D8A437EF0DF039EF3D
:101A6C000DF075EF0DF09AC0D9FF9BC0DAFFDECFF9
:101A7C005BF0DDCF5CF0010E5B26000E5C225BC0E0
:101A8C00F6FF5CC0F7FF0800F5CFB9F0020E9AC064
:101A9C00D9FF9BC0DAFFDE26000EDD229CC0D9FFE9
:101AAC009DC0DAFFDFCF5BF0020EDE26DFCF5CF0ED
:101ABC00000EDD225BC0D9FF5CC0DAFFDECF5DF02B
:101ACC00DDCF5EF05DC0BAF05EC0BBF00001BC6B58
:101ADC00BD6BBE6BBF6BC06BC16BE5EF0CF09AC0FE
:101AEC00D9FF9BC0DAFFDECFF6FFDDCFF7FF080092
:101AFC00F550780AD8B485EF0DF087EF0DF099EF1B
:101B0C000DF09AC0D9FF9BC0DAFFDECFF6FFDDCF18
:101B1C00F7FF0800F550580AD8A497EF0DF099EF8D
:101B2C000DF0CCEF0DF09AC0D9FF9BC0DAFFDECFE1
:101B3C00F6FFDDCFF7FF0800F5CFB9F09AC0D9FF5B
:101B4C009BC0DAFFDE2A000EDD229CC0D9FF9DC0AF
:101B5C00DAFFDFCF5BF0020EDE26DFCF5CF0000E8B
:101B6C00DD225BC0D9FF5CC0DAFFDECF5DF0DDCFDC
:101B7C005EF05DC0BAF05EC0BBF00001BC6BBD6B2B
:101B8C00BE6BBF6BC06BC16BE5EF0CF09AC0D9FF9D
:101B9C009BC0DAFFDECF01F0DDCF02F0640E036EE6
:101BAC00080E046E000E066E020E056E10EC27F089
:101BBC0001500210D8B4E5EF0DF0E7EF0DF002EF95
:101BCC000EF09AC0D9FF9BC0DAFFDECF01F0DDCF5B
:101BDC0002F04F0E036E080E046E000E066E020E1F
:101BEC00056E10EC27F001500210D8A400EF0EF097
:101BFC0002EF0EF03EEF0EF09AC0D9FF9BC0DAFF59
:101C0C00DECF5BF0DDCF5CF0010E5B26000E5C22BC
:101C1C005BC0F6FF5CC0F7FF0800F5CFB9F0020E11
:101C2C009AC0D9FF9BC0DAFFDE26000EDD229CC0D5
:101C3C00D9FF9DC0DAFFDFCF5BF0020EDE26DFCFCF
:101C4C005CF0000EDD225BC0D9FF5CC0DAFFDECF9A
:101C5C005DF0DDCF5EF05DC0BAF05EC0BBF00001A0
:101C6C00BC6BBD6BBE6BBF6BC06BC16BE5EF0CF09F
:101C7C009AC0D9FF9BC0DAFFDECFF6FFDDCFF7FFAE
:101C8C000800F550250AD8A44EEF0EF050EF0EF0D8
:101C9C0068EF0EF09AC0D9FF9BC0DAFFDE2A000E67
:101CAC00DD22000E046E250E036E98C005F099C05F
:101CBC0006F06DEC2AF0000E0001996F010E986F82
:101CCC008CEF0EF09AC0D9FF9BC0DAFFDE2A000E13
:101CDC00DD2208EF0AF09AC0D9FF9BC0DAFFDECFF5
:101CEC00F6FFDDCFF7FF0800F550036E046A98C0CD
:101CFC0005F099C006F06DEC2AF09AC0D9FF9BC094
:101D0C00DAFFDE2A000EDD2261EF0EF01200000E6B
:101D1C0000017B6F000E7A6F51C08CF052C08DF0B9
:101D2C0053C08EF054C08FF08FBFA1EF0EF09FEF19
:101D3C000EF0B7EF0EF0000E7B6F010E7A6F8CC0B9
:101D4C0001F08DC002F08EC003F08FC004F01DECCA
:101D5C002FF001C08CF002C08DF003C08EF004C0D7
:101D6C008FF0000E0001936F000E926FF1C07EF0A9
:101D7C00F2C07FF07A517B11D8A4C7EF0EF0C9EFF7
:101D8C000EF0D0EF0EF0F5A5CEEF0EF0D0EF0EF07A
:101D9C00EAEF0EF07A517B11D8A4D7EF0EF0D9EF01
:101DAC000EF0DFEF0EF0000E616F2B0E606FE3EFA5
:101DBC000EF0000E616F2D0E606F60C05CF1924BE7
:101DCC00932B7E07D8A07F078CC001F08DC002F04A
:101DDC008EC003F08FC004F0A2EC28F001040210B6
:101DEC00D8A4FBEF0EF0FDEF0EF054EF0FF0BF0E8A
:101DFC00566EFF0E576E5550586E596A56505826EF
:101E0C005750592259500AE11A0E585CD8A011EFBC
:101E1C000FF014EF0FF0010E15EF0FF0000E000194
:101E2C00626F636B62516311D8B41FEF0FF021EF37
:101E3C000FF02FEF0FF05C0E9225016E010E932127
:101E4C00026E230E036E080E046E12EC2DF03BEFA7
:101E5C000FF05C0E9225016E010E9321026E330E73
:101E6C00036E080E046E12EC2DF00001FD0E7E27A1
:101E7C00FF0E7F234FC013F050C014F05C0E156E94
:101E8C00010E166E7EC017F07FC018F0D2EC2AF04F
:101E9C0013C04FF014C050F0B8EF14F08CC001F028
:101EAC008DC002F08EC003F08FC004F0A2EC28F0BD
:101EBC0001500210D8A465EF0FF067EF0FF0A7EFF9
:101ECC000FF0BF0E566EFF0E576E5550586E596A76
:101EDC00565058265750592259500AE11A0E585C40
:101EEC00D8A07BEF0FF07EEF0FF0010E7FEF0FF01D
:101EFC00000E0001646F656B64516511D8B489EFF5
:101F0C000FF08BEF0FF099EF0FF05C0E9225016E36
:101F1C00010E9321026E270E036E080E046E12EC56
:101F2C002DF03BEF0FF05C0E9225016E010E93210C
:101F3C00026E3B0E036E080E046E12EC2DF03BEF9E
:101F4C000FF0000E0001946F000E956F800E966FCF
:101F5C003F0E976F000E916F000E906F8CC001F0CA
:101F6C008DC002F08EC003F08FC004F0000E056E21
:101F7C00000E066E000E076E000E086EEFEC2BF0D6
:101F8C00D8B0CBEF0FF0CDEF0FF050EF10F0ECEF2F
:101F9C000FF094C02AF095C02BF096C02CF097C08F
:101FAC002DF0000E2E6E000E2F6E200E306E410E98
:101FBC00316E19EC17F02AC094F02BC095F02CC0A0
:101FCC0096F02DC097F00001904B912B8CC043F0F4
:101FDC008DC044F08EC045F08FC046F0000E2E6EC2
:101FEC00000E2F6E200E306E410E316E94C02AF012
:101FFC0095C02BF096C02CF097C02DF019EC17F073
:10200C002AC047F02BC048F02CC049F02DC04AF034
:10201C0020EC28F0D8B015EF10F017EF10F0CFEF40
:10202C000FF037EF10F094C011F095C012F096C07D
:10203C0013F097C014F0000E156E000E166E200EE5
:10204C00176E410E186E2EEC19F011C094F012C0E0
:10205C0095F013C096F014C097F000019007D8A02B
:10206C0091078CC043F08DC044F08EC045F08FC0FA
:10207C0046F094C047F095C048F096C049F097C020
:10208C004AF020EC28F0D8A04EEF10F050EF10F0F2
:10209C0019EF10F055C007F0086AB3EC2CF007509C
:1020AC000001816F81C080F0670E8119D8A461EFA7
:1020BC0010F063EF10F089EF10F0F351F411D8A485
:1020CC006AEF10F06CEF10F070EF10F0000EF46F80
:1020DC00010EF36FF4BF7DEF10F0F45106E1F30540
:1020EC00D8B07BEF10F07DEF10F083EF10F0000E06
:1020FC007D6F060E7C6F92EF10F0F3C07CF0F4C095
:10210C007DF092EF10F0F4BF8EEF10F090EF10F026
:10211C007DEF10F083EF10F0670E8119D8A499EFC2
:10212C0010F09BEF10F0CAEF10F091AFA9EF10F088
:10213C00FC0E905DFF0E9159D8A0A7EF10F0A9EFFF
:10214C0010F0C8EF10F0FF0E566EFF0E576E7CC0ED
:10215C0058F07DC059F0565058265750592290517E
:10216C00585C5950800A5A6E9151800A5A58D8A01E
:10217C00C2EF10F0C4EF10F0C8EF10F0660E806FD5
:10218C00CAEF10F0650E806F7CC072F07DC073F0EA
:10219C00670E8119D8A4D5EF10F0D7EF10F0E7EF48
:1021AC0010F0660E8019D8A4DEEF10F0E0EF10F0FE
:1021BC00E9EF10F091BFE7EF10F0E5EF10F0E9EF69
:1021CC0010F0724B732B660E8019D8A4F0EF10F040
:1021DC00F2EF10F012EF11F091BFF9EF10F0F7EFF2
:1021EC0010F005EF11F0000E946F000E956F800E3D
:1021FC00966F3F0E976F000E916F000E906F670EEB
:10220C008119D8B40CEF11F00EEF11F012EF11F0A0
:10221C009051722791517323000E8B6F000E8A6FB1
:10222C008CC082F08DC083F08EC084F08FC085F09E
:10223C0094C074F095C075F096C076F097C077F0A6
:10224C00A3EF11F082C011F083C012F084C013F020
:10225C0085C014F094C015F095C016F096C017F018
:10226C0097C018F02EEC19F011C02AF012C02BF008
:10227C0013C02CF014C02DF00DEC1FF02AC086F00A
:10228C002BC087F02CC088F02DC089F086C001F0DF
:10229C0087C002F088C003F089C004F09DEC27F0E1
:1022AC0001C078F002C079F082C043F083C044F0E2
:1022BC0084C045F085C046F094C02EF095C02FF038
:1022CC0096C030F097C031F086C02AF087C02BF052
:1022DC0088C02CF089C02DF019EC17F02AC047F0FB
:1022EC002BC048F02CC049F02DC04AF025EC2EF044
:1022FC0043C082F044C083F045C084F046C085F0F2
:10230C0094C011F095C012F096C013F097C014F061
:10231C00000E156E000E166E200E176E410E186E06
:10232C002EEC19F011C094F012C095F013C096F079
:10233C0014C097F000018A4B8B2B72518A5D8B5124
:10234C00800A566E7351800A5658D8A0B0EF11F01F
:10235C00B2EF11F028EF11F094C02AF095C02BF0D9
:10236C0096C02CF097C02DF0000E2E6E000E2F6E26
:10237C00A00E306E400E316E19EC17F02AC086F0AC
:10238C002BC087F02CC088F02DC089F082C043F0A0
:10239C0083C044F084C045F085C046F086C047F049
:1023AC0087C048F088C049F089C04AF020EC28F07A
:1023BC00D8B0E3EF11F0E5EF11F0F0EF11F0000EF3
:1023CC000001866F000E876F000E886F000E896FFC
:1023DC0019EF12F082C001F083C002F084C003F048
:1023EC0085C004F086C005F087C006F088C007F0F1
:1023FC0089C008F0EFEC2BF0D8A007EF12F009EF32
:10240C0012F019EF12F0000178B10FEF12F011EF8A
:10241C0012F019EF12F0000E866F000E876F000E8F
:10242C00886F000E896F8CC001F08DC002F08EC0D9
:10243C0003F08FC004F086C005F087C006F088C09A
:10244C0007F089C008F0B9EC14F001C082F002C0AA
:10245C0083F003C084F004C085F082C043F083C0D5
:10246C0044F084C045F085C046F0000E2E6E000E80
:10247C002F6E200E306E410E316E74C02AF075C076
:10248C002BF076C02CF077C02DF019EC17F02AC089
:10249C0047F02BC048F02CC049F02DC04AF020EC7E
:1024AC0028F0D8A05CEF12F05EEF12F087EF12F07C
:1024BC000001904B912B74C02AF075C02BF076C0A4
:1024CC002CF077C02DF0000E2E6E000E2F6E200E0D
:1024DC00306E410E316E19EC17F02AC074F02BC01F
:1024EC0075F02CC076F02DC077F0660E00018019C7
:1024FC00D8A483EF12F085EF12F087EF12F0724B35
:10250C00732B74C094F075C095F076C096F077C0BC
:10251C0097F0650E00018019D8B497EF12F099EF7F
:10252C0012F09FEF12F090C070F091C071F0A3EF19
:10253C0012F0000E716F000E706F000E6F6F000EB8
:10254C006E6F000E6D6F000E6C6F000E8B6F000EB9
:10255C008A6F9EEF13F082C011F083C012F084C01A
:10256C0013F085C014F094C015F095C016F096C009
:10257C0017F097C018F02EEC19F011C02AF012C009
:10258C002BF013C02CF014C02DF00DEC1FF02AC052
:10259C0086F02BC087F02CC088F02DC089F086C047
:1025AC0001F087C002F088C003F089C004F09DECF4
:1025BC0027F001C078F002C079F00001F5B9E9EF1D
:1025CC0012F0EBEF12F008EF13F078517911D8A458
:1025DC00F2EF12F0F4EF12F008EF13F0670E81191E
:1025EC00D8A4FBEF12F0FDEF12F008EF13F071BF5F
:1025FC0004EF13F002EF13F008EF13F06C4B6D2B9C
:10260C0052EF13F06E516F11D8A40FEF13F011EFBE
:10261C0013F03BEF13F071BF18EF13F016EF13F03C
:10262C003BEF13F05C0E9225D96E010E9321DA6EFE
:10263C002E0EDF6E924B932B7E07D8A07F07000ED9
:10264C006F6F010E6E6F3BEF13F05C0E9225D96E1F
:10265C00010E9321DA6E300EDF6E924B932B7E07B8
:10266C00D8A07F076C07D8A06D076C516D11D8A44A
:10267C0042EF13F044EF13F02BEF13F05C0E9225A6
:10268C00D96E010E9321DA6E7851300FDF6E924BBA
:10269C00932B7E07D8A07F0782C043F083C044F001
:1026AC0084C045F085C046F094C02EF095C02FF044
:1026BC0096C030F097C031F086C02AF087C02BF05E
:1026CC0088C02CF089C02DF019EC17F02AC047F007
:1026DC002BC048F02CC049F02DC04AF025EC2EF050
:1026EC0043C082F044C083F045C084F046C085F0FE
:1026FC0094C011F095C012F096C013F097C014F06E
:10270C00000E156E000E166E200E176E410E186E12
:10271C002EEC19F011C094F012C095F013C096F085
:10272C0014C097F000017007D8A071078A4B8B2B4F
:10273C0072518A5D8B51800A566E7351800A5658BD
:10274C00D8B0ABEF13F0ADEF13F0BBEF13F093BFBA
:10275C00B9EF13F0935109E14B0E925DD8A0B9EF8C
:10276C0013F0BBEF13F0B1EF12F06E516F11D8A450
:10277C00C2EF13F0C4EF13F0D5EF13F0F5A9C9EFC6
:10278C0013F0CBEF13F0D5EF13F05C0E9225D96E4E
:10279C00010E9321DA6E2E0EDF6E924B932B5C0E94
:1027AC009225D96E010E9321DA6E000EDF6E650E46
:1027BC008019D8A4E4EF13F0E6EF13F040EF0FF01C
:1027CC00000E8B6F4F0E8A6F5C0E8A25D96E010E30
:1027DC008B21DA6E000EDF6E000E7B6F000E7A6FAF
:1027EC0091BFFDEF13F0FBEF13F005EF14F0000EAB
:1027FC007B6F010E7A6F906D911FD8B0912B000EEC
:10280C007D6F020E7C6F36EF14F08A07D8A08B0711
:10281C005C0E8A25D96E010E8B21DA6E90C001F008
:10282C0091C002F0000E046E0A0E036E97EC2BF0B2
:10283C000150300FDF6E90C001F091C002F0000E1D
:10284C00046E0A0E036E35EC2BF001C090F002C042
:10285C0091F000017C07D8A07D077E07D8A07F07E8
:10286C0090519111D8A43DEF14F03FEF14F00BEF01
:10287C0014F07DBF4CEF14F07D5106E17C05D8B00F
:10288C004AEF14F04CEF14F00BEF14F08A07D8A0B9
:10289C008B077A517B11D8A456EF14F058EF14F033
:1028AC005EEF14F0000E676F2B0E666F62EF14F084
:1028BC00000E676F2D0E666F5C0E8A25D96E010EA9
:1028CC008B21DA6E66C0DFFF7E07D8A07F078A07F0
:1028DC00D8A08B07BF0E566EFF0E576E5550586E14
:1028EC00596A565058265750592259500AE11A0E17
:1028FC00585CD8A084EF14F087EF14F0010E88EF29
:10290C0014F0000E6A6F6B6B6A516B11D8A491EFC7
:10291C0014F093EF14F099EF14F0000E696F650E3C
:10292C00686F9DEF14F0000E696F450E686F5C0EBA
:10293C008A25D96E010E8B21DA6E68C0DFFF7E0707
:10294C00D8A07F075C0E9225016E010E9321026EBA
:10295C005C0E8A25036E010E8B21046E12EC2DF099
:10296C0040EF0FF012000450800B0D6E0450042445
:10297C000F6E03AEC4EF14F0C6EF14F0C7EF14F0F3
:10298C000F800F50D8B4CDEF14F0CFEF14F0E4EF6C
:10299C0014F00F28D8A4D5EF14F0D7EF14F0DFEF14
:1029AC0014F0000E016E000E026E000E036E000E8F
:1029BC00046E038E000E046EECEF14F0000E016E2C
:1029CC00000E026E000E036E000E046E0850800B9B
:1029DC000E6E0D500E18D8B4F6EF14F0F8EF14F08C
:1029EC00F9EF14F00D8C085008240E6E07AE01EFB1
:1029FC0015F003EF15F004EF15F00E800E50D8B45F
:102A0C000AEF15F00CEF15F021EF15F00E28D8A4F5
:102A1C0012EF15F014EF15F01CEF15F0000E056E0B
:102A2C00000E066E000E076E000E086E078E000E6E
:102A3C00086E29EF15F0000E056E000E066E000EE6
:102A4C00076E000E086E0F500E5CD8B030EF15F00C
:102A5C0032EF15F059EF15F00DAC37EF15F039EFEB
:102A6C0015F03BEF15F0800E0D1A0FC010F00EC0D4
:102A7C000FF010C00EF001C010F005C001F010C036
:102A8C0005F002C010F006C002F010C006F003C042
:102A9C0010F007C003F010C007F004C010F008C01D
:102AAC0004F010C008F0000E106E0F500EC009F0AC
:102ABC000A6A095E000E0A5A0ABE6EEF15F00A5039
:102ACC0009E11A0E095CD8A06EEF15F070EF15F045
:102ADC00A7EF15F00150021003100410D8A479EFE1
:102AEC0015F07CEF15F0010E7DEF15F0000E106E59
:102AFC00000E016E000E026E000E036E000E046ED0
:102B0C000EC00FF0B0EF15F010A08FEF15F091EF95
:102B1C0015F097EF15F0D89010300109106E99EF61
:102B2C0015F0D890103201A09EEF15F0A0EF15F023
:102B3C00A1EF15F0108E043404320332023201324C
:102B4C000F2A0E500F5CD8A0AEEF15F0B0EF15F0B9
:102B5C008AEF15F00DBCB5EF15F0B7EF15F0F7EFE8
:102B6C0015F00F50D8A4BDEF15F0BFEF15F0C9EF5D
:102B7C0015F0000E016E000E026E000E036E000EBC
:102B8C00046E18EF17F0055001260650022207506C
:102B9C0003220850042204A0D6EF15F0D8EF15F04C
:102BAC0084EF16F010A0DDEF15F0DFEF15F0E5EF78
:102BBC0015F0D89010300109106EE7EF15F0D89091
:102BCC00103201A0ECEF15F0EEEF15F0EFEF15F071
:102BDC00108E043404320332023201320F2A84EF95
:102BEC0016F00550015C065002580750035804506B
:102BFC00800A096E0850800A0958D8B008EF16F000
:102C0C000AEF16F035EF16F00150055C096E025014
:102C1C0006580A6E035007580B6E045008580C6E79
:102C2C00FF0E0924016EFF0E0A20026EFF0E0B2010
:102C3C00036EFF0E0C20046E800E0D1A106C1050DB
:102C4C00D8A42BEF16F02DEF16F03DEF16F0010E79
:102C5C000126000E0222032204223DEF16F005503D
:102C6C00015E0650025A0750035A0850045A01508C
:102C7C00021003100410D8A446EF16F048EF16F01B
:102C8C007DEF16F01050D8A44EEF16F050EF16F062
:102C9C007DEF16F0000E016E000E026E000E036E3C
:102CAC00000E046E18EF17F0D8900136023603367A
:102CBC00043610AE64EF16F066EF16F067EF16F000
:102CCC00018010A06CEF16F06EEF16F072EF16F09C
:102CDC00D880103674EF16F0D89010360F50D8B448
:102CEC007AEF16F07CEF16F07DEF16F00F0603AEC0
:102CFC0082EF16F084EF16F05AEF16F0000E0E6EFF
:102D0C0010AE8BEF16F08DEF16F0A5EF16F010C08D
:102D1C0009F07F0E0916D8B496EF16F098EF16F05E
:102D2C009CEF16F0010E0E6EA5EF16F001A0A1EFB0
:102D3C0016F0A3EF16F0A5EF16F098EF16F00E5064
:102D4C00D8B4ABEF16F0ADEF16F0D8EF16F0010ECD
:102D5C000126000E02220322042204A0B8EF16F072
:102D6C00BAEF16F0D8EF16F001C009F002C00AF065
:102D7C0003C00BF004C00CF00C340C320B320A32D2
:102D8C00093209C001F00AC002F00BC003F00CC0FC
:102D9C0004F00F28D8B4D5EF16F0D7EF16F0D8EF13
:102DAC0016F00F2A0F28D8B4DEEF16F0E0EF16F06D
:102DBC00E8EF16F00F50D8A4E6EF16F0E8EF16F097
:102DCC00FAEF16F0000E016E000E026E000E036E8E
:102DDC00000E046E0F50D8A4F6EF16F0F8EF16F0B4
:102DEC00FAEF16F0000E0D6E0FA0FFEF16F001EFCC
:102DFC0017F004EF17F0038E05EF17F0039ED89031
:102E0C000F30046E0DAE0DEF17F00FEF17F010EF43
:102E1C0017F0048E01C001F002C002F003C003F0F1
:102E2C0004C004F012002D50800B366E2D502D2452
:102E3C003C6E2CAE24EF17F026EF17F027EF17F0AF
:102E4C003C803C50D8B42DEF17F02FEF17F042EF29
:102E5C0017F03C28D8A435EF17F037EF17F03FEFF9
:102E6C0017F0000E2A6E000E2B6E000E2C6E000E4C
:102E7C002D6E2C8E4AEF17F0000E2A6E000E2B6E64
:102E8C00000E2C6E000E2D6E3150800B361A315008
:102E9C0031243B6E30AE55EF17F057EF17F058EF6B
:102EAC0017F03B803B50D8B45EEF17F060EF17F093
:102EBC0073EF17F03B28D8A466EF17F068EF17F004
:102ECC0070EF17F0000E2E6E000E2F6E000E306E8F
:102EDC00000E316E308E7BEF17F0000E2E6E000E52
:102EEC002F6E000E306E000E316E3B50D8B481EF59
:102EFC0017F083EF17F08BEF17F03C50D8A489EF45
:102F0C0017F08BEF17F095EF17F0000E2A6E000EEE
:102F1C002B6E000E2C6E000E2D6E2DEF19F0305016
:102F2C002A02F3CF41F0F4CF42F04150376E386AA9
:102F3C00396A3A6A42503D6E3E6A3F6A406A2F5087
:102F4C002B02F3CF41F0F4CF42F041503726000E64
:102F5C00382239223A2242503D26000E3E223F2290
:102F6C0040222E502C02F3CF41F0F4CF42F04150CE
:102F7C003726000E382239223A2242503D26000EC6
:102F8C003E223F22402239C03AF038C039F037C0D7
:102F9C0038F0376A2E502B02F3CF41F0F4CF42F0C9
:102FAC004150372642503822000E3922000E3A2268
:102FBC002F502A02F3CF41F0F4CF42F04150372684
:102FCC0042503822000E3922000E3A2239C03AF013
:102FDC0038C039F037C038F0376A2E502A02F3CF98
:102FEC0041F0F4CF42F04150372642503822000EC7
:102FFC003922000E3A2230502B02F3CF41F0F4CF9D
:10300C0042F041503D2642503E22000E3F22000E1F
:10301C0040222F502C02F3CF41F0F4CF42F041501C
:10302C003D2642503E22000E3F22000E40223050E0
:10303C002C02F3CF41F0F4CF42F04150326E4250AB
:10304C00336E346A356A34C035F033C034F032C074
:10305C0033F0326A32503D2633503E2234503F22F8
:10306C003550402237C032F038C033F039C034F01C
:10307C003AC035F0190E48EF18F0D890353234328A
:10308C0033323232E82E43EF18F032503D263350B3
:10309C003E2234503F223550402239C03AF038C0DD
:1030AC0039F037C038F0376A3B503CC032F0336AE5
:1030BC003226000E3322820E3224416EFF0E332054
:1030CC00426E7EEF18F0D8903D363E363F36403695
:1030DC003AAE73EF18F075EF18F076EF18F03D80FC
:1030EC00D8903736383639363A364106D8A04206AB
:1030FC003FAE83EF18F085EF18F069EF18F0000E73
:10310C003B6E3AAE8CEF18F08EEF18F0B2EF18F071
:10311C00FF0E3714326EFF0E3814336EFF0E391457
:10312C00346E7F0E3A14356E325033103410351025
:10313C00D8B4A3EF18F0A5EF18F0A9EF18F0010E12
:10314C003B6EB2EF18F03DA0AEEF18F0B0EF18F0F8
:10315C00B2EF18F0A5EF18F03B50D8B4B8EF18F058
:10316C00BAEF18F0DEEF18F0010E3D26000E3E22ED
:10317C003F22402240A0C5EF18F0C7EF18F0DEEF59
:10318C0018F03DC032F03EC033F03FC034F040C0C8
:10319C0035F03534353234323332323232C03DF0E0
:1031AC0033C03EF034C03FF035C040F0414A422AB3
:1031BC0042BEE9EF18F0425008E14128D8A0E9EFEF
:1031CC0018F0EBEF18F0F5EF18F0000E3D6E000E56
:1031DC003E6E800E3F6E7F0E406E23EF19F042BEA6
:1031EC0002EF19F0425006E14104D8B000EF19F09B
:1031FC0002EF19F00EEF19F0000E3D6E000E3E6E50
:10320C00000E3F6E000E406E000E366E23EF19F06E
:10321C0041C03CF0FF0E3D16FF0E3E167F0E3F16D2
:10322C00000E40163CA01DEF19F01FEF19F020EF17
:10323C0019F03F8ED8903C30406E365040123DC055
:10324C002AF03EC02BF03FC02CF040C02DF01200F5
:10325C001450800B216E14501424286E13AE39EFC9
:10326C0019F03BEF19F03CEF19F028802850D8B436
:10327C0042EF19F044EF19F059EF19F02828D8A4AF
:10328C004AEF19F04CEF19F054EF19F0000E116ED3
:10329C00000E126E000E136E000E146E138E000EC6
:1032AC00146E61EF19F0000E116E000E126E000E0E
:1032BC00136E000E146E1850800B211A185018241F
:1032CC00296E17AE6CEF19F06EEF19F06FEF19F065
:1032DC0029802950D8B475EF19F077EF19F08CEFDD
:1032EC0019F02928D8A47DEF19F07FEF19F087EF9A
:1032FC0019F0000E156E000E166E000E176E000EF5
:10330C00186E178E000E186E94EF19F0000E156ED5
:10331C00000E166E000E176E000E186E155016105D
:10332C0017101810D8A49DEF19F09FEF19F0B7EFF4
:10333C0019F0000E116E000E126E000E136E000EC0
:10334C00146E800E13127F0E14122150141211C021
:10335C0011F012C012F013C013F014C014F0FAEFF5
:10336C001AF02850D8A4BDEF19F0BFEF19F0C9EF2F
:10337C0019F0000E116E000E126E000E136E000E80
:10338C00146EFAEF1AF0295028C019F01A6A195E57
:10339C00000E1A5A7F0E1924226E000E1A20236E6C
:1033AC0011C01DF012C01EF013C01FF014C020F08D
:1033BC00000E116E000E126E000E136E000E146EC7
:1033CC00000E246E000E256E000E266E000E276E6B
:1033DC00000E296E2AEF1AF02950D8B4F8EF19F024
:1033EC00FAEF19F011EF1AF0D8901D361E361F3671
:1033FC002036D890113612361336143627AE09EF14
:10340C001AF00BEF1AF00CEF1AF01180D89024364A
:10341C0025362636273615501D5C16501E5817506B
:10342C001F5818502058D8A01EEF1AF020EF1AF091
:10343C0029EF1AF0278C15501D5E16501E5A175086
:10344C001F5A1850205A292A190E296430EF1AF0E5
:10345C0032EF1AF0F2EF19F01D501E101F10201051
:10346C00D8B43BEF1AF03DEF1AF055EF1AF0248068
:10347C0055EF1AF0D890113612361336143627AE93
:10348C004AEF1AF04CEF1AF04DEF1AF01180D89069
:10349C0024362536263627362206D8A0230613AE28
:1034AC005AEF1AF05CEF1AF040EF1AF0000E296E8A
:1034BC0027AE63EF1AF065EF1AF089EF1AF0FF0EE2
:1034CC002414196EFF0E25141A6EFF0E26141B6E93
:1034DC007F0E27141C6E19501A101B101C10D8B418
:1034EC007AEF1AF07CEF1AF080EF1AF0010E296EC9
:1034FC0089EF1AF011A085EF1AF087EF1AF089EF17
:10350C001AF07CEF1AF02950D8B48FEF1AF091EF23
:10351C001AF0B5EF1AF0010E1126000E122213222A
:10352C00142214A09CEF1AF09EEF1AF0B5EF1AF0CB
:10353C0011C019F012C01AF013C01BF014C01CF00B
:10354C001C341C321B321A32193219C011F01AC039
:10355C0012F01BC013F01CC014F0224A232A23BE05
:10356C00C0EF1AF0235008E12228D8A0C0EF1AF0BF
:10357C00C2EF1AF0CDEF1AF0000E236E2268000E87
:10358C00116E000E126E000E136E000E146E23BE22
:10359C00DAEF1AF0235006E12204D8B0D8EF1AF073
:1035AC00DAEF1AF0E8EF1AF0000E236E000E226E1E
:1035BC00000E116E000E126E000E136E000E146EC5
:1035CC00000E216E22C028F028A0EFEF1AF0F1EFC8
:1035DC001AF0F4EF1AF0138EF5EF1AF0139ED89040
:1035EC002830146EABEF19F0120020C038F021C057
:1035FC0039F022C03AF023C03BF024C03CF025C087
:10360C003DF026C03EF027C03FF03FBE10EF1BF050
:10361C0013EF1BF0010E14EF1BF0000E366E376A21
:10362C0036503710D8B41DEF1BF01FEF1BF02FEFE7
:10363C001BF03F1E3E1E3D1E3C1E3B1E3A1E391EFD
:10364C00386C000E39223A223B223C223D223E228B
:10365C003F220001F4BF35EF1BF037EF1BF038EFC2
:10366C001BF0F593F4BF45EF1BF0F45106E1F305A5
:10367C00D8B043EF1BF045EF1BF04BEF1BF0000EE7
:10368C00336E010E326E4FEF1BF0F3C032F0F4C00C
:10369C0033F0F1C034F0F2C035F036503710D8A406
:1036AC005AEF1BF05CEF1BF063EF1BF0F5A561EF1D
:1036BC001BF063EF1BF066EF1BF03406D8A0350649
:1036CC00000E416E4F0E406E000E0101AB6FEBEF22
:1036DC001BF04006D8A041065C0E4024D96E010EAA
:1036EC004120DA6E38C001F039C002F03AC003F064
:1036FC003BC004F03CC005F03DC006F03EC007F0F6
:10370C003FC008F00A0E096E000E0A6E000E0B6E1A
:10371C00000E0C6E000E0D6E000E0E6E000E0F6E77
:10372C00000E106E39EC25F001C028F002C029F013
:10373C0003C02AF004C02BF005C02CF006C02DF0FD
:10374C0007C02EF008C02FF028C013F02AC014F0C8
:10375C006AEC2EF01350300FDF6E3206D8A0330611
:10376C003406D8A0350638C001F039C002F03AC092
:10377C0003F03BC004F03CC005F03DC006F03EC079
:10378C0007F03FC008F00A0E096E000E0A6E000E1C
:10379C000B6E000E0C6E000E0D6E000E0E6E000EFB
:1037AC000F6E000E106EB2EC23F001C038F002C0A8
:1037BC0039F003C03AF004C03BF005C03CF006C041
:1037CC003DF007C03EF008C03FF041BEF6EF1BF0E5
:1037DC00415008E14004D8A0F6EF1BF0F8EF1BF0C5
:1037EC0029EF1CF0385039103A103B103C103D10AA
:1037FC003E103F10D8A405EF1CF007EF1CF06FEF44
:10380C001BF033BE14EF1CF0335006E13204D8B079
:10381C0012EF1CF014EF1CF06FEF1BF035BE1FEF16
:10382C001CF0355008E13404D8A01FEF1CF021EF38
:10383C001CF029EF1CF00001F5B327EF1CF029EF69
:10384C001CF06FEF1BF036503710D8A430EF1CF083
:10385C0032EF1CF03AEF1CF00001F5A538EF1CF02C
:10386C003AEF1CF058EF1CF04006D8A04106365039
:10387C003710D8A444EF1CF046EF1CF04CEF1CF0B2
:10388C00000E316E2B0E306E50EF1CF0000E316EB0
:10389C002D0E306E5C0E4024D96E010E4120DA6E76
:1038AC0030C0DFFF1EC013F01FC014F05C0E4024AC
:1038BC00156E010E4120166E34C017F035C018F08D
:1038CC00D2EC2AF013C01EF014C01FF0120000013D
:1038DC00F4BF73EF1CF075EF1CF076EF1CF0F59352
:1038EC00F4BF83EF1CF0F45106E1F305D8B081EF7F
:1038FC001CF083EF1CF089EF1CF0000E366E010EED
:10390C00356E8DEF1CF0F3C035F0F4C036F0F1C01D
:10391C0037F0F2C038F0F5A996EF1CF098EF1CF0D8
:10392C009CEF1CF0FE0E3726FF0E382220C039F01B
:10393C0021C03AF022C03BF023C03CF024C03DF043
:10394C0025C03EF026C03FF027C040F0000E426E6E
:10395C004F0E416E000E0101AB6F68EF1DF041067A
:10396C00D8A042060F0E3914436E446A44BEC8EF09
:10397C001CF0445009E10A0E435CD8A0C8EF1CF0BF
:10398C00CAEF1CF0D2EF1CF0570E4324436E000E0E
:10399C004420446ED8EF1CF0300E4324436E000ECE
:1039AC004420446EBF0E296EFF0E2A6E28502B6EDB
:1039BC002C6A29502B262A502C222C500AE11A0E44
:1039CC002B5CD8A0ECEF1CF0EFEF1CF0010EF0EF2D
:1039DC001CF0000E316E326A31503210D8B4F9EF4F
:1039EC001CF0FBEF1CF02BEF1DF09F0E296EFF0E51
:1039FC002A6E200E43102B6E000E44102C6E295094
:103A0C002B262A502C222C500AE11A0E2B5CD8A003
:103A1C0012EF1DF015EF1DF0010E16EF1DF0000E4C
:103A2C00336E346A33503410D8B41FEF1DF021EFCD
:103A3C001DF02BEF1DF043C007F044C008F0E3EC81
:103A4C002CF007C043F008C044F05C0E4124D96E42
:103A5C00010E4220DA6E43C0DFFF3506D8A03606D1
:103A6C003706D8A0380639C029F03AC02AF03BC036
:103A7C002BF03CC02CF03DC02DF03EC02EF03FC0D2
:103A8C002FF040C030F0050E55EF1DF0D8903032BD
:103A9C002F322E322D322C322B322A322932E82E72
:103AAC004CEF1DF029C039F02AC03AF02BC03BF086
:103ABC002CC03CF02DC03DF02EC03EF02FC03FF08E
:103ACC0030C040F042BE74EF1DF0425009E1020ECE
:103ADC00415CD8A074EF1DF076EF1DF0A7EF1DF040
:103AEC0039503A103B103C103D103E103F10401026
:103AFC00D8A483EF1DF085EF1DF0B5EF1CF036BE9A
:103B0C0092EF1DF0365006E13504D8B090EF1DF061
:103B1C0092EF1DF0B5EF1CF038BE9DEF1DF0385044
:103B2C0008E13704D8A09DEF1DF09FEF1DF0A7EF23
:103B3C001DF00001F5B3A5EF1DF0A7EF1DF0B5EFDB
:103B4C001CF00001F5A9ADEF1DF0AFEF1DF0C5EFB6
:103B5C001DF04106D8A042065C0E4124D96E010E20
:103B6C004220DA6E28C0DFFF4106D8A042065C0E68
:103B7C004124D96E010E4220DA6E300EDF6E1EC06B
:103B8C0013F01FC014F05C0E4124156E010E422080
:103B9C00166E37C017F038C018F0D2EC2AF013C0EC
:103BAC001EF014C01FF01200000E5A6E000E5B6E59
:103BBC00000E5C6E000E5D6E000E0101466F000E75
:103BCC00476F000E486F000E496F000E426F000EDB
:103BDC00436F000E446F000E456F000E596E000EC1
:103BEC00586ED1EF1EF0000EC8EC2EF001C0F7F0AD
:103BFC0002C0F8F0F7C001F0F8C002F0036A046AE2
:103C0C00000E10EC22F001C02AF002C02BF003C011
:103C1C002CF004C02DF00A0E2E6E280E2F6EA00E66
:103C2C00306E3B0E316E19EC17F02AC04EF12BC0E2
:103C3C004FF12CC050F12DC051F1CD0E2E6ECC0E8B
:103C4C002F6ECC0E306E3D0E316EA40E156E700EB6
:103C5C00166E3D0E176E3E0E186E000E056E000EA3
:103C6C00066E200E076EC00E086E4EC101F04FC1DD
:103C7C0002F050C103F051C104F0B9EC14F001C0D2
:103C8C0011F002C012F003C013F004C014F02EECBB
:103C9C0019F011C02AF012C02BF013C02CF014C074
:103CAC002DF019EC17F02AC054F02BC055F02CC095
:103CBC0056F02DC057F0660E2E6E660E2F6E660EE9
:103CCC00306E3F0E316E5AC02AF05BC02BF05CC0D8
:103CDC002CF05DC02DF019EC17F02AC001F02BC0B0
:103CEC0002F02CC003F02DC004F054C005F055C0F8
:103CFC0006F056C007F057C008F0B9EC14F001C03C
:103D0C005AF002C05BF003C05CF004C05DF046C129
:103D1C0043F047C144F048C145F049C146F05AC090
:103D2C0047F05BC048F05CC049F05DC04AF020EC45
:103D3C0028F0D8B0A4EF1EF0A6EF1EF0AEEF1EF0E8
:103D4C005AC046F15BC047F15CC048F15DC049F117
:103D5C005AC043F05BC044F05CC045F05DC046F017
:103D6C0042C147F043C148F044C149F045C14AF053
:103D7C0020EC28F0D8B0C5EF1EF0C7EF1EF0CFEF47
:103D8C001EF05AC042F15BC043F15CC044F15DC00F
:103D9C0045F1584A592A4F50585C5950800A536E75
:103DAC005050800A5358D8A0DEEF1EF0E0EF1EF002
:103DBC00F9EF1DF042C147F043C148F044C149F04E
:103DCC0045C14AF046C143F047C144F048C145F0F3
:103DDC0049C146F025EC2EF043C011F044C012F05E
:103DEC0045C013F046C014F0000E156E000E166E92
:103DFC00000E176E400E186E2EEC19F011C04FF01D
:103E0C0012C050F013C051F014C052F0120032C165
:103E1C003AF033C13BF034C13CF035C13DF02AC01F
:103E2C003AF02BC03BF02CC03CF02DC03DF0810E85
:103E3C002E6EFF0E2F6E3AC030F03BC031F03CC0FE
:103E4C0032F03DC033F0180E31EF1FF0D890333202
:103E5C00323231323032E82E2CEF1FF030502E241B
:103E6C00386E000E2F20396E39BE46EF1FF03950D8
:103E7C0009E1170E385CD8A046EF1FF048EF1FF091
:103E8C0052EF1FF02AC02AF02BC02BF02CC02CF0C4
:103E9C002DC02DF015EF20F039BE57EF1FF059EF64
:103EAC001FF0C9EF1FF038C02EF0FF0E2F6EFF0E63
:103EBC00306E7F0E316E000E326E2E6668EF1FF084
:103ECC0070EF1FF032343232313230322F322E2E2C
:103EDC0063EF1FF02FC034F030C035F031C036F036
:103EEC0032C037F034503A142E6E35503B142F6ECE
:103EFC0036503C14306E37503D14316E2E502F100E
:103F0C0030103110D8A48DEF1FF08FEF1FF091EF10
:103F1C001FF048EF1FF03AC02EF03BC02FF03CC012
:103F2C0030F03DC031F0200EA1EF1FF0D8903132AF
:103F3C0030322F322E32E82E9CEF1FF02E502F10E5
:103F4C0030103110D8B4ADEF1FF0AFEF1FF0B7EF5A
:103F5C001FF034503A2635503B2236503C22375015
:103F6C003D22341C2E6E351C2F6E361C306E371CC9
:103F7C00316E2E503A162F503B1630503C163150A5
:103F8C003D160DEF20F03AC02EF03BC02FF03CC098
:103F9C0030F03DC031F0200ED9EF1FF0D890313207
:103FAC0030322F322E32E82ED4EF1FF02E502F103D
:103FBC0030103110D8A4E5EF1FF0E7EF1FF0F1EF50
:103FCC001FF0000E3A6E000E3B6E000E3C6E000EA3
:103FDC003D6E0DEF20F0D8903A342E6E3B342F6EA0
:103FEC003C34306E3D34316E2E502F103010311069
:103FFC00D8B403EF20F005EF20F00DEF20F0000E09
:10400C003A6E000E3B6E800E3C6EBF0E3D6E3AC09B
:10401C002AF03BC02BF03CC02CF03DC02DF0120020
:10402C000001F4BF1CEF20F01EEF20F01FEF20F07A
:10403C00F593F4BF2CEF20F0F45106E1F305D8B062
:10404C002AEF20F02CEF20F032EF20F0000E316E32
:10405C00010E306E36EF20F0F3C030F0F4C031F0CA
:10406C00F1C032F0F2C033F020C034F021C035F092
:10407C0022C036F023C037F024C038F025C039F008
:10408C0026C03AF027C03BF0000E3D6E4F0E3C6E42
:10409C00000E0101AB6FC9EF20F03C06D8A03D0625
:1040AC005C0E3C24D96E010E3D20DA6E34C001F05A
:1040BC0035C002F036C003F037C004F038C005F04C
:1040CC0039C006F03AC007F03BC008F00A0E096E82
:1040DC00000E0A6E000E0B6E000E0C6E000E0D6EB6
:1040EC00000E0E6E000E0F6E000E106E05EC2AF018
:1040FC0001C028F002C029F003C02AF004C02BF044
:10410C0005C02CF006C02DF007C02EF008C02FF013
:10411C002850300FDF6E3006D8A031063206D8A0FA
:10412C00330634C001F035C002F036C003F037C09E
:10413C0004F038C005F039C006F03AC007F03BC0B7
:10414C0008F00A0E096E000E0A6E000E0B6E000EC1
:10415C000C6E000E0D6E000E0E6E000E0F6E000E2D
:10416C00106E21EC29F001C034F002C035F003C010
:10417C0036F004C037F005C038F006C039F007C07F
:10418C003AF008C03BF03C503D10D8B4D0EF20F0D2
:10419C00D2EF20F003EF21F03450351036103710E9
:1041AC00381039103A103B10D8A4DFEF20F0E1EFB3
:1041BC0020F053EF20F031BEEEEF20F0315006E14D
:1041CC003004D8B0ECEF20F0EEEF20F053EF20F0FD
:1041DC0033BEF9EF20F0335008E13204D8A0F9EFE8
:1041EC0020F0FBEF20F003EF21F00001F5B301EF1D
:1041FC0021F003EF21F053EF20F01EC013F01FC08D
:10420C0014F05C0E3C24156E010E3D20166E32C06F
:10421C0017F033C018F0D2EC2AF013C01EF014C003
:10422C001FF012000001F4BF1EEF21F020EF21F06F
:10423C0021EF21F0F593F4BF2EEF21F0F45106E1BC
:10424C00F305D8B02CEF21F02EEF21F034EF21F054
:10425C00000E316E010E306E38EF21F0F3C030F0ED
:10426C00F4C031F0F1C034F0F2C035F020C036F0BB
:10427C0021C037F022C038F023C039F024C03AF006
:10428C0025C03BF026C03CF027C03DF0000E3F6E31
:10429C004F0E3E6E000E0101AB6F000E336E000E22
:1042AC00326E9EEF21F03E06D8A03F06070E361464
:1042BC00326E336A5C0E3E24D96E010E3F20DA6EEC
:1042CC003250300FDF6E3006D8A031063406D8A03D
:1042DC00350636C028F037C029F038C02AF039C06E
:1042EC002BF03AC02CF03BC02DF03CC02EF03DC062
:1042FC002FF0040E8BEF21F0D8902F322E322D326E
:10430C002C322B322A3229322832E82E82EF21F03D
:10431C0028C036F029C037F02AC038F02BC039F04D
:10432C002CC03AF02DC03BF02EC03CF02FC03DF01D
:10433C003FBEA9EF21F03F5008E13E04D8A0A9EF01
:10434C0021F0ABEF21F0DCEF21F0365037103810B4
:10435C0039103A103B103C103D10D8A4B8EF21F0A6
:10436C00BAEF21F059EF21F031BEC7EF21F03150F7
:10437C0006E13004D8B0C5EF21F0C7EF21F059EFBA
:10438C0021F035BED2EF21F0355008E13404D8A02D
:10439C00D2EF21F0D4EF21F0DCEF21F00001F5B3E6
:1043AC00DAEF21F0DCEF21F059EF21F00001F5A953
:1043BC00E2EF21F0E4EF21F0FBEF21F0325033106B
:1043CC00D8B4EBEF21F0EDEF21F0FBEF21F03E063E
:1043DC00D8A03F065C0E3E24D96E010E3F20DA6E4B
:1043EC00300EDF6E3406D8A035061EC013F01FC089
:1043FC0014F05C0E3E24156E010E3F20166E34C078
:10440C0017F035C018F0D2EC2AF013C01EF014C00F
:10441C001FF01200096E0950D8B417EF22F019EFF3
:10442C0022F03BEF22F004BE20EF22F01EEF22F030
:10443C003BEF22F001C005F002C006F003C007F00C
:10444C0004C008F0051E061E071E081E052A000ED5
:10445C0006220722082205C00BF006C00CF007C08C
:10446C000DF008C00EF043EF22F001C00BF002C0BB
:10447C000CF003C00DF004C00EF00150021003103C
:10448C000410D8A44CEF22F04EEF22F058EF22F09B
:10449C00000E016E000E026E000E036E000E046E16
:1044AC00E9EF22F0960E0A6E62EF22F00A2AD890FB
:1044BC000E320D320C320B32000E0B14056E000E48
:1044CC000C14066E000E0D14076EFE0E0E14086E04
:1044DC000550061007100810D8A477EF22F079EFDA
:1044EC0022F05CEF22F087EF22F00A2A010E0B2655
:1044FC00000E0C220D220E22D8900E320D320C32F0
:10450C000B32000E0B14056E000E0C14066E000E12
:10451C000D14076EFF0E0E14086E055006100710D2
:10452C000810D8A49CEF22F09EEF22F07BEF22F033
:10453C00A6EF22F00A06D8900B360C360D360E3646
:10454C000DBEABEF22F0ADEF22F0B5EF22F0020E74
:10455C000A60B3EF22F0B5EF22F0A0EF22F00AB020
:10456C00BAEF22F0BCEF22F0BDEF22F00D9ED890F6
:10457C000A320AC005F0066A076A086A05C008F024
:10458C00076A066A056A05500B1206500C12075092
:10459C000D1208500E120950D8B4D7EF22F0D9EFF3
:1045AC0022F0E1EF22F004BEE0EF22F0DEEF22F089
:1045BC00E1EF22F00E8E0BC001F00CC002F00DC02A
:1045CC0003F00EC004F01200000E166E000E156EF5
:1045DC00000E0F6E000E0E6EF6EF22F0084A092A3E
:1045EC00010E146E08C0F6FF09C0F7FF0800F55065
:1045FC00200AD8B404EF23F006EF23F023EF23F0C6
:10460C00F70E0A6EFF0E0B6E08C0F6FF09C0F7FF1F
:10461C000800F5500C6E0D6A0A500C260B500D223A
:10462C000D5009E1050E0C5CD8A01FEF23F021EF13
:10463C0023F023EF23F0000E146E14C010F0116A57
:10464C0010501110D8A42DEF23F02FEF23F0F4EF1E
:10465C0022F039EF23F0000E0F6E010E0E6E084A99
:10466C00092A6EEF23F008C0F6FF09C0F7FF080017
:10467C00F5500A6E0B6A0B50000AD8B448EF23F0C1
:10468C006EEF23F00A502B0AD8B435EF23F0060A4C
:10469C00D8B431EF23F06EEF23F015C001F016C043
:1046AC0002F0000E046E0A0E036E9CEC2FF008C094
:1046BC00F6FF09C0F7FF0800F550015E000E025A24
:1046CC00300E0124156E000E0220166E35EF23F00D
:1046DC00D00E0A6EFF0E0B6E08C0F6FF09C0F7FF76
:1046EC000800F5500C6E0D6A0A500C260B500D226A
:1046FC000D500AE10A0E0C5CD8A087EF23F08AEF6C
:10470C0023F0010E8BEF23F0000E126E136A125081
:10471C001310D8A494EF23F096EF23F053EF23F06B
:10472C000E500F10D8A49DEF23F09FEF23F0ADEFA8
:10473C0023F015C00AF016C00BF00A1E0B1E0A4A15
:10474C000B2A0AC008F00BC009F0B1EF23F015C01A
:10475C0008F016C009F01200000E126E10BEBBEF6E
:10476C0023F0B9EF23F0CDEF23F0101E0F1E0E1E19
:10477C000D1E0C1E0B1E0A1E096C000E0A220B22AB
:10478C000C220D220E220F221022010E126E08BED8
:10479C00D4EF23F0D2EF23F0E6EF23F0081E071E30
:1047AC00061E051E041E031E021E016C000E0222B4
:1047BC00032204220522062207220822010E121AC5
:1047CC0020EE13F0070EDE6AE806FDE209500A102F
:1047DC000B100C100D100E100F101010D8B4F9EFA8
:1047EC0023F0FBEF23F04DEF24F0010E116E09EFD7
:1047FC0024F0D89009360A360B360C360D360E36A8
:10480C000F361036112A10AE0EEF24F010EF24F0F4
:10481C00FFEF23F0D89013361436153616361736AC
:10482C00183619361A360950015C0A5002580B50CA
:10483C0003580C5004580D5005580E5006580F5084
:10484C00075810500858D8A02EEF24F030EF24F061
:10485C0041EF24F00950015E0A50025A0B50035AE2
:10486C000C50045A0D50055A0E50065A0F50075A48
:10487C001050085A1380D89010320F320E320D326D
:10488C000C320B320A320932112E10EF24F0125076
:10489C00D8B453EF24F055EF24F065EF24F01A1E32
:1048AC00191E181E171E161E151E141E136C000E34
:1048BC001422152216221722182219221A2213C08A
:1048CC0001F014C002F015C003F016C004F017C0BC
:1048DC0005F018C006F019C007F01AC008F0120055
:1048EC0021EEE6F010EE11F0060EDBCFE3FFE8064A
:1048FC00FCE20EC01CF00FC01DF01C501D10D8A403
:10490C008AEF24F08CEF24F090EF24F0110E1C6E43
:10491C00000E1D6E1CC001F01DC002F094EC2DF0B9
:10492C0001C020F002C021F0F3C01EF0F4C01FF053
:10493C001FBEA3EF24F0A5EF24F0BAEF24F0205013
:10494C001E5C1F50800A106E2150800A1058D8A08F
:10495C00B2EF24F0B4EF24F0B6EF24F0BAEF24F069
:10496C001EC020F01FC021F020C01EF021C01FF07F
:10497C00F1C01AF0F2C01BF00001F5B1C8EF24F041
:10498C00CAEF24F0E7EF24F0D8EF24F0000E046E09
:10499C00200E036E0CC005F00DC006F06DEC2AF075
:1049AC00204A212A1A50205C2150800A106E1B507C
:1049BC00800A1058D8A0E5EF24F0E7EF24F0CCEFF4
:1049CC0024F0000E196E000E186E00EF25F01CC0BE
:1049DC00D9FF1DC0DAFFDF50106E1050036E046A51
:1049EC000CC005F00DC006F06DEC2AF01C4A1D2A17
:1049FC00184A192A1E50185C1950800A106E1F5044
:104A0C00800A1058D8A00DEF25F00FEF25F0EDEF30
:104A1C0024F00001F5A115EF25F017EF25F034EF88
:104A2C0025F025EF25F0000E046E200E036E0CC051
:104A3C0005F00DC006F06DEC2AF0204A212A1A5020
:104A4C00205C2150800A106E1B50800A1058D8A090
:104A5C0032EF25F034EF25F019EF25F020C00CF0E3
:104A6C0021C00DF01200000E126E08BE42EF25F0B0
:104A7C0040EF25F054EF25F0081E071E061E051EFC
:104A8C00041E031E021E016C000E022203220422CD
:104A9C000522062207220822010E126E10BE5BEFC1
:104AAC0025F059EF25F06BEF25F0101E0F1E0E1E92
:104ABC000D1E0C1E0B1E0A1E096C000E0A220B2268
:104ACC000C220D220E220F22102209500A100B105C
:104ADC000C100D100E100F101010D8B478EF25F02C
:104AEC007AEF25F0C2EF25F0010E116E88EF25F05C
:104AFC00D89009360A360B360C360D360E360F3674
:104B0C001036112A10AE8DEF25F08FEF25F07EEFC9
:104B1C0025F00950015C0A5002580B5003580C50F8
:104B2C0004580D5005580E5006580F500758105089
:104B3C000858D8A0A4EF25F0A6EF25F0B6EF25F085
:104B4C000950015E0A50025A0B50035A0C50045A79
:104B5C000D50055A0E50065A0F50075A1050085A4D
:104B6C00D89010320F320E320D320C320B320A3218
:104B7C000932112E8FEF25F01250D8B4C8EF25F062
:104B8C00CAEF25F0DAEF25F0081E071E061E051EDB
:104B9C00041E031E021E016C000E022203220422BC
:104BAC00052206220722082201C001F002C002F0F1
:104BBC0003C003F004C004F005C005F006C006F005
:104BCC0007C007F008C008F012000EEC30F0070E1A
:104BDC000F015B6F000E5C6F000E5D6F898A7A0EA1
:104BEC000001EE6FC10EED6F810EE82EFED7ED2F9A
:104BFC00FCD7EE2FFAD700D0899A03EC30F0110EC7
:104C0C0044EC2CF0000E506EC80E4F6EDAEC1DF01A
:104C1C004FC04AF150C04BF151C04CF152C04DF154
:104C2C004AC12AF04BC12BF04CC12CF04DC12DF0D8
:104C3C00F40E2E6EFD0E2F6E340E306E3F0E316E56
:104C4C0019EC17F02AC03EF12BC03FF12CC040F1FB
:104C5C002DC041F1CA0E0001E16F010EE26F000E92
:104C6C00E46F0E0EE36F0B0EE56F080EE66F3EC1A0
:104C7C00E7F03FC1E8F040C1E9F041C1EAF055EC82
:104C8C002FF0CA0E026E010E036E6DEC2FF0BFEC0E
:104C9C002FF0E806D8A455EF26F057EF26F071EF69
:104CAC0026F0EAEC2FF00001FC6FFC05D8A461EFB4
:104CBC0026F063EF26F067EF26F05F80898A71EFAC
:104CCC0026F0FC51D8A46DEF26F06FEF26F071EFB3
:104CDC0026F05F90899A070E0001EE6F170EED6FAC
:104CEC006A0EE82EFED7ED2FFCD7EE2FFAD700F088
:104CFC0008EF26F000EF00F0800E0001CD5DD8A08B
:104D0C008AEF26F08CEF26F096EF26F0000E0101CC
:104D1C00536F4B0E526F0001CA69CB690FEF27F02E
:104D2C00CAC0DBF0CBC0DCF0CD5109E1020ECC5D8A
:104D3C00D8A0A3EF26F0A5EF26F0B1EF26F0FF0EDA
:104D4C00CC25DF6FFF0ECD21E06F000EDE6F000E65
:104D5C00DD6FB9EF26F0000EE06F010EDF6F000E75
:104D6C00DE6F010EDD6FDB0EC26F000EC36FCEC0A7
:104D7C00C4F0CFC0C5F0D0C0C6F0D1C0C7F082EC33
:104D8C002CF0C2C0D9F0C3C0DAF00001CC51CD1167
:104D9C00D8B4D3EF26F0D5EF26F00BEF27F0DABF1F
:104DAC00DAEF26F0DCEF26F00BEF27F0FF0ED26FD8
:104DBC00FF0ED36FCCC0D4F0CDC0D5F0D251D427D8
:104DCC00D351D523D451D95DDA51800AD66FD55140
:104DDC00800AD659D8A0F5EF26F0F7EF26F0FFEFB2
:104DEC0026F0FF0ECC25D76FFF0ECD21D86F03EF29
:104DFC0027F0D9C0D7F0DAC0D8F0D751CA25D96E70
:104E0C00D851CB21DA6E000EDF6ED9C0CAF0DAC0F1
:104E1C00CBF0120001C008F002C009F003C00AF088
:104E2C0004C00BF00506D8A00606052806E10628E6
:104E3C00D8A423EF27F025EF27F032EF27F0000E50
:104E4C00026E000E016E9CEF27F0084A092A0A4AEE
:104E5C000B2A0506D8A0060608C0F6FF09C0F7FF06
:104E6C00F86A070EF76403D00800F55005D0F6CFAA
:104E7C00E9FFF7CFEAFFEF500009D8B448EF27F06D
:104E8C004AEF27F080EF27F00AC0F6FF0BC0F7FFC0
:104E9C000800F5500009D8B456EF27F058EF27F06A
:104EAC0080EF27F005500610D8B45FEF27F061EFC4
:104EBC0027F080EF27F00AC0F6FF0BC0F7FF0800C1
:104ECC00F5CF07F008C0F6FF09C0F7FFF86A070E28
:104EDC00F76403D00800F55005D0F6CFE9FFF7CF03
:104EEC00EAFFEF500718D8B47EEF27F080EF27F0D9
:104EFC002BEF27F008C0F6FF09C0F7FFF86A070E82
:104F0C00F76403D00800F55005D0F6CFE9FFF7CFD2
:104F1C00EAFFEF50076E0AC0F6FF0BC0F7FF080060
:104F2C00F550075C016E026AD8A002061200033429
:104F3C0004340A6E0A50D8A4A6EF27F0A8EF27F085
:104F4C00B2EF27F0000E016E000E026E000E036E23
:104F5C00000E046E1FEF28F001C005F002C006F031
:104F6C0003C007F004C008F0200EC2EF27F0D89061
:104F7C000832073206320532E82EBDEF27F0055015
:104F8C00096E038EFF0E0116FF0E0216FF0E03169E
:104F9C00000E0416960E0A5E0ABED9EF27F0D7EF64
:104FAC0027F0EFEF27F00A50800A970FD8B0E1EF07
:104FBC0027F0E3EF27F0E5EF27F0A8EF27F0D890E4
:104FCC0004320332023201320A3EE5EF27F007EFDA
:104FDC0028F01F0E0A64F5EF27F0F7EF27F0FFEF2C
:104FEC0027F0A8EF27F0D8900136023603360436A6
:104FFC000A060A50D8A405EF28F007EF28F0F9EFBD
:10500C0027F00950D8B40DEF28F00FEF28F017EF68
:10501C0028F0041E031E021E016C000E0222032245
:10502C00042201C001F002C002F003C003F004C06E
:10503C0004F01200000E43144B6E000E44144C6E20
:10504C00800E45144D6E7F0E46144E6E4B504C1018
:10505C004D104E10D8A435EF28F037EF28F03FEF65
:10506C0028F0000E436E000E446E000E456E000ECE
:10507C00466E000E47144B6E000E48144C6E800E9C
:10508C0049144D6E7F0E4A144E6E4B504C104D1001
:10509C004E10D8A454EF28F056EF28F05EEF28F00D
:1050AC00000E476E000E486E000E496E000E4A6EE2
:1050BC0046AE63EF28F065EF28F06EEF28F0436CF6
:1050CC00441ED8B0442A451ED8B0452A800E4656F8
:1050DC004AAE73EF28F075EF28F07EEF28F0476C9E
:1050EC00481ED8B0482A491ED8B0492A800E4A56C4
:1050FC00000E431A000E441A000E451A800E461A72
:10510C00000E471A000E481A000E491A800E4A1A51
:10511C004750435C48504458495045584A504658AB
:10512C00D8B09BEF28F09DEF28F0A0EF28F0D89096
:10513C00A1EF28F0D880120036C10BF037C10CF06B
:10514C0038C10DF039C10EF001C00BF002C00CF0EB
:10515C0003C00DF004C00EF00BC005F00CC006F03F
:10516C000DC007F00EC008F0180EC2EF28F0D89052
:10517C000832073206320532E82EBDEF28F0055012
:10518C00096E0A6A09500A10D8A4CFEF28F0D1EFA3
:10519C0028F0F1EF28F0D8900B34056E0C34066E25
:1051AC000D34076E0E34086E0550061007100810EB
:1051BC00D8A4E3EF28F0E5EF28F0EBEF28F0000E91
:1051CC00026E020E016E20EF29F0000E026E030E2D
:1051DC00016E20EF29F009280A10D8A4F8EF28F066
:1051EC00FAEF28F01CEF29F00BC005F00CC006F00C
:1051FC000DC007F00EC008F0090ED8900536063623
:10520C0007360836E82E03EF29F005500610071074
:10521C000810D8B414EF29F017EF29F0010E18EF8D
:10522C0029F0000E016E026A20EF29F0000E026ECA
:10523C00040E016E120020EE11F0070EDE6AE80675
:10524C00FDE209500A100B100C100D100E100F106F
:10525C001010D8B434EF29F036EF29F088EF29F08C
:10526C00010E196E44EF29F0D89009360A360B3628
:10527C000C360D360E360F361036192A10AE49EF95
:10528C0029F04BEF29F03AEF29F0D890113612366D
:10529C001336143615361636173618360950015C87
:1052AC000A5002580B5003580C5004580D50055816
:1052BC000E5006580F50075810500858D8A069EFD8
:1052CC0029F06BEF29F07CEF29F00950015E0A50B0
:1052DC00025A0B50035A0C50045A0D50055A0E50DA
:1052EC00065A0F50075A1050085A1180D890103295
:1052FC000F320E320D320C320B320A320932192EA9
:10530C004BEF29F011C001F012C002F013C003F0F2
:10531C0014C004F015C005F016C006F017C007F055
:10532C0018C008F012000001F151F211D8A4A1EF3D
:10533C0029F0A3EF29F0A9EF29F0F1C012F0F2C087
:10534C0013F0AFEF29F0FF0EF125126EFF0EF221D4
:10535C00136EF5A1B4EF29F0B6EF29F0BFEF29F0E9
:10536C000EC003F0046A0CC005F00DC006F06DEC25
:10537C002AF013BEC4EF29F0C6EF29F0C8EF29F0CC
:10538C00CCEF29F0000E136E000E126E000E116E93
:10539C00000E106EDEEF29F0000E046E200E036E70
:1053AC000CC005F00DC006F06DEC2AF0104A112A65
:1053BC001250105C1150800A0F6E1350800A0F5857
:1053CC00D8A0EBEF29F0EDEF29F0D2EF29F0000196
:1053DC00F5B1F3EF29F0F5EF29F0FEEF29F00EC04F
:1053EC0003F0046A0CC005F00DC006F06DEC2AF059
:1053FC00010E10240C6E000E11200D6E12000950BF
:10540C000A100B100C100D100E100F101010D8B439
:10541C0012EF2AF014EF2AF05CEF2AF0010E116E55
:10542C0022EF2AF0D89009360A360B360C360D3698
:10543C000E360F361036112A10AE27EF2AF029EF50
:10544C002AF018EF2AF00950015C0A5002580B5050
:10545C0003580C5004580D5005580E5006580F5058
:10546C00075810500858D8A03EEF2AF040EF2AF009
:10547C0050EF2AF00950015E0A50025A0B50035AA1
:10548C000C50045A0D50055A0E50065A0F50075A1C
:10549C001050085AD89010320F320E320D320C3296
:1054AC000B320A320932112E29EF2AF001C001F019
:1054BC0002C002F003C003F004C004F005C005F004
:1054CC0006C006F007C007F008C008F0120005502F
:1054DC000610D8B474EF2AF076EF2AF07FEF2AF09A
:1054EC0005500610D8A47DEF2AF07FEF2AF084EF48
:1054FC002AF0035046EC30F0D1EF2AF020EE04F005
:10550C000550D9260650DA22DE50DE10D8B491EFC1
:10551C002AF093EF2AF0AEEF2AF020EE04F00550BB
:10552C00D9260650DA2210EE02F00550E12606507C
:10553C00E222DE50E65CE650800A0B6EDE50800AFA
:10554C000B58D8B0ACEF2AF0AEEF2AF0D1EF2AF01E
:10555C0020EE02F00550D9260650DA22DECF07F0F5
:10556C00DDCF08F005C0D9FF06C0DAFFDECF09F0A9
:10557C00DDCF0AF007500924D96E08500A20DA6EE4
:10558C0003C0DFFF20EE02F00550D9260650DA22C8
:10559C00DE2A000EDD2212000001F5A1D8EF2AF060
:1055AC00DAEF2AF0E4EF2AF015C00CF016C00DF07B
:1055BC0013C00EF014C00FF048EC2EF018BEE9EF3B
:1055CC002AF0EBEF2AF0F1EF2AF017C01CF018C00C
:1055DC001DF0F5EF2AF0000E1D6E000E1C6E000E75
:1055EC001B6E000E1A6E07EF2BF0000E046E200ED1
:1055FC00036E13C005F014C006F06DEC2AF01A4AC5
:10560C001B2A1C501A5C1B50800A196E1D50800AF4
:10561C001958D8A014EF2BF016EF2BF0FBEF2AF053
:10562C000001F5B11CEF2BF01EEF2BF028EF2BF047
:10563C0015C00CF016C00DF013C00EF014C00FF016
:10564C0048EC2EF015C001F016C002F094EC2DF0D1
:10565C001C500124136E1D500220146E1200000EFB
:10566C00066E04BE3EEF2BF03CEF2BF044EF2BF01C
:10567C00036C041ED8B0042A010E066E02BE4BEF5A
:10568C002BF049EF2BF051EF2BF0016C021ED8B030
:10569C00022A010E061A000E086E000E076E035049
:1056AC000410D8B45CEF2BF05EEF2BF086EF2BF0F0
:1056BC00010E056E66EF2BF0D89003360436052AE2
:1056CC0004AE6BEF2BF06DEF2BF062EF2BF0D8905C
:1056DC00073608360350015C04500258D8A079EF05
:1056EC002BF07BEF2BF080EF2BF00350015E04507E
:1056FC00025A0780D89004320332052E6DEF2BF03E
:10570C000650D8B48CEF2BF08EEF2BF092EF2BF0E1
:10571C00076C081ED8B0082A07C001F008C002F0B8
:10572C001200000E066E02BEA0EF2BF09EEF2BF0C7
:10573C00A6EF2BF0016C021ED8B0022A010E066EE9
:10574C0004BEADEF2BF0ABEF2BF0B1EF2BF0036CF5
:10575C00041ED8B0042A03500410D8B4B8EF2BF0B0
:10576C00BAEF2BF0DEEF2BF0010E056EC2EF2BF033
:10577C00D89003360436052A04AEC7EF2BF0C9EFD8
:10578C002BF0BEEF2BF00350015C04500258D8A054
:10579C00D2EF2BF0D4EF2BF0D8EF2BF00350015EAF
:1057AC000450025AD89004320332052EC9EF2BF064
:1057BC000650D8B4E4EF2BF0E6EF2BF0EAEF2BF029
:1057CC00016C021ED8B0022A01C001F002C002F026
:1057DC001200000E0114096E000E02140A6E800EE7
:1057EC0003140B6E7F0E04140C6E09500A100B1070
:1057FC000C10D8A404EF2CF006EF2CF00EEF2CF0CC
:10580C00000E016E000E026E000E036E000E046E92
:10581C00000E0514096E000E06140A6E800E071495
:10582C000B6E7F0E08140C6E09500A100B100C1026
:10583C00D8A423EF2CF025EF2CF02DEF2CF0000E3C
:10584C00056E000E066E000E076E000E086E0550FB
:10585C0001180FE1065002180CE10750031809E17A
:10586C0008500418D8B43DEF2CF03FEF2CF042EF69
:10587C002CF0D89043EF2CF0D8801200096E8A924D
:10588C000C0E036E000EDCEC2FF0000E036E040EFB
:10589C00DCEC2FF0030E036E030EDCEC2FF00E0E7F
:1058AC00036E060EDCEC2FF009C003F0050EDCECE9
:1058BC002FF0000E036E010EDCEC2FF0010E036EC8
:1058CC00110EDCEC2FF00F0E036E000EDCEC2FF043
:1058DC00060E036E080E046E100E056E02EC2EF012
:1058EC00060E036E080E046E0A0E056E02EC2EF008
:1058FC00F7EC2FF08A821200C4C0C8F0C5C0C9F002
:10590C00000E0001F06F000EEF6FA0EF2CF0C2C084
:10591C0098F0C3C099F0C80E9A6F000E9B6FC6C06A
:10592C009CF0C7C09DF036EC04F000019851EF27B5
:10593C009951F023C8C0F6FFC9C0F7FF0800F55015
:10594C000009D8A4ACEF2CF0AEEF2CF08DEF2CF0BE
:10595C00EFC0C2F0F0C0C3F01200BF0E096EFF0E14
:10596C000A6E07C00BF008C00CF009500B260A5049
:10597C000C220C500AE11A0E0B5CD8A0C8EF2CF0CC
:10598C00CBEF2CF0010ECCEF2CF0000E0D6E0E6A4E
:10599C000D500E10D8B4D5EF2CF0D7EF2CF0DEEF65
:1059AC002CF0200E0710076E0850086EE2EF2CF05A
:1059BC0007C007F008C008F012009F0E096EFF0E1A
:1059CC000A6E07C00BF008C00CF009500B260A50E9
:1059DC000C220C500AE11A0E0B5CD8A0F8EF2CF03C
:1059EC00FBEF2CF0010EFCEF2CF0000E0D6E0E6A8E
:1059FC000D500E10D8B405EF2DF007EF2DF00DEF74
:105A0C002DF05F0E0714076E086A11EF2DF007C01A
:105A1C0007F008C008F0120003C007F004C008F03B
:105A2C0001C009F002C00AF00750056E0850066E5E
:105A3C00074A082A05C0F6FF06C0F7FFF86A09C036
:105A4C00D9FF0AC0DAFF094A0A2A070EF76403D005
:105A5C000800F55005D0F6CFE9FFF7CFEAFFEF507D
:105A6C00DF6EDF50D8A43DEF2DF03FEF2DF01AEF95
:105A7C002DF01200800EF66E600EF76E000EF86EB2
:105A8C0001EEE6F010EE0BF00900F5CFEEFFE5505D
:105A9C00E150FAE1BC0EF66E600EF76E000EF86E79
:105AAC000900F5CFFEF001EE00F0E60EEE6AE80616
:105ABC00FDE100EEEFF00F0EEE6AE806FDE15F6A25
:105ACC00000EF86E0001EBEF25F0010E076E200EB4
:105ADC0001180210D8B475EF2DF077EF2DF090EF80
:105AEC002DF0F70E036EFF0E046E01C005F002C020
:105AFC0006F00350052604500622065009E1050E57
:105B0C00055CD8A08CEF2DF08EEF2DF090EF2DF0E2
:105B1C00000E076E07C001F0026A120001C003F00C
:105B2C0002C004F09CEF2DF0014A022A01C0F6FFDE
:105B3C0002C0F7FFF86A070EF76403D00800F550AF
:105B4C0005D0F6CFE9FFF7CFEAFFEF500009D8A454
:105B5C00B2EF2DF0B4EF2DF09AEF2DF00350015C65
:105B6C00016E04500258026E1200016E000E026E9D
:105B7C00000E026E01AEC5EF2DF0C7EF2DF0CAEF8F
:105B8C002DF08B82CBEF2DF08B92D89001368A843E
:105B9C00140EE82EFED78A94140EE82EFED7022A95
:105BAC00070E0264DCEF2DF0DEEF2DF0C0EF2DF0D0
:105BBC001200000E026E000E016E000E026ED890E6
:105BCC0001368A84040EE82EFED781A6F0EF2DF064
:105BDC00F2EF2DF0F3EF2DF001808A94040EE82EF5
:105BEC00FED7022A070E0264FEEF2DF000EF2EF016
:105BFC00E5EF2DF0015012008B9405502009BBEC01
:105C0C002DF0000E086E08500324066E000E0420C2
:105C1C00076E06C0F6FF07C0F7FF0800F550BBEC97
:105C2C002DF0082A040E08641EEF2EF020EF2EF043
:105C3C0009EF2EF08B84140EE82EFED71200000E06
:105C4C00471A000E481A000E491A800E4A1A43C011
:105C5C0001F044C002F045C003F046C004F047C058
:105C6C0005F048C006F049C007F04AC008F0B9EC8E
:105C7C0014F001C043F002C044F003C045F004C06E
:105C8C0046F01200000E126E000E116E59EF2EF03F
:105C9C0010C003F0046A0EC005F00FC006F06DECE6
:105CAC002AF0114A122A11500C24D96E12500D20D0
:105CBC00DA6EDF50106E1050D8A467EF2EF069EF3B
:105CCC002EF04EEF2EF0120014BE77EF2EF0145083
:105CDC0006E11304D8B075EF2EF077EF2EF085EFB8
:105CEC002EF013C015F014C016F0151E161E154A12
:105CFC00162A15C013F016C014F089EF2EF013C03D
:105D0C0013F014C014F01200080EB86E900EAB6EA7
:105D1C00240EAC6EE10EAF6E040EB06E000E016E72
:105D2C00000E026E50EC30F0000E016E000E026E92
:105D3C004BEC30F0000E016E000E026E55EC30F0A4
:105D4C00000E0001FD6F12009F0E036EFF0E046E1D
:105D5C00200E0110056E000E0210066E0350052673
:105D6C000450062206500AE11A0E055CD8A0C1EFB9
:105D7C002EF0C4EF2EF0010EC5EF2EF0000E016ECA
:105D8C00026A1200056E05C003F003460346C250BA
:105D9C000318830B0318C26EC280C282C2B2D9EF41
:105DAC002EF0DBEF2EF0D4EF2EF0C450046E036A0D
:105DBC00C3500324016E000E0420026E12009F0ECD
:105DCC00036EFF0E046E01C005F002C006F0035016
:105DDC0005260450062206500AE11A0E055CD8A0CE
:105DEC00FAEF2EF0FDEF2EF0010EFEEF2EF0000E6E
:105DFC00016E026A1200BF0E036EFF0E046E01C02C
:105E0C0005F002C006F00350052604500622065089
:105E1C000AE11A0E055CD8A016EF2FF019EF2FF03F
:105E2C00010E1AEF2FF0000E016E026A12000150E3
:105E3C00021003100410D8B426EF2FF028EF2FF027
:105E4C0030EF2FF0000E011A000E021A000E031A8A
:105E5C00800E041A01C001F002C002F003C003F06E
:105E6C0004C004F01200D00E036EFF0E046E01C0CD
:105E7C0005F002C006F00350052604500622065019
:105E8C000AE10A0E055CD8A04EEF2FF051EF2FF06F
:105E9C00010E52EF2FF0000E016E026A1200E70E97
:105EAC000001EB6F000EEC6FE1C0CAF0E2C0CBF06A
:105EBC00E3C0CCF0E4C0CDF0E5C0CEF0E6C0CFF04E
:105ECC00EB0ED06F000ED16F82EC26F0120078EF43
:105EDC002FF002C0D9FF03C0DAFFDF5024EC30F002
:105EEC00024A032A02C0D9FF03C0DAFFDF50D8A44C
:105EFC0082EF2FF084EF2FF06FEF2FF01200000ED7
:105F0C00896E000E8A6E000E8B6EC70E926EFE0EA0
:105F1C00936E870E946E040E0F015D6F3E0E5C6FD8
:105F2C00070E5B6F000E856EF18E1200015003029E
:105F3C00F3CF05F0F4CF06F001500402F35006261F
:105F4C0002500302F350062605C001F006C002F011
:105F5C001200700ED36E000ED26E800E9B6E000E71
:105F6C00B56ED2AEBCEF2FF0BEEF2FF0B7EF2FF027
:105F7C0012005AEC30F0400AD8A4C7EF2FF0C9EF4A
:105F8C002FF0CCEF2FF0010ECDEF2FF0000E120002
:105F9C00036E8B940350BBEC2DF0DFEC2DF0046EF4
:105FAC008B84140EE82EFED704501200046E8B94D2
:105FBC0004502009BBEC2DF00350BBEC2DF08B846E
:105FCC00140EE82EFED712008B94610EBBEC2DF054
:105FDC00DFEC2DF0036E8B84140EE82EFED70350ED
:105FEC001200700E036E070EDCEC2FF0E10E2FEC9E
:105FFC0030F0E20E2FEC30F01200949293949494C3
:10600C009386939294808A948B948B928A921200AA
:10601C0085EC2FF0AFEC2FF039EC30F019EC30F0C0
:10602C008AEC2EF01200000EC16E870EC06E000EB0
:10603C00C36E000EC46E010EC26E1200016E9EA8DD
:10604C002AEF30F02CEF30F025EF30F001C0ADFF2F
:10605C001200036E8B940350BBEC2DF08B84140E4A
:10606C00E82EFED71200000E976E000E906E000EFA
:0F607C00916E1200286E756C6C2900A4703D3E69
:10608C00026E025024EC30F0120001C058F102C034
:10609C0059F1120001C05AF102C05BF1120001C0AB
:1060AC0056F102C057F11200070ECEEC2FF0120081
:0160BC00647F
:020000040020DA
:08000000FFFFFFFFFFFFFFFF00
:020000040030CA
:0E00000023225E3CFFD185FF0FC00FE00F40B2
:00000001FF
