:0400000026EF00F0F7
:100008005B82FACF03F0FBCF04F0F2AC0EEF00F006
:1000180010EF00F020EF00F09DA015EF00F017EFB3
:1000280000F020EF00F09EA01CEF00F01EEF00F0A3
:1000380020EF00F0D7EC0FF004C0FBFF03C0FAFF7D
:080048005B9211000FEF0FF0B5
:1008000000111111111140380000111111111100C6
:100810000850800B116E08500824136E07AE13EFBA
:1008200004F015EF04F016EF04F013801350D8B461
:100830001CEF04F01EEF04F033EF04F01328D8A4EB
:1008400024EF04F026EF04F02EEF04F0000E056E06
:10085000000E066E000E076E000E086E078E000E6C
:10086000086E3BEF04F0000E056E000E066E000EE3
:10087000076E000E086E0C50800B126E115012188D
:10088000D8B445EF04F047EF04F048EF04F0118CC2
:100890000C500C24126E0BAE50EF04F052EF04F02B
:1008A00053EF04F012801250D8B459EF04F05BEF0C
:1008B00004F070EF04F01228D8A461EF04F063EFA5
:1008C00004F06BEF04F0000E096E000E0A6E000ECD
:1008D0000B6E000E0C6E0B8E000E0C6E78EF04F09B
:1008E000000E096E000E0A6E000E0B6E000E0C6EEE
:1008F0001350125CD8B07FEF04F081EF04F0A8EF42
:1009000004F011AC86EF04F088EF04F08AEF04F0F5
:10091000800E111A13C014F012C013F014C012F09C
:1009200005C014F009C005F014C009F006C014F0A9
:100930000AC006F014C00AF007C014F00BC007F09C
:1009400014C00BF008C014F00CC008F014C00CF078
:10095000000E146E135012C00DF00E6A0D5E000EE4
:100960000E5A0EBEBDEF04F00E5009E11A0E0D5CDA
:10097000D8A0BDEF04F0BFEF04F0F6EF04F005508F
:10098000061007100810D8A4C8EF04F0CBEF04F04D
:10099000010ECCEF04F0000E146E000E056E000E7A
:1009A000066E000E076E000E086E12C013F0FFEF09
:1009B00004F014A0DEEF04F0E0EF04F0E6EF04F042
:1009C000D89014300109146EE8EF04F0D890143276
:1009D00005A0EDEF04F0EFEF04F0F0EF04F0148E5B
:1009E00008340832073206320532132A1250135CDB
:1009F000D8A0FDEF04F0FFEF04F0D9EF04F011BC34
:100A000004EF05F006EF05F046EF05F01350D8A40B
:100A10000CEF05F00EEF05F018EF05F0000E056E77
:100A2000000E066E000E076E000E086E67EF06F0F1
:100A3000095005260A5006220B5007220C500822A6
:100A400008A025EF05F027EF05F0D3EF05F014A07F
:100A50002CEF05F02EEF05F034EF05F0D8901430B0
:100A60000109146E36EF05F0D890143205A03BEF63
:100A700005F03DEF05F03EEF05F0148E0834083226
:100A8000073206320532132AD3EF05F00950055C10
:100A90000A5006580B5007580850800A0D6E0C502B
:100AA000800A0D58D8B057EF05F059EF05F084EFE4
:100AB00005F00550095C0D6E06500A580E6E075081
:100AC0000B580F6E08500C58106EFF0E0D24056E5B
:100AD000FF0E0E20066EFF0E0F20076EFF0E102079
:100AE000086E800E111A146C1450D8A47AEF05F019
:100AF0007CEF05F08CEF05F0010E0526000E0622B6
:100B0000072208228CEF05F00950055E0A50065AAC
:100B10000B50075A0C50085A0550061007100810C1
:100B2000D8A495EF05F097EF05F0CCEF05F0145041
:100B3000D8A49DEF05F09FEF05F0CCEF05F0000E77
:100B4000056E000E066E000E076E000E086E67EF53
:100B500006F0D890053606360736083614AEB3EFE1
:100B600005F0B5EF05F0B6EF05F0058014A0BBEF7A
:100B700005F0BDEF05F0C1EF05F0D8801436C3EFE6
:100B800005F0D89014361350D8B4C9EF05F0CBEF68
:100B900005F0CCEF05F0130607AED1EF05F0D3EF6B
:100BA00005F0A9EF05F0000E126E14AEDAEF05F0B5
:100BB000DCEF05F0F4EF05F014C00DF07F0E0D161C
:100BC000D8B4E5EF05F0E7EF05F0EBEF05F0010E27
:100BD000126EF4EF05F005A0F0EF05F0F2EF05F06E
:100BE000F4EF05F0E7EF05F01250D8B4FAEF05F096
:100BF000FCEF05F027EF06F0010E0526000E062299
:100C00000722082208A007EF06F009EF06F027EFF9
:100C100006F005C00DF006C00EF007C00FF008C0CA
:100C200010F0103410320F320E320D320DC005F0BC
:100C30000EC006F00FC007F010C008F01328D8B49B
:100C400024EF06F026EF06F027EF06F0132A13280C
:100C5000D8B42DEF06F02FEF06F037EF06F0135063
:100C6000D8A435EF06F037EF06F049EF06F0000E96
:100C7000056E000E066E000E076E000E086E135015
:100C8000D8A445EF06F047EF06F049EF06F0000E56
:100C9000116E13A04EEF06F050EF06F053EF06F082
:100CA000078E54EF06F0079ED8901330086E11AEF1
:100CB0005CEF06F05EEF06F05FEF06F0088E05C011
:100CC00005F006C006F007C007F008C008F01200E3
:100CD0001650800B1F6E16501624256E15AE73EF3E
:100CE00006F075EF06F076EF06F025802550D8B4B3
:100CF0007CEF06F07EEF06F091EF06F02528D8A4F1
:100D000084EF06F086EF06F08EEF06F0000E136E0D
:100D1000000E146E000E156E000E166E158E99EFF5
:100D200006F0000E136E000E146E000E156E000E0F
:100D3000166E1A50800B1F1A1A501A24206E19AE04
:100D4000A4EF06F0A6EF06F0A7EF06F020802050F3
:100D5000D8B4ADEF06F0AFEF06F0C2EF06F02028F2
:100D6000D8A4B5EF06F0B7EF06F0BFEF06F0000E1F
:100D7000176E000E186E000E196E000E1A6E198E88
:100D8000CAEF06F0000E176E000E186E000E196EF8
:100D9000000E1A6E2050D8B4D0EF06F0D2EF06F055
:100DA000DAEF06F02550D8A4D8EF06F0DAEF06F017
:100DB000E4EF06F0000E136E000E146E000E156EBA
:100DC000000E166E7CEF08F019501302F3CF2AF0D4
:100DD000F4CF2BF02A50216E226A236A246A2B500A
:100DE000266E276A286A296A18501402F3CF2AF05F
:100DF000F4CF2BF02A502126000E22222322242277
:100E00002B502626000E27222822292217501502B1
:100E1000F3CF2AF0F4CF2BF02A502126000E222205
:100E2000232224222B502626000E27222822292284
:100E300023C024F022C023F021C022F0216A1750E1
:100E40001402F3CF2AF0F4CF2BF02A5021262B5096
:100E50002222000E2322000E242218501302F3CF68
:100E60002AF0F4CF2BF02A5021262B502222000EFC
:100E70002322000E242223C024F022C023F021C00C
:100E800022F0216A17501302F3CF2AF0F4CF2BF08F
:100E90002A5021262B502222000E2322000E24222B
:100EA00019501402F3CF2AF0F4CF2BF02A50262643
:100EB0002B502722000E2822000E2922185015023E
:100EC000F3CF2AF0F4CF2BF02A5026262B502722DE
:100ED000000E2822000E292219501502F3CF2AF005
:100EE000F4CF2BF02A501B6E2B501C6E1D6A1E6A0D
:100EF0001DC01EF01CC01DF01BC01CF01B6A1B5047
:100F000026261C5027221D5028221E50292221C08F
:100F10001BF022C01CF023C01DF024C01EF0190ECF
:100F200097EF07F0D8901E321D321C321B32E82E8C
:100F300092EF07F01B5026261C5027221D50282216
:100F40001E50292223C024F022C023F021C022F009
:100F5000216A205025C01BF01C6A1B26000E1C2293
:100F6000820E1B242A6EFF0E1C202B6ECDEF07F085
:100F7000D890263627362836293624AEC2EF07F019
:100F8000C4EF07F0C5EF07F02680D890213622364F
:100F9000233624362A06D8A02B0628AED2EF07F037
:100FA000D4EF07F0B8EF07F0000E206E24AEDBEFB1
:100FB00007F0DDEF07F001EF08F0FF0E21141B6EC4
:100FC000FF0E22141C6EFF0E23141D6E7F0E2414C0
:100FD0001E6E1B501C101D101E10D8B4F2EF07F02F
:100FE000F4EF07F0F8EF07F0010E206E01EF08F0C4
:100FF00026A0FDEF07F0FFEF07F001EF08F0F4EF98
:1010000007F02050D8B407EF08F009EF08F02DEFF3
:1010100008F0010E2626000E27222822292229A0C8
:1010200014EF08F016EF08F02DEF08F026C01BF0C3
:1010300027C01CF028C01DF029C01EF01E341E322F
:101040001D321C321B321BC026F01CC027F01DC0F5
:1010500028F01EC029F02A4A2B2A2BBE38EF08F0B0
:101060002B5008E12A28D8A038EF08F03AEF08F012
:1010700044EF08F0000E266E000E276E800E286EDC
:101080007F0E296E72EF08F02BBE51EF08F02B5047
:1010900006E12A04D8B04FEF08F051EF08F05DEFF9
:1010A00008F0000E266E000E276E000E286E000E51
:1010B000296E000E1F6E72EF08F02AC025F0FF0E99
:1010C0002616FF0E27167F0E2816000E291625A0BD
:1010D0006CEF08F06EEF08F06FEF08F0288ED890F4
:1010E0002530296E1F50291226C013F027C014F096
:1010F00028C015F029C016F012002050800B2D6E6C
:1011000020502024346E1FAE88EF08F08AEF08F0DC
:101110008BEF08F034803450D8B491EF08F093EF9F
:1011200008F0A8EF08F03428D8A499EF08F09BEF56
:1011300008F0A3EF08F0000E1D6E000E1E6E000EEC
:101140001F6E000E206E1F8E000E206EB0EF08F096
:10115000000E1D6E000E1E6E000E1F6E000E206E25
:101160002450800B2D1A24502424356E23AEBBEF5F
:1011700008F0BDEF08F0BEEF08F035803550D8B468
:10118000C4EF08F0C6EF08F0DBEF08F03528D8A46C
:10119000CCEF08F0CEEF08F0D6EF08F0000E216E8D
:1011A000000E226E000E236E000E246E238E000EA3
:1011B000246EE3EF08F0000E216E000E226E000E8A
:1011C000236E000E246E2150221023102410D8A468
:1011D000ECEF08F0EEEF08F006EF09F0000E1D6EE0
:1011E000000E1E6E000E1F6E000E206E800E1F126F
:1011F0007F0E20122D5020121DC01DF01EC01EF0AB
:101200001FC01FF020C020F049EF0AF03450D8A4CE
:101210000CEF09F00EEF09F018EF09F0000E1D6E4B
:10122000000E1E6E000E1F6E000E206E49EF0AF0BB
:10123000355034C025F0266A255E000E265A7F0EF2
:1012400025242E6E000E26202F6E1DC029F01EC0F4
:101250002AF01FC02BF020C02CF0000E1D6E000ED7
:101260001E6E000E1F6E000E206E000E306E000E01
:10127000316E000E326E000E336E000E356E79EF59
:1012800009F03550D8B447EF09F049EF09F060EFA5
:1012900009F0D89029362A362B362C36D8901D36B0
:1012A0001E361F36203633AE58EF09F05AEF09F0DC
:1012B0005BEF09F01D80D890303631363236333648
:1012C0002150295C22502A5823502B5824502C5846
:1012D000D8A06DEF09F06FEF09F078EF09F0338CCB
:1012E0002150295E22502A5A23502B5A24502C5A1E
:1012F000352A190E35647FEF09F081EF09F041EFCF
:1013000009F029502A102B102C10D8B48AEF09F0BC
:101310008CEF09F0A4EF09F03080A4EF09F0D89029
:101320001D361E361F36203633AE99EF09F09BEF7F
:1013300009F09CEF09F01D80D890303631363236F6
:1013400033362E06D8A02F061FAEA9EF09F0ABEF5B
:1013500009F08FEF09F0000E356E33AEB2EF09F0F1
:10136000B4EF09F0D8EF09F0FF0E3014256EFF0E30
:101370003114266EFF0E3214276E7F0E3314286E42
:101380002550261027102810D8B4C9EF09F0CBEF4C
:1013900009F0CFEF09F0010E356ED8EF09F01DA06E
:1013A000D4EF09F0D6EF09F0D8EF09F0CBEF09F050
:1013B0003550D8B4DEEF09F0E0EF09F004EF0AF0A1
:1013C000010E1D26000E1E221F22202220A0EBEF60
:1013D00009F0EDEF09F004EF0AF01DC025F01EC082
:1013E00026F01FC027F020C028F0283428322732EA
:1013F0002632253225C01DF026C01EF027C01FF062
:1014000028C020F02E4A2F2A2FBE0FEF0AF02F50AF
:1014100008E12E28D8A00FEF0AF011EF0AF01CEF18
:101420000AF0000E2F6E2E68000E1D6E000E1E6E4E
:10143000000E1F6E000E206E2FBE29EF0AF02F50F7
:1014400006E12E04D8B027EF0AF029EF0AF037EFB3
:101450000AF0000E2F6E000E2E6E000E1D6E000E96
:101460001E6E000E1F6E000E206E000E2D6E2EC022
:1014700034F034A03EEF0AF040EF0AF043EF0AF0F8
:101480001F8E44EF0AF01F9ED8903430206EFAEF82
:1014900008F01200070E376ED00E366EF1EC0BF02E
:1014A00036C0A0F037C0A1F038C0A2F039C0A3F018
:1014B000CD0E096ECC0E0A6ECC0E0B6EBD0E0C6EF0
:1014C000A0C005F0A1C006F0A2C007F0A3C008F0BC
:1014D00008EC04F005C01DF006C01EF007C01FF0A8
:1014E00008C020F0CD0E216ECC0E226ECC0E236EE5
:1014F0003D0E246E7DEC08F01DC047F01EC048F084
:101500001FC049F020C04AF0000E056E000E066EA6
:10151000100E076E410E086E47C009F048C00AF071
:1015200049C00BF04AC00CF0B8EC0DF0D8A09BEF0E
:101530000AF09DEF0AF0D5EF0AF0899A76C072F0B2
:1015400077C073F078C074F079C075F000016E5107
:10155000725D416E6F517359426E70517459436E92
:1015600071517559446E445043100BE1400E415C7B
:10157000380E4258D8A0BFEF0AF0C1EF0AF0D5EFFD
:101580000AF072C06EF073C06FF074C070F075C076
:1015900071F0898AB70E426EA10E416EC40EE82E1C
:1015A000FED7412EFCD7422EFAD747C005F048C0DF
:1015B00006F049C007F04AC008F0000E096E000EA0
:1015C0000A6E800E0B6E410E0C6EB8EC0DF0D8A0BA
:1015D000ECEF0AF0EEEF0AF022EF0BF047C005F057
:1015E00048C006F049C007F04AC008F0000E096E76
:1015F000000E0A6E880E0B6E410E0C6EB8EC0DF0EC
:10160000D8B005EF0BF007EF0BF022EF0BF0010E57
:101610005724576E000E5820586E58BE19EF0BF025
:10162000590E575C020E5858D8A019EF0BF01BEF5B
:101630000BF022EF0BF0000E586E000E576E899AD9
:1016400020EF0BF047C005F048C006F049C007F096
:101650004AC008F0000E096E000E0A6E880E0B6E6E
:10166000410E0C6EB8EC0DF0D8A039EF0BF03BEF4B
:101670000BF06FEF0BF047C005F048C006F049C013
:1016800007F04AC008F0000E096E000E0A6E900EB8
:101690000B6E410E0C6EB8EC0DF0D8B052EF0BF0A3
:1016A00054EF0BF06FEF0BF0010E5524556E000E4A
:1016B0005620566E56BE66EF0BF02D0E555C010E91
:1016C0005658D8A066EF0BF068EF0BF06FEF0BF0F9
:1016D000000E566E000E556E899A6DEF0BF047C0E6
:1016E00005F048C006F049C007F04AC008F0000EF7
:1016F000096E000E0A6E900E0B6E410E0C6EB8EC69
:101700000DF0D8A086EF0BF088EF0BF0BCEF0BF0DC
:1017100047C005F048C006F049C007F04AC008F0CD
:10172000000E096E000E0A6E980E0B6E410E0C6EC6
:10173000B8EC0DF0D8B09FEF0BF0A1EF0BF0BCEFC1
:101740000BF0010E5324536E000E5420546E54BE01
:10175000B3EF0BF0545009E1790E535CD8A0B3EF0E
:101760000BF0B5EF0BF0BCEF0BF0000E546E000E5B
:10177000536E899ABAEF0BF047C005F048C006F0E7
:1017800049C007F04AC008F0000E096E000E0A6E4C
:10179000980E0B6E410E0C6EB8EC0DF0D8A0D3EF86
:1017A0000BF0D5EF0BF0F0EF0BF0010E5124516E62
:1017B000000E5220526E52BEE7EF0BF0525009E17C
:1017C000100E515CD8A0E7EF0BF0E9EF0BF0F0EF53
:1017D0000BF0000E526E000E516E899AEEEF0BF078
:1017E0001200000E0001826F000E836F000E846FE6
:1017F000000E856F000E7E6F000E7F6F000E806FF3
:10180000000E816F000E3C6E000E3B6EA2EF0CF0DE
:10181000000EBAEC0FF005C08AF006C08BF08AC04B
:1018200005F08BC006F0076A086A000EDEEC0CF0CB
:1018300005C013F006C014F007C015F008C016F07C
:101840000A0E176E280E186EA00E196E3B0E1A6E39
:1018500068EC06F013C086F014C087F015C088F05D
:1018600016C089F05E0E096EBA0E0A6E210E0B6E5E
:10187000C00E0C6E86C005F087C006F088C007F069
:1018800089C008F008EC04F005C01DF006C01EF089
:1018900007C01FF008C020F04E0E216E620E226EAF
:1018A000900E236E3E0E246E7DEC08F01DC03DF0C0
:1018B0001EC03EF01FC03FF020C040F082C005F0C7
:1018C00083C006F084C007F085C008F03DC009F071
:1018D0003EC00AF03FC00BF040C00CF0B8EC0DF079
:1018E000D8B075EF0CF077EF0CF07FEF0CF03DC047
:1018F00082F03EC083F03FC084F040C085F03DC020
:1019000005F03EC006F03FC007F040C008F07EC0C2
:1019100009F07FC00AF080C00BF081C00CF0B8EC79
:101920000DF0D8B096EF0CF098EF0CF0A0EF0CF0A3
:101930003DC07EF03EC07FF03FC080F040C081F0EF
:101940003B4A3C2A36503B5C3C50800A3A6E37504A
:10195000800A3A58D8A0AFEF0CF0B1EF0CF008EFC6
:101960000CF07EC019F07FC01AF080C01BF081C05F
:101970001CF082C015F083C016F084C017F085C03B
:1019800018F032EC0FF015C01DF016C01EF017C095
:101990001FF018C020F0000E216E000E226E000E07
:1019A000236E400E246E7DEC08F01DC036F01EC084
:1019B00037F01FC038F020C039F012000D6E0D5006
:1019C000D8B4E5EF0CF0E7EF0CF009EF0DF008BE2E
:1019D000EEEF0CF0ECEF0CF009EF0DF005C009F0A4
:1019E00006C00AF007C00BF008C00CF0091E0A1E62
:1019F0000B1E0C1E092A000E0A220B220C2209C003
:101A00000FF00AC010F00BC011F00CC012F011EF73
:101A10000DF005C00FF006C010F007C011F008C0AF
:101A200012F00550061007100810D8A41AEF0DF098
:101A30001CEF0DF026EF0DF0000E056E000E066E89
:101A4000000E076E000E086EB7EF0DF0960E0E6ECC
:101A500030EF0DF00E2AD8901232113210320F32C0
:101A6000000E0F14096E000E10140A6E000E1114F1
:101A70000B6EFE0E12140C6E09500A100B100C1097
:101A8000D8A445EF0DF047EF0DF02AEF0DF055EF1C
:101A90000DF00E2A010E0F26000E10221122122226
:101AA000D8901232113210320F32000E0F14096E1C
:101AB000000E10140A6E000E11140B6EFF0E12149D
:101AC0000C6E09500A100B100C10D8A46AEF0DF020
:101AD0006CEF0DF049EF0DF074EF0DF00E06D8909D
:101AE0000F3610361136123611BE79EF0DF07BEF3E
:101AF0000DF083EF0DF0020E0E6081EF0DF083EF1D
:101B00000DF06EEF0DF00EB088EF0DF08AEF0DF0D6
:101B10008BEF0DF0119ED8900E320EC009F00A6ABC
:101B20000B6A0C6A09C00CF00B6A0A6A096A095050
:101B30000F120A5010120B5011120C5012120D50AD
:101B4000D8B4A5EF0DF0A7EF0DF0AFEF0DF008BE84
:101B5000AEEF0DF0ACEF0DF0AFEF0DF0128E0FC049
:101B600005F010C006F011C007F012C008F0120016
:101B7000000E05140D6E000E06140E6E800E071476
:101B80000F6E7F0E0814106E0D500E100F101010F7
:101B9000D8A4CDEF0DF0CFEF0DF0D7EF0DF0000E84
:101BA000056E000E066E000E076E000E086E000E2B
:101BB00009140D6E000E0A140E6E800E0B140F6EBB
:101BC0007F0E0C14106E0D500E100F101010D8A4B4
:101BD000ECEF0DF0EEEF0DF0F6EF0DF0000E096EEC
:101BE000000E0A6E000E0B6E000E0C6E08AEFBEFC0
:101BF0000DF0FDEF0DF006EF0EF0056C061ED8B0EF
:101C0000062A071ED8B0072A800E08560CAE0BEF26
:101C10000EF00DEF0EF016EF0EF0096C0A1ED8B0A4
:101C20000A2A0B1ED8B00B2A800E0C56000E051A7D
:101C3000000E061A000E071A800E081A000E091A66
:101C4000000E0A1A000E0B1A800E0C1A0950055CC1
:101C50000A5006580B5007580C500858D8B033EFAC
:101C60000EF035EF0EF038EF0EF0D89039EF0EF0A1
:101C7000D880120051EC10F0F28EF28C070E0F019A
:101C80005B6F000E5C6F000E5D6F95EC10F0110E37
:101C900089EC0EF07A0E466EC10E456E820EE82E6D
:101CA000FED7452EFCD7462EFAD7898AB70E466E48
:101CB000A10E456EC40EE82EFED7452EFCD7462E4B
:101CC000FAD74AEC0AF042EC10F0E806D8A46BEF21
:101CD0000EF06DEF0EF079EF0EF07CEC10F0596E17
:101CE0005904D8A476EF0EF078EF0EF079EF0EF0ED
:101CF000898A070E466E170E456E6A0EE82EFED7CD
:101D0000452EFCD7462EFAD700D061EF0EF026EF15
:101D100000F00D6E8A920C0E076E000E6EEC10F045
:101D2000000E076E040E6EEC10F0030E076E030E2D
:101D30006EEC10F0160E076E060E6EEC10F00DC075
:101D400007F0050E6EEC10F0000E076E010E6EEC43
:101D500010F0010E076E110E6EEC10F00F0E076EF4
:101D6000000E6EEC10F00A0E076E080E086E100ED4
:101D7000096E78EC0FF00A0E076E080E086E0A0E58
:101D8000096E78EC0FF089EC10F08A821200056E73
:101D9000000E066E000E066E05AED1EF0EF0D3EF0C
:101DA0000EF0D6EF0EF08B82D7EF0EF08B92D8901C
:101DB00005368A84140EE82EFED78A94140EE82E77
:101DC000FED7062A070E0664E8EF0EF0EAEF0EF0E3
:101DD000CCEF0EF01200010E00017625766F000E9A
:101DE0007721776F000E7821786F000E7921796F57
:101DF0004D504E10D8B4FFEF0EF001EF0FF00EEF84
:101E00000FF002D80EEF0FF00500FA6E4D50FD6E88
:101E10004E50FE6EF850FF6EFA5012001200780E0F
:101E2000F66E210EF76E000EF86E00EE94F010EED6
:101E30000CF00900F5CFEEFFE550E150FAE100EEBD
:101E400060F0340EEE6AE806FDE100EE47F0140E95
:101E5000EE6AE806FDE15B905B92000EF86E000111
:101E60003AEF0EF0000E191A000E1A1A000E1B1A85
:101E7000800E1C1A15C005F016C006F017C007F03A
:101E800018C008F019C009F01AC00AF01BC00BF006
:101E90001CC00CF008EC04F005C015F006C016F0EC
:101EA00007C017F008C018F01200000E066E000EF2
:101EB000056E000E066ED89005368A84040EE82E54
:101EC000FED781A666EF0FF068EF0FF069EF0FF015
:101ED00005808A94040EE82EFED7062A070E0664B3
:101EE00074EF0FF076EF0FF05BEF0FF0055012007C
:101EF0008B9409502009C7EC0EF0000E0C6E0C50AC
:101F000007240A6E000E08200B6E0AC0F6FF0BC0F5
:101F1000F7FF0800F550C7EC0EF00C2A040E0C6415
:101F200094EF0FF096EF0FF07FEF0FF08B84140E0D
:101F3000E82EFED71200080EB86E900EAB6E240E7F
:101F4000AC6EE10EAF6E040EB06E000E056E000EAC
:101F5000066ECCEC10F0000E056E000E066EC7EC9F
:101F600010F0000E056E000E066ED1EC10F0000EA3
:101F70005A6E1200096E09C007F007460746C250A4
:101F80000718830B0718C26EC280C282C2B2CBEFA1
:101F90000FF0CDEF0FF0C6EF0FF0C450086E076AD8
:101FA000C3500724056E000E0820066E12009E9096
:101FB0004FC001F050C002F01EEC10F04B4A4C2A0A
:101FC000E80E4B5C030E4C58D8A0E9EF0FF0EBEF96
:101FD0000FF0F1EF0FF0EBEC0EF0000E4C6E000E78
:101FE0004B6E1200000E896E000E8A6E000E8B6E14
:101FF000C70E926EFE0E936E870E946E040E0F0146
:102000005D6F3E0E5C6F070E5B6F000E856EF18E8E
:102010001200000ECC6ED10ECF6E200ECE6ECECF43
:102020004FF0CFCF50F09E909D80B80E056E210EE0
:10203000066EC2EC10F0010ECD6E1200CDA423EF9F
:1020400010F025EF10F02DEF10F0CD900250CF6E74
:1020500001C0CEFFCD8031EF10F00250CF6E01C035
:10206000CEFF1200700ED36E000ED26E800E9B6EED
:10207000000EB56ED2AE3FEF10F041EF10F03AEF28
:1020800010F01200D6EC10F0400AD8A44AEF10F07D
:102090004CEF10F04FEF10F0010E50EF10F0000E6B
:1020A0001200DAEC10F0F2EC0FF032EC10F0B5ECBC
:1020B00010F009EC10F0A0EC10F09BEC0FF0120007
:1020C000076E8B940750C7EC0EF055EC0FF0086EBE
:1020D0008B84140EE82EFED708501200086E8B94E5
:1020E00008502009C7EC0EF00750C7EC0EF08B84A7
:1020F000140EE82EFED712008B94610EC7EC0EF082
:1021000055EC0FF0076E8B84140EE82EFED70750A7
:102110001200700E076E070E6EEC10F0E10EABECC5
:1021200010F0E20EABEC10F01200949293949494A1
:102130009386939294808A948B948B928A921200C5
:10214000000EC16E870EC06E000EC36E000EC46E10
:10215000010EC26E1200076E8B940750C7EC0EF092
:102160008B84140EE82EFED71200000E976E000E20
:10217000906E000E916E1200CDCCCC3DCDCCCC3DFE
:102180004E62903E05C04DF006C04EF0120005C0F4
:1021900090F006C091F0120005C092F006C093F0D6
:1021A000120005C08EF006C08FF01200070E60EC22
:0A21B00010F01200D09E1200120081
:020000040020DA
:08000000FFFFFFFFFFFFFFFF00
:020000040030CA
:0E00000023225E3CFFD185FF0FC00FE00F40B2
:00000001FF
